{
  "contractName": "XToken",
  "abi": [
    {
      "constant": true,
      "inputs": [],
      "name": "name",
      "outputs": [
        {
          "name": "",
          "type": "string"
        }
      ],
      "payable": false,
      "stateMutability": "view",
      "type": "function"
    },
    {
      "constant": false,
      "inputs": [
        {
          "name": "spender",
          "type": "address"
        },
        {
          "name": "amount",
          "type": "uint256"
        }
      ],
      "name": "approve",
      "outputs": [
        {
          "name": "",
          "type": "bool"
        }
      ],
      "payable": false,
      "stateMutability": "nonpayable",
      "type": "function"
    },
    {
      "constant": true,
      "inputs": [],
      "name": "totalSupply",
      "outputs": [
        {
          "name": "",
          "type": "uint256"
        }
      ],
      "payable": false,
      "stateMutability": "view",
      "type": "function"
    },
    {
      "constant": false,
      "inputs": [
        {
          "name": "sender",
          "type": "address"
        },
        {
          "name": "recipient",
          "type": "address"
        },
        {
          "name": "amount",
          "type": "uint256"
        }
      ],
      "name": "transferFrom",
      "outputs": [
        {
          "name": "",
          "type": "bool"
        }
      ],
      "payable": false,
      "stateMutability": "nonpayable",
      "type": "function"
    },
    {
      "constant": true,
      "inputs": [],
      "name": "decimals",
      "outputs": [
        {
          "name": "",
          "type": "uint8"
        }
      ],
      "payable": false,
      "stateMutability": "view",
      "type": "function"
    },
    {
      "constant": true,
      "inputs": [],
      "name": "cap",
      "outputs": [
        {
          "name": "",
          "type": "uint256"
        }
      ],
      "payable": false,
      "stateMutability": "view",
      "type": "function"
    },
    {
      "constant": false,
      "inputs": [
        {
          "name": "spender",
          "type": "address"
        },
        {
          "name": "addedValue",
          "type": "uint256"
        }
      ],
      "name": "increaseAllowance",
      "outputs": [
        {
          "name": "",
          "type": "bool"
        }
      ],
      "payable": false,
      "stateMutability": "nonpayable",
      "type": "function"
    },
    {
      "constant": true,
      "inputs": [
        {
          "name": "account",
          "type": "address"
        }
      ],
      "name": "balanceOf",
      "outputs": [
        {
          "name": "",
          "type": "uint256"
        }
      ],
      "payable": false,
      "stateMutability": "view",
      "type": "function"
    },
    {
      "constant": false,
      "inputs": [],
      "name": "renounceOwnership",
      "outputs": [],
      "payable": false,
      "stateMutability": "nonpayable",
      "type": "function"
    },
    {
      "constant": true,
      "inputs": [],
      "name": "owner",
      "outputs": [
        {
          "name": "",
          "type": "address"
        }
      ],
      "payable": false,
      "stateMutability": "view",
      "type": "function"
    },
    {
      "constant": true,
      "inputs": [],
      "name": "isOwner",
      "outputs": [
        {
          "name": "",
          "type": "bool"
        }
      ],
      "payable": false,
      "stateMutability": "view",
      "type": "function"
    },
    {
      "constant": true,
      "inputs": [],
      "name": "symbol",
      "outputs": [
        {
          "name": "",
          "type": "string"
        }
      ],
      "payable": false,
      "stateMutability": "view",
      "type": "function"
    },
    {
      "constant": false,
      "inputs": [
        {
          "name": "account",
          "type": "address"
        }
      ],
      "name": "addMinter",
      "outputs": [],
      "payable": false,
      "stateMutability": "nonpayable",
      "type": "function"
    },
    {
      "constant": false,
      "inputs": [],
      "name": "renounceMinter",
      "outputs": [],
      "payable": false,
      "stateMutability": "nonpayable",
      "type": "function"
    },
    {
      "constant": false,
      "inputs": [
        {
          "name": "spender",
          "type": "address"
        },
        {
          "name": "subtractedValue",
          "type": "uint256"
        }
      ],
      "name": "decreaseAllowance",
      "outputs": [
        {
          "name": "",
          "type": "bool"
        }
      ],
      "payable": false,
      "stateMutability": "nonpayable",
      "type": "function"
    },
    {
      "constant": false,
      "inputs": [
        {
          "name": "recipient",
          "type": "address"
        },
        {
          "name": "amount",
          "type": "uint256"
        }
      ],
      "name": "transfer",
      "outputs": [
        {
          "name": "",
          "type": "bool"
        }
      ],
      "payable": false,
      "stateMutability": "nonpayable",
      "type": "function"
    },
    {
      "constant": true,
      "inputs": [
        {
          "name": "account",
          "type": "address"
        }
      ],
      "name": "isMinter",
      "outputs": [
        {
          "name": "",
          "type": "bool"
        }
      ],
      "payable": false,
      "stateMutability": "view",
      "type": "function"
    },
    {
      "constant": true,
      "inputs": [
        {
          "name": "owner",
          "type": "address"
        },
        {
          "name": "spender",
          "type": "address"
        }
      ],
      "name": "allowance",
      "outputs": [
        {
          "name": "",
          "type": "uint256"
        }
      ],
      "payable": false,
      "stateMutability": "view",
      "type": "function"
    },
    {
      "constant": false,
      "inputs": [
        {
          "name": "newOwner",
          "type": "address"
        }
      ],
      "name": "transferOwnership",
      "outputs": [],
      "payable": false,
      "stateMutability": "nonpayable",
      "type": "function"
    },
    {
      "inputs": [
        {
          "name": "contractOwner",
          "type": "address"
        }
      ],
      "payable": false,
      "stateMutability": "nonpayable",
      "type": "constructor"
    },
    {
      "anonymous": false,
      "inputs": [
        {
          "indexed": true,
          "name": "account",
          "type": "address"
        }
      ],
      "name": "MinterAdded",
      "type": "event"
    },
    {
      "anonymous": false,
      "inputs": [
        {
          "indexed": true,
          "name": "account",
          "type": "address"
        }
      ],
      "name": "MinterRemoved",
      "type": "event"
    },
    {
      "anonymous": false,
      "inputs": [
        {
          "indexed": true,
          "name": "from",
          "type": "address"
        },
        {
          "indexed": true,
          "name": "to",
          "type": "address"
        },
        {
          "indexed": false,
          "name": "value",
          "type": "uint256"
        }
      ],
      "name": "Transfer",
      "type": "event"
    },
    {
      "anonymous": false,
      "inputs": [
        {
          "indexed": true,
          "name": "owner",
          "type": "address"
        },
        {
          "indexed": true,
          "name": "spender",
          "type": "address"
        },
        {
          "indexed": false,
          "name": "value",
          "type": "uint256"
        }
      ],
      "name": "Approval",
      "type": "event"
    },
    {
      "anonymous": false,
      "inputs": [
        {
          "indexed": true,
          "name": "previousOwner",
          "type": "address"
        },
        {
          "indexed": true,
          "name": "newOwner",
          "type": "address"
        }
      ],
      "name": "OwnershipTransferred",
      "type": "event"
    },
    {
      "constant": false,
      "inputs": [],
      "name": "mint",
      "outputs": [],
      "payable": true,
      "stateMutability": "payable",
      "type": "function"
    },
    {
      "constant": false,
      "inputs": [
        {
          "name": "account",
          "type": "address"
        },
        {
          "name": "amount",
          "type": "uint256"
        }
      ],
      "name": "mint",
      "outputs": [
        {
          "name": "",
          "type": "bool"
        }
      ],
      "payable": false,
      "stateMutability": "nonpayable",
      "type": "function"
    }
  ],
  "bytecode": "0x6080604052601260ff16600a0a6009553480156200001c57600080fd5b5060405160208062002d4a833981018060405260208110156200003e57600080fd5b81019080805190602001909291905050506009546040805190810160405280600681526020017f58546f6b656e00000000000000000000000000000000000000000000000000008152506040805190810160405280600181526020017f580000000000000000000000000000000000000000000000000000000000000081525060126000620000db620002d0640100000000026401000000009004565b9050806000806101000a81548173ffffffffffffffffffffffffffffffffffffffff021916908373ffffffffffffffffffffffffffffffffffffffff1602179055508073ffffffffffffffffffffffffffffffffffffffff16600073ffffffffffffffffffffffffffffffffffffffff167f8be0079c531659141344cd1fd0a4f28419497f9722a3daafe3b4186f6b6457e060405160405180910390a35082600190805190602001906200019192919062000ac2565b508160029080519060200190620001aa92919062000ac2565b5080600360006101000a81548160ff021916908360ff160217905550505050620001fb620001e6620002d0640100000000026401000000009004565b620002d8640100000000026401000000009004565b60008111151562000274576040517f08c379a00000000000000000000000000000000000000000000000000000000081526004018080602001828103825260158152602001807f45524332304361707065643a206361702069732030000000000000000000000081525060200191505060405180910390fd5b8060088190555050620002968162000342640100000000026401000000009004565b620002af6200042c640100000000026401000000009004565b620002c98162000460640100000000026401000000009004565b5062000b71565b600033905090565b620002fc8160076200050b6401000000000262001fbe179091906401000000009004565b8073ffffffffffffffffffffffffffffffffffffffff167f6ae172837ea30b801fbfcdd4108aa1d5bf8ff775444fd70256b44e6bf3dfc3f660405160405180910390a250565b620003746200035f620002d0640100000000026401000000009004565b620005fa640100000000026401000000009004565b15156200040f576040517f08c379a00000000000000000000000000000000000000000000000000000000081526004018080602001828103825260308152602001807f4d696e746572526f6c653a2063616c6c657220646f6573206e6f74206861766581526020017f20746865204d696e74657220726f6c650000000000000000000000000000000081525060400191505060405180910390fd5b6200042981620002d8640100000000026401000000009004565b50565b6200045e62000449620002d0640100000000026401000000009004565b62000627640100000000026401000000009004565b565b6200047962000691640100000000026401000000009004565b1515620004ee576040517f08c379a00000000000000000000000000000000000000000000000000000000081526004018080602001828103825260208152602001807f4f776e61626c653a2063616c6c6572206973206e6f7420746865206f776e657281525060200191505060405180910390fd5b620005088162000700640100000000026401000000009004565b50565b6200052682826200088a640100000000026401000000009004565b1515156200059c576040517f08c379a000000000000000000000000000000000000000000000000000000000815260040180806020018281038252601f8152602001807f526f6c65733a206163636f756e7420616c72656164792068617320726f6c650081525060200191505060405180910390fd5b60018260000160008373ffffffffffffffffffffffffffffffffffffffff1673ffffffffffffffffffffffffffffffffffffffff16815260200190815260200160002060006101000a81548160ff0219169083151502179055505050565b6000620006208260076200088a6401000000000262001b53179091906401000000009004565b9050919050565b6200064b816007620009ae640100000000026200209b179091906401000000009004565b8073ffffffffffffffffffffffffffffffffffffffff167fe94479a9f7e1952cc78f2d6baab678adc1b772d936c6583def489e524cb6669260405160405180910390a250565b60008060009054906101000a900473ffffffffffffffffffffffffffffffffffffffff1673ffffffffffffffffffffffffffffffffffffffff16620006e4620002d0640100000000026401000000009004565b73ffffffffffffffffffffffffffffffffffffffff1614905090565b600073ffffffffffffffffffffffffffffffffffffffff168173ffffffffffffffffffffffffffffffffffffffff1614151515620007cc576040517f08c379a00000000000000000000000000000000000000000000000000000000081526004018080602001828103825260268152602001807f4f776e61626c653a206e6577206f776e657220697320746865207a65726f206181526020017f646472657373000000000000000000000000000000000000000000000000000081525060400191505060405180910390fd5b8073ffffffffffffffffffffffffffffffffffffffff166000809054906101000a900473ffffffffffffffffffffffffffffffffffffffff1673ffffffffffffffffffffffffffffffffffffffff167f8be0079c531659141344cd1fd0a4f28419497f9722a3daafe3b4186f6b6457e060405160405180910390a3806000806101000a81548173ffffffffffffffffffffffffffffffffffffffff021916908373ffffffffffffffffffffffffffffffffffffffff16021790555050565b60008073ffffffffffffffffffffffffffffffffffffffff168273ffffffffffffffffffffffffffffffffffffffff161415151562000957576040517f08c379a00000000000000000000000000000000000000000000000000000000081526004018080602001828103825260228152602001807f526f6c65733a206163636f756e7420697320746865207a65726f20616464726581526020017f737300000000000000000000000000000000000000000000000000000000000081525060400191505060405180910390fd5b8260000160008373ffffffffffffffffffffffffffffffffffffffff1673ffffffffffffffffffffffffffffffffffffffff16815260200190815260200160002060009054906101000a900460ff16905092915050565b620009c982826200088a640100000000026401000000009004565b151562000a64576040517f08c379a00000000000000000000000000000000000000000000000000000000081526004018080602001828103825260218152602001807f526f6c65733a206163636f756e7420646f6573206e6f74206861766520726f6c81526020017f650000000000000000000000000000000000000000000000000000000000000081525060400191505060405180910390fd5b60008260000160008373ffffffffffffffffffffffffffffffffffffffff1673ffffffffffffffffffffffffffffffffffffffff16815260200190815260200160002060006101000a81548160ff0219169083151502179055505050565b828054600181600116156101000203166002900490600052602060002090601f016020900481019282601f1062000b0557805160ff191683800117855562000b36565b8280016001018555821562000b36579182015b8281111562000b3557825182559160200191906001019062000b18565b5b50905062000b45919062000b49565b5090565b62000b6e91905b8082111562000b6a57600081600090555060010162000b50565b5090565b90565b6121c98062000b816000396000f3fe608060405260043610610117576000357c01000000000000000000000000000000000000000000000000000000009004806306fdde031461011c578063095ea7b3146101ac5780631249c58b1461021f57806318160ddd1461022957806323b872dd14610254578063313ce567146102e7578063355274ea14610318578063395093511461034357806340c10f19146103b657806370a0823114610429578063715018a61461048e5780638da5cb5b146104a55780638f32d59b146104fc57806395d89b411461052b578063983b2d56146105bb578063986502751461060c578063a457c2d714610623578063a9059cbb14610696578063aa271e1a14610709578063dd62ed3e14610772578063f2fde38b146107f7575b600080fd5b34801561012857600080fd5b50610131610848565b6040518080602001828103825283818151815260200191508051906020019080838360005b83811015610171578082015181840152602081019050610156565b50505050905090810190601f16801561019e5780820380516001836020036101000a031916815260200191505b509250505060405180910390f35b3480156101b857600080fd5b50610205600480360360408110156101cf57600080fd5b81019080803573ffffffffffffffffffffffffffffffffffffffff169060200190929190803590602001909291905050506108ea565b604051808215151515815260200191505060405180910390f35b610227610908565b005b34801561023557600080fd5b5061023e610a0d565b6040518082815260200191505060405180910390f35b34801561026057600080fd5b506102cd6004803603606081101561027757600080fd5b81019080803573ffffffffffffffffffffffffffffffffffffffff169060200190929190803573ffffffffffffffffffffffffffffffffffffffff16906020019092919080359060200190929190505050610a17565b604051808215151515815260200191505060405180910390f35b3480156102f357600080fd5b506102fc610b34565b604051808260ff1660ff16815260200191505060405180910390f35b34801561032457600080fd5b5061032d610b4b565b6040518082815260200191505060405180910390f35b34801561034f57600080fd5b5061039c6004803603604081101561036657600080fd5b81019080803573ffffffffffffffffffffffffffffffffffffffff16906020019092919080359060200190929190505050610b55565b604051808215151515815260200191505060405180910390f35b3480156103c257600080fd5b5061040f600480360360408110156103d957600080fd5b81019080803573ffffffffffffffffffffffffffffffffffffffff16906020019092919080359060200190929190505050610c08565b604051808215151515815260200191505060405180910390f35b34801561043557600080fd5b506104786004803603602081101561044c57600080fd5b81019080803573ffffffffffffffffffffffffffffffffffffffff169060200190929190505050610cc8565b6040518082815260200191505060405180910390f35b34801561049a57600080fd5b506104a3610d11565b005b3480156104b157600080fd5b506104ba610e4c565b604051808273ffffffffffffffffffffffffffffffffffffffff1673ffffffffffffffffffffffffffffffffffffffff16815260200191505060405180910390f35b34801561050857600080fd5b50610511610e75565b604051808215151515815260200191505060405180910390f35b34801561053757600080fd5b50610540610ed3565b6040518080602001828103825283818151815260200191508051906020019080838360005b83811015610580578082015181840152602081019050610565565b50505050905090810190601f1680156105ad5780820380516001836020036101000a031916815260200191505b509250505060405180910390f35b3480156105c757600080fd5b5061060a600480360360208110156105de57600080fd5b81019080803573ffffffffffffffffffffffffffffffffffffffff169060200190929190505050610f75565b005b34801561061857600080fd5b5061062161102b565b005b34801561062f57600080fd5b5061067c6004803603604081101561064657600080fd5b81019080803573ffffffffffffffffffffffffffffffffffffffff1690602001909291908035906020019092919050505061103d565b604051808215151515815260200191505060405180910390f35b3480156106a257600080fd5b506106ef600480360360408110156106b957600080fd5b81019080803573ffffffffffffffffffffffffffffffffffffffff1690602001909291908035906020019092919050505061114e565b604051808215151515815260200191505060405180910390f35b34801561071557600080fd5b506107586004803603602081101561072c57600080fd5b81019080803573ffffffffffffffffffffffffffffffffffffffff16906020019092919050505061116c565b604051808215151515815260200191505060405180910390f35b34801561077e57600080fd5b506107e16004803603604081101561079557600080fd5b81019080803573ffffffffffffffffffffffffffffffffffffffff169060200190929190803573ffffffffffffffffffffffffffffffffffffffff169060200190929190505050611189565b6040518082815260200191505060405180910390f35b34801561080357600080fd5b506108466004803603602081101561081a57600080fd5b81019080803573ffffffffffffffffffffffffffffffffffffffff169060200190929190505050611210565b005b606060018054600181600116156101000203166002900480601f0160208091040260200160405190810160405280929190818152602001828054600181600116156101000203166002900480156108e05780601f106108b5576101008083540402835291602001916108e0565b820191906000526020600020905b8154815290600101906020018083116108c357829003601f168201915b5050505050905090565b60006108fe6108f7611298565b84846112a0565b6001905092915050565b610910610e75565b1515610984576040517f08c379a00000000000000000000000000000000000000000000000000000000081526004018080602001828103825260208152602001807f4f776e61626c653a2063616c6c6572206973206e6f7420746865206f776e657281525060200191505060405180910390fd5b61098f306001611521565b6109976115c2565b1515610a0b576040517f08c379a00000000000000000000000000000000000000000000000000000000081526004018080602001828103825260148152602001807f756e61626c6520746f206465647563742066656500000000000000000000000081525060200191505060405180910390fd5b565b6000600654905090565b6000610a248484846115cb565b610b2984610a30611298565b610b2485606060405190810160405280602881526020017f45524332303a207472616e7366657220616d6f756e742065786365656473206181526020017f6c6c6f77616e6365000000000000000000000000000000000000000000000000815250600560008b73ffffffffffffffffffffffffffffffffffffffff1673ffffffffffffffffffffffffffffffffffffffff1681526020019081526020016000206000610ada611298565b73ffffffffffffffffffffffffffffffffffffffff1673ffffffffffffffffffffffffffffffffffffffff168152602001908152602001600020546119539092919063ffffffff16565b6112a0565b600190509392505050565b6000600360009054906101000a900460ff16905090565b6000600854905090565b6000610bfe610b62611298565b84610bf98560056000610b73611298565b73ffffffffffffffffffffffffffffffffffffffff1673ffffffffffffffffffffffffffffffffffffffff16815260200190815260200160002060008973ffffffffffffffffffffffffffffffffffffffff1673ffffffffffffffffffffffffffffffffffffffff16815260200190815260200160002054611a1590919063ffffffff16565b6112a0565b6001905092915050565b6000610c1a610c15611298565b61116c565b1515610cb4576040517f08c379a00000000000000000000000000000000000000000000000000000000081526004018080602001828103825260308152602001807f4d696e746572526f6c653a2063616c6c657220646f6573206e6f74206861766581526020017f20746865204d696e74657220726f6c650000000000000000000000000000000081525060400191505060405180910390fd5b610cbe8383611521565b6001905092915050565b6000600460008373ffffffffffffffffffffffffffffffffffffffff1673ffffffffffffffffffffffffffffffffffffffff168152602001908152602001600020549050919050565b610d19610e75565b1515610d8d576040517f08c379a00000000000000000000000000000000000000000000000000000000081526004018080602001828103825260208152602001807f4f776e61626c653a2063616c6c6572206973206e6f7420746865206f776e657281525060200191505060405180910390fd5b600073ffffffffffffffffffffffffffffffffffffffff166000809054906101000a900473ffffffffffffffffffffffffffffffffffffffff1673ffffffffffffffffffffffffffffffffffffffff167f8be0079c531659141344cd1fd0a4f28419497f9722a3daafe3b4186f6b6457e060405160405180910390a360008060006101000a81548173ffffffffffffffffffffffffffffffffffffffff021916908373ffffffffffffffffffffffffffffffffffffffff160217905550565b60008060009054906101000a900473ffffffffffffffffffffffffffffffffffffffff16905090565b60008060009054906101000a900473ffffffffffffffffffffffffffffffffffffffff1673ffffffffffffffffffffffffffffffffffffffff16610eb7611298565b73ffffffffffffffffffffffffffffffffffffffff1614905090565b606060028054600181600116156101000203166002900480601f016020809104026020016040519081016040528092919081815260200182805460018160011615610100020316600290048015610f6b5780601f10610f4057610100808354040283529160200191610f6b565b820191906000526020600020905b815481529060010190602001808311610f4e57829003601f168201915b5050505050905090565b610f85610f80611298565b61116c565b151561101f576040517f08c379a00000000000000000000000000000000000000000000000000000000081526004018080602001828103825260308152602001807f4d696e746572526f6c653a2063616c6c657220646f6573206e6f74206861766581526020017f20746865204d696e74657220726f6c650000000000000000000000000000000081525060400191505060405180910390fd5b61102881611a9f565b50565b61103b611036611298565b611af9565b565b600061114461104a611298565b8461113f85606060405190810160405280602581526020017f45524332303a2064656372656173656420616c6c6f77616e63652062656c6f7781526020017f207a65726f000000000000000000000000000000000000000000000000000000815250600560006110b8611298565b73ffffffffffffffffffffffffffffffffffffffff1673ffffffffffffffffffffffffffffffffffffffff16815260200190815260200160002060008a73ffffffffffffffffffffffffffffffffffffffff1673ffffffffffffffffffffffffffffffffffffffff168152602001908152602001600020546119539092919063ffffffff16565b6112a0565b6001905092915050565b600061116261115b611298565b84846115cb565b6001905092915050565b6000611182826007611b5390919063ffffffff16565b9050919050565b6000600560008473ffffffffffffffffffffffffffffffffffffffff1673ffffffffffffffffffffffffffffffffffffffff16815260200190815260200160002060008373ffffffffffffffffffffffffffffffffffffffff1673ffffffffffffffffffffffffffffffffffffffff16815260200190815260200160002054905092915050565b611218610e75565b151561128c576040517f08c379a00000000000000000000000000000000000000000000000000000000081526004018080602001828103825260208152602001807f4f776e61626c653a2063616c6c6572206973206e6f7420746865206f776e657281525060200191505060405180910390fd5b61129581611c76565b50565b600033905090565b600073ffffffffffffffffffffffffffffffffffffffff168373ffffffffffffffffffffffffffffffffffffffff161415151561136b576040517f08c379a00000000000000000000000000000000000000000000000000000000081526004018080602001828103825260248152602001807f45524332303a20617070726f76652066726f6d20746865207a65726f2061646481526020017f726573730000000000000000000000000000000000000000000000000000000081525060400191505060405180910390fd5b600073ffffffffffffffffffffffffffffffffffffffff168273ffffffffffffffffffffffffffffffffffffffff1614151515611436576040517f08c379a00000000000000000000000000000000000000000000000000000000081526004018080602001828103825260228152602001807f45524332303a20617070726f766520746f20746865207a65726f20616464726581526020017f737300000000000000000000000000000000000000000000000000000000000081525060400191505060405180910390fd5b80600560008573ffffffffffffffffffffffffffffffffffffffff1673ffffffffffffffffffffffffffffffffffffffff16815260200190815260200160002060008473ffffffffffffffffffffffffffffffffffffffff1673ffffffffffffffffffffffffffffffffffffffff168152602001908152602001600020819055508173ffffffffffffffffffffffffffffffffffffffff168373ffffffffffffffffffffffffffffffffffffffff167f8c5be1e5ebec7d5bd14f71427d1e84f3dd0314c0f7b2291e5b200ac8c7c3b925836040518082815260200191505060405180910390a3505050565b60085461153e82611530610a0d565b611a1590919063ffffffff16565b111515156115b4576040517f08c379a00000000000000000000000000000000000000000000000000000000081526004018080602001828103825260198152602001807f45524332304361707065643a206361702065786365656465640000000000000081525060200191505060405180910390fd5b6115be8282611dff565b5050565b60006001905090565b600073ffffffffffffffffffffffffffffffffffffffff168373ffffffffffffffffffffffffffffffffffffffff1614151515611696576040517f08c379a00000000000000000000000000000000000000000000000000000000081526004018080602001828103825260258152602001807f45524332303a207472616e736665722066726f6d20746865207a65726f20616481526020017f647265737300000000000000000000000000000000000000000000000000000081525060400191505060405180910390fd5b600073ffffffffffffffffffffffffffffffffffffffff168273ffffffffffffffffffffffffffffffffffffffff1614151515611761576040517f08c379a00000000000000000000000000000000000000000000000000000000081526004018080602001828103825260238152602001807f45524332303a207472616e7366657220746f20746865207a65726f206164647281526020017f657373000000000000000000000000000000000000000000000000000000000081525060400191505060405180910390fd5b61181181606060405190810160405280602681526020017f45524332303a207472616e7366657220616d6f756e742065786365656473206281526020017f616c616e63650000000000000000000000000000000000000000000000000000815250600460008773ffffffffffffffffffffffffffffffffffffffff1673ffffffffffffffffffffffffffffffffffffffff168152602001908152602001600020546119539092919063ffffffff16565b600460008573ffffffffffffffffffffffffffffffffffffffff1673ffffffffffffffffffffffffffffffffffffffff168152602001908152602001600020819055506118a681600460008573ffffffffffffffffffffffffffffffffffffffff1673ffffffffffffffffffffffffffffffffffffffff16815260200190815260200160002054611a1590919063ffffffff16565b600460008473ffffffffffffffffffffffffffffffffffffffff1673ffffffffffffffffffffffffffffffffffffffff168152602001908152602001600020819055508173ffffffffffffffffffffffffffffffffffffffff168373ffffffffffffffffffffffffffffffffffffffff167fddf252ad1be2c89b69c2b068fc378daa952ba7f163c4a11628f55a4df523b3ef836040518082815260200191505060405180910390a3505050565b60008383111582901515611a02576040517f08c379a00000000000000000000000000000000000000000000000000000000081526004018080602001828103825283818151815260200191508051906020019080838360005b838110156119c75780820151818401526020810190506119ac565b50505050905090810190601f1680156119f45780820380516001836020036101000a031916815260200191505b509250505060405180910390fd5b5060008385039050809150509392505050565b6000808284019050838110151515611a95576040517f08c379a000000000000000000000000000000000000000000000000000000000815260040180806020018281038252601b8152602001807f536166654d6174683a206164646974696f6e206f766572666c6f77000000000081525060200191505060405180910390fd5b8091505092915050565b611ab3816007611fbe90919063ffffffff16565b8073ffffffffffffffffffffffffffffffffffffffff167f6ae172837ea30b801fbfcdd4108aa1d5bf8ff775444fd70256b44e6bf3dfc3f660405160405180910390a250565b611b0d81600761209b90919063ffffffff16565b8073ffffffffffffffffffffffffffffffffffffffff167fe94479a9f7e1952cc78f2d6baab678adc1b772d936c6583def489e524cb6669260405160405180910390a250565b60008073ffffffffffffffffffffffffffffffffffffffff168273ffffffffffffffffffffffffffffffffffffffff1614151515611c1f576040517f08c379a00000000000000000000000000000000000000000000000000000000081526004018080602001828103825260228152602001807f526f6c65733a206163636f756e7420697320746865207a65726f20616464726581526020017f737300000000000000000000000000000000000000000000000000000000000081525060400191505060405180910390fd5b8260000160008373ffffffffffffffffffffffffffffffffffffffff1673ffffffffffffffffffffffffffffffffffffffff16815260200190815260200160002060009054906101000a900460ff16905092915050565b600073ffffffffffffffffffffffffffffffffffffffff168173ffffffffffffffffffffffffffffffffffffffff1614151515611d41576040517f08c379a00000000000000000000000000000000000000000000000000000000081526004018080602001828103825260268152602001807f4f776e61626c653a206e6577206f776e657220697320746865207a65726f206181526020017f646472657373000000000000000000000000000000000000000000000000000081525060400191505060405180910390fd5b8073ffffffffffffffffffffffffffffffffffffffff166000809054906101000a900473ffffffffffffffffffffffffffffffffffffffff1673ffffffffffffffffffffffffffffffffffffffff167f8be0079c531659141344cd1fd0a4f28419497f9722a3daafe3b4186f6b6457e060405160405180910390a3806000806101000a81548173ffffffffffffffffffffffffffffffffffffffff021916908373ffffffffffffffffffffffffffffffffffffffff16021790555050565b600073ffffffffffffffffffffffffffffffffffffffff168273ffffffffffffffffffffffffffffffffffffffff1614151515611ea4576040517f08c379a000000000000000000000000000000000000000000000000000000000815260040180806020018281038252601f8152602001807f45524332303a206d696e7420746f20746865207a65726f20616464726573730081525060200191505060405180910390fd5b611eb981600654611a1590919063ffffffff16565b600681905550611f1181600460008573ffffffffffffffffffffffffffffffffffffffff1673ffffffffffffffffffffffffffffffffffffffff16815260200190815260200160002054611a1590919063ffffffff16565b600460008473ffffffffffffffffffffffffffffffffffffffff1673ffffffffffffffffffffffffffffffffffffffff168152602001908152602001600020819055508173ffffffffffffffffffffffffffffffffffffffff16600073ffffffffffffffffffffffffffffffffffffffff167fddf252ad1be2c89b69c2b068fc378daa952ba7f163c4a11628f55a4df523b3ef836040518082815260200191505060405180910390a35050565b611fc88282611b53565b15151561203d576040517f08c379a000000000000000000000000000000000000000000000000000000000815260040180806020018281038252601f8152602001807f526f6c65733a206163636f756e7420616c72656164792068617320726f6c650081525060200191505060405180910390fd5b60018260000160008373ffffffffffffffffffffffffffffffffffffffff1673ffffffffffffffffffffffffffffffffffffffff16815260200190815260200160002060006101000a81548160ff0219169083151502179055505050565b6120a58282611b53565b151561213f576040517f08c379a00000000000000000000000000000000000000000000000000000000081526004018080602001828103825260218152602001807f526f6c65733a206163636f756e7420646f6573206e6f74206861766520726f6c81526020017f650000000000000000000000000000000000000000000000000000000000000081525060400191505060405180910390fd5b60008260000160008373ffffffffffffffffffffffffffffffffffffffff1673ffffffffffffffffffffffffffffffffffffffff16815260200190815260200160002060006101000a81548160ff021916908315150217905550505056fea165627a7a7230582017aaeffc00bf7814514dbb176a4c9564264af82eac24ee2dcdd0a701374e3b890029",
  "source": "pragma solidity ^0.5.1;\n\nimport \"@openzeppelin/contracts/token/ERC20/ERC20.sol\";\nimport \"@openzeppelin/contracts/ownership/Ownable.sol\";\nimport \"@openzeppelin/contracts/token/ERC20/ERC20Detailed.sol\";\nimport \"@openzeppelin/contracts/token/ERC20/ERC20Capped.sol\";\nimport \"@openzeppelin/contracts/token/ERC20/ERC20Pausable.sol\";\n\ncontract XToken is Ownable, ERC20Detailed, ERC20Capped {\n\n    using SafeMath for uint256;\n\n    uint8 constant DECIMALS = 18;\n    uint256 constant CAP = 1000000000;\n    uint256 TOTALSUPPLY = uint256(10) ** DECIMALS;\n\n    /**\n     * @dev XToken constructor\n     * @param contractOwner refers to the owner of the contract\n     */\n    constructor(\n        address contractOwner\n    )\n    public\n    ERC20Detailed('XToken', 'X', DECIMALS)\n    ERC20Capped(TOTALSUPPLY)\n    Ownable()\n    {\n        addMinter(contractOwner);\n        renounceMinter();\n        transferOwnership(contractOwner);\n    }\n\n    function mint()\n        public\n        payable\n        onlyOwner\n    {\n        super._mint(address(this), 1);\n        require(\n            deduct(),\n            'unable to deduct fee'\n        );\n    }\n\n    function deduct()\n        private\n        returns (bool)\n    {\n        return true;\n    }\n}",
  "sourcePath": "/Users/ahmedali/Desktop/work/research/23-ocean-v3/poc3/contracts/XToken.sol",
  "compiler": {
    "name": "solc",
    "version": "0.5.1+commit.c8a2cb62.Linux.g++"
  },
  "schemaVersion": "3.0.23",
  "updatedAt": "2020-03-13T14:06:54.742Z",
  "devdoc": {
    "methods": {
      "allowance(address,address)": {
        "details": "See {IERC20-allowance}."
      },
      "approve(address,uint256)": {
        "details": "See {IERC20-approve}.     * Requirements:     * - `spender` cannot be the zero address."
      },
      "balanceOf(address)": {
        "details": "See {IERC20-balanceOf}."
      },
      "cap()": {
        "details": "Returns the cap on the token's total supply."
      },
      "constructor": {
        "details": "XToken constructor",
        "params": {
          "contractOwner": "refers to the owner of the contract"
        }
      },
      "decimals()": {
        "details": "Returns the number of decimals used to get its user representation. For example, if `decimals` equals `2`, a balance of `505` tokens should be displayed to a user as `5,05` (`505 / 10 ** 2`).     * Tokens usually opt for a value of 18, imitating the relationship between Ether and Wei.     * NOTE: This information is only used for _display_ purposes: it in no way affects any of the arithmetic of the contract, including {IERC20-balanceOf} and {IERC20-transfer}."
      },
      "decreaseAllowance(address,uint256)": {
        "details": "Atomically decreases the allowance granted to `spender` by the caller.     * This is an alternative to {approve} that can be used as a mitigation for problems described in {IERC20-approve}.     * Emits an {Approval} event indicating the updated allowance.     * Requirements:     * - `spender` cannot be the zero address. - `spender` must have allowance for the caller of at least `subtractedValue`."
      },
      "increaseAllowance(address,uint256)": {
        "details": "Atomically increases the allowance granted to `spender` by the caller.     * This is an alternative to {approve} that can be used as a mitigation for problems described in {IERC20-approve}.     * Emits an {Approval} event indicating the updated allowance.     * Requirements:     * - `spender` cannot be the zero address."
      },
      "isOwner()": {
        "details": "Returns true if the caller is the current owner."
      },
      "mint(address,uint256)": {
        "details": "See {ERC20-_mint}.     * Requirements:     * - the caller must have the {MinterRole}."
      },
      "name()": {
        "details": "Returns the name of the token."
      },
      "owner()": {
        "details": "Returns the address of the current owner."
      },
      "renounceOwnership()": {
        "details": "Leaves the contract without owner. It will not be possible to call `onlyOwner` functions anymore. Can only be called by the current owner.     * NOTE: Renouncing ownership will leave the contract without an owner, thereby removing any functionality that is only available to the owner."
      },
      "symbol()": {
        "details": "Returns the symbol of the token, usually a shorter version of the name."
      },
      "totalSupply()": {
        "details": "See {IERC20-totalSupply}."
      },
      "transfer(address,uint256)": {
        "details": "See {IERC20-transfer}.     * Requirements:     * - `recipient` cannot be the zero address. - the caller must have a balance of at least `amount`."
      },
      "transferFrom(address,address,uint256)": {
        "details": "See {IERC20-transferFrom}.     * Emits an {Approval} event indicating the updated allowance. This is not required by the EIP. See the note at the beginning of {ERC20};     * Requirements: - `sender` and `recipient` cannot be the zero address. - `sender` must have a balance of at least `amount`. - the caller must have allowance for `sender`'s tokens of at least `amount`."
      },
      "transferOwnership(address)": {
        "details": "Transfers ownership of the contract to a new account (`newOwner`). Can only be called by the current owner."
      }
    }
  },
  "userdoc": {
    "methods": {}
  }
}