{
  "contractName": "Verifier",
  "abi": [
    {
      "constant": true,
      "inputs": [
        {
          "name": "",
          "type": "address"
        }
      ],
      "name": "registry",
      "outputs": [
        {
          "name": "",
          "type": "bool"
        }
      ],
      "payable": false,
      "stateMutability": "view",
      "type": "function",
      "signature": "0x038defd7"
    },
    {
      "constant": true,
      "inputs": [
        {
          "name": "",
          "type": "uint256"
        }
      ],
      "name": "challenges",
      "outputs": [
        {
          "name": "nPos",
          "type": "uint256"
        },
        {
          "name": "nNeg",
          "type": "uint256"
        },
        {
          "name": "quorum",
          "type": "uint256"
        },
        {
          "name": "result",
          "type": "bool"
        },
        {
          "name": "finish",
          "type": "bool"
        }
      ],
      "payable": false,
      "stateMutability": "view",
      "type": "function",
      "signature": "0x8f1d3776"
    },
    {
      "inputs": [],
      "payable": false,
      "stateMutability": "nonpayable",
      "type": "constructor",
      "signature": "constructor"
    },
    {
      "anonymous": false,
      "inputs": [
        {
          "indexed": false,
          "name": "_verifier",
          "type": "address"
        },
        {
          "indexed": false,
          "name": "_state",
          "type": "bool"
        }
      ],
      "name": "verifierAdded",
      "type": "event",
      "signature": "0x1eb7afb67755aae367bcdf1214a00df5bb701cca74c4008b50957986dfbd7049"
    },
    {
      "anonymous": false,
      "inputs": [
        {
          "indexed": false,
          "name": "_verifier",
          "type": "address"
        },
        {
          "indexed": false,
          "name": "_state",
          "type": "bool"
        }
      ],
      "name": "verifierRemoved",
      "type": "event",
      "signature": "0x007a189f93b8aaf6c3ddd9c9b2d02b0e7c08dfa3442b3dd1be51716ce38b260e"
    },
    {
      "anonymous": false,
      "inputs": [
        {
          "indexed": false,
          "name": "_did",
          "type": "uint256"
        }
      ],
      "name": "verificationRequested",
      "type": "event",
      "signature": "0xdfe43d96a5e6e1b03e2e6d96aca2d45267ccc5929508587683bb45bddfae3bde"
    },
    {
      "anonymous": false,
      "inputs": [
        {
          "indexed": false,
          "name": "_did",
          "type": "uint256"
        },
        {
          "indexed": false,
          "name": "_state",
          "type": "bool"
        }
      ],
      "name": "verificationFinished",
      "type": "event",
      "signature": "0x8410c16ef5899c79ca3a392a04010ed727cacb731086b6e44db94f78497495af"
    },
    {
      "constant": false,
      "inputs": [
        {
          "name": "user",
          "type": "address"
        }
      ],
      "name": "addVerifier",
      "outputs": [],
      "payable": false,
      "stateMutability": "nonpayable",
      "type": "function",
      "signature": "0x9000b3d6"
    },
    {
      "constant": false,
      "inputs": [
        {
          "name": "user",
          "type": "address"
        }
      ],
      "name": "removeVerifier",
      "outputs": [],
      "payable": false,
      "stateMutability": "nonpayable",
      "type": "function",
      "signature": "0xca2dfd0a"
    },
    {
      "constant": true,
      "inputs": [
        {
          "name": "user",
          "type": "address"
        }
      ],
      "name": "queryVerifier",
      "outputs": [
        {
          "name": "",
          "type": "bool"
        }
      ],
      "payable": false,
      "stateMutability": "view",
      "type": "function",
      "signature": "0x08dc2ca8"
    },
    {
      "constant": false,
      "inputs": [
        {
          "name": "did",
          "type": "uint256"
        }
      ],
      "name": "requestPOR",
      "outputs": [],
      "payable": false,
      "stateMutability": "nonpayable",
      "type": "function",
      "signature": "0x37c25cfc"
    },
    {
      "constant": false,
      "inputs": [
        {
          "name": "did",
          "type": "uint256"
        }
      ],
      "name": "submitSignature",
      "outputs": [],
      "payable": false,
      "stateMutability": "nonpayable",
      "type": "function",
      "signature": "0x657aa973"
    },
    {
      "constant": true,
      "inputs": [
        {
          "name": "did",
          "type": "uint256"
        },
        {
          "name": "x",
          "type": "uint256"
        }
      ],
      "name": "getInfo",
      "outputs": [
        {
          "name": "",
          "type": "uint256"
        }
      ],
      "payable": false,
      "stateMutability": "view",
      "type": "function",
      "signature": "0x7e250c6e"
    },
    {
      "constant": false,
      "inputs": [
        {
          "name": "did",
          "type": "uint256"
        }
      ],
      "name": "resolveChallenge",
      "outputs": [],
      "payable": false,
      "stateMutability": "nonpayable",
      "type": "function",
      "signature": "0x761c7cfe"
    },
    {
      "constant": true,
      "inputs": [
        {
          "name": "did",
          "type": "uint256"
        }
      ],
      "name": "queryVerification",
      "outputs": [
        {
          "name": "",
          "type": "bool"
        }
      ],
      "payable": false,
      "stateMutability": "view",
      "type": "function",
      "signature": "0x69bf1a94"
    }
  ],
  "bytecode": "0x608060405234801561001057600080fd5b5060008055610867806100246000396000f3fe608060405234801561001057600080fd5b50600436106100bb576000357c010000000000000000000000000000000000000000000000000000000090048063761c7cfe11610083578063761c7cfe146101795780637e250c6e146101965780638f1d3776146101cb5780639000b3d614610217578063ca2dfd0a1461023d576100bb565b8063038defd7146100c057806308dc2ca8146100fa57806337c25cfc14610120578063657aa9731461013f57806369bf1a941461015c575b600080fd5b6100e6600480360360208110156100d657600080fd5b5035600160a060020a0316610263565b604080519115158252519081900360200190f35b6100e66004803603602081101561011057600080fd5b5035600160a060020a0316610278565b61013d6004803603602081101561013657600080fd5b5035610296565b005b61013d6004803603602081101561015557600080fd5b503561038d565b6100e66004803603602081101561017257600080fd5b503561046c565b61013d6004803603602081101561018f57600080fd5b5035610484565b6101b9600480360360408110156101ac57600080fd5b50803590602001356105b5565b60408051918252519081900360200190f35b6101e8600480360360208110156101e157600080fd5b503561062c565b604080519586526020860194909452848401929092521515606084015215156080830152519081900360a00190f35b61013d6004803603602081101561022d57600080fd5b5035600160a060020a0316610661565b61013d6004803603602081101561025357600080fd5b5035600160a060020a0316610767565b60016020526000908152604090205460ff1681565b600160a060020a031660009081526001602052604090205460ff1690565b60008181526002602081905260409091200154158015906102d4575060008181526002602052604090206003015460ff610100909104161515600114155b156102de5761038a565b6040805160a08101825260008082526020808301828152603284860190815260608501848152608086018581528886526002808652958890209651875592516001870155905193850193909355915160039093018054925115156101000261ff001994151560ff19909416939093179390931691909117909155815183815291517fdfe43d96a5e6e1b03e2e6d96aca2d45267ccc5929508587683bb45bddfae3bde9281900390910190a15b50565b3360009081526001602081905260409091205460ff1615151461041157604080517f08c379a000000000000000000000000000000000000000000000000000000000815260206004820152601860248201527f73656e646572206973206e6f7420612076657269666965720000000000000000604482015290519081900360640190fd5b600081815260026020908152604080832033845260040190915290205460ff16151561038a5760009081526002602090815260408083208054600190810182553385526004909101909252909120805460ff19169091179055565b60009081526002602052604090206003015460ff1690565b600080548282526002602052604090912060018101549054011480156104c15750600081815260026020526040902060030154610100900460ff16155b1561038a576000818152600260208190526040822060038101805461ff001916610100179055805491015491546064909102910280821061055a57600083815260026020908152604091829020600301805460ff1916600190811790915582518681529182015281517f8410c16ef5899c79ca3a392a04010ed727cacb731086b6e44db94f78497495af929181900390910190a16105b0565b6000838152600260209081526040808320600301805460ff1916905580518681529182019290925281517f8410c16ef5899c79ca3a392a04010ed727cacb731086b6e44db94f78497495af929181900390910190a15b505050565b600081600114156105d55750600082815260026020526040902054610626565b81600214156105f65750600082815260026020526040902060010154610626565b8160031415610618575060008281526002602081905260409091200154610626565b816004141561062657506000545b92915050565b600260208190526000918252604090912080546001820154928201546003909201549092919060ff8082169161010090041685565b600160a060020a03811615156106d857604080517f08c379a000000000000000000000000000000000000000000000000000000000815260206004820152601260248201527f6164647265737320697320696e76616c69640000000000000000000000000000604482015290519081900360640190fd5b600160a060020a03811660009081526001602081905260409091205460ff16151514156107045761038a565b600160a060020a0381166000818152600160208181526040808420805460ff19168417905583548301909355825193845283015280517f1eb7afb67755aae367bcdf1214a00df5bb701cca74c4008b50957986dfbd70499281900390910190a150565b600160a060020a03811615156107de57604080517f08c379a000000000000000000000000000000000000000000000000000000000815260206004820152601260248201527f6164647265737320697320696e76616c69640000000000000000000000000000604482015290519081900360640190fd5b600160a060020a0381166000818152600160209081526040808320805460ff1916905580519384529083019190915280517e7a189f93b8aaf6c3ddd9c9b2d02b0e7c08dfa3442b3dd1be51716ce38b260e9281900390910190a15056fea165627a7a723058207e7be6f4528af82f3bfb32cf28982c31bb771afbd675c413a4bf83b0947c14e30029",
  "source": "// pragma solidity 0.4.24;\npragma solidity 0.5.3;\n\ncontract Verifier {\n    struct Challenge{\n        uint256 nPos;\n        uint256 nNeg;\n        uint256 quorum;\n        bool    result;\n        bool    finish;\n        mapping(address => bool) votes;\n    }\n\n    uint256 nVoters;\n    mapping(address => bool) public registry;\n    mapping(uint256 => Challenge) public challenges;\n\n    // events\n    event verifierAdded(address _verifier, bool _state);\n    event verifierRemoved(address _verifier, bool _state);\n    event verificationRequested(uint256 _did);\n    event verificationFinished(uint256 _did, bool _state);\n\n    constructor() public {\n        nVoters = 0;\n    }\n    \n    // manage verifier registration\n    function addVerifier(address user) public {\n        require(user != address(0), 'address is invalid');\n        if(registry[user] == true) return;\n        // if not registered yet\n        registry[user] = true;\n         nVoters = nVoters + 1;\n        emit verifierAdded(user, true);\n    }\n\n    function removeVerifier(address user) public {\n        require(user != address(0), 'address is invalid');\n        registry[user] = false;\n        emit verifierRemoved(user, false);\n    }\n\n    function queryVerifier(address user) public view returns (bool) {\n        return registry[user];\n    }\n\n    // quest por verification\n    function requestPOR(uint256 did) public {\n        // // if challenge of the same did exists AND it is not finished yet, do not allow new challenge\n        if(challenges[did].quorum != 0 && challenges[did].finish != true) return;\n        // create new challenge for the did\n        challenges[did] = Challenge({\n            nPos: 0,\n            nNeg: 0,\n            quorum: 50,\n            result: false,\n            finish: false\n        });\n        emit verificationRequested(did);\n    }\n\n    function submitSignature(uint256 did) public {\n        // check eligibility\n        require(registry[msg.sender] == true, 'sender is not a verifier');\n\n        if (challenges[did].votes[msg.sender] == false){\n            challenges[did].nPos = challenges[did].nPos + 1;\n            challenges[did].votes[msg.sender] = true;\n        }\n    }\n\n    function getInfo(uint256 did, uint256 x) public view returns(uint256) {\n        if(x == 1) return challenges[did].nPos;\n        if(x == 2) return challenges[did].nNeg;\n        if(x == 3) return challenges[did].quorum;\n        if(x == 4) return nVoters;\n    }\n\n    function resolveChallenge(uint256 did) public {\n        if(challenges[did].nPos + challenges[did].nNeg == nVoters && !challenges[did].finish ) {\n                challenges[did].finish = true;\n                uint256 cur = challenges[did].nPos * 100;\n                uint256 target = nVoters * challenges[did].quorum;\n                if( cur >= target){\n                    challenges[did].result = true;\n                    emit verificationFinished(did, true);\n                } else {\n                    challenges[did].result = false;\n                    emit verificationFinished(did, false);\n                }\n        }\n    }\n\n    function queryVerification(uint256 did) public view returns (bool){\n        //require(challenges[did].finish, 'verification is not finished yet');\n        return challenges[did].result;\n    }\n}\n",
  "sourcePath": "/Users/fancy/Documents/Ocean Protocol/research/rust_sandbox/truffle/contracts/Verifier.sol",
  "compiler": {
    "name": "solc",
    "version": "0.5.3+commit.10d17f24.Emscripten.clang"
  },
  "schemaVersion": "3.0.1",
  "updatedAt": "2019-07-22T21:18:55.639Z",
  "devdoc": {
    "methods": {}
  },
  "userdoc": {
    "methods": {}
  }
}