{
  "contractName": "Verifier",
  "abi": [
    {
      "constant": true,
      "inputs": [
        {
          "name": "",
          "type": "address"
        }
      ],
      "name": "registry",
      "outputs": [
        {
          "name": "",
          "type": "bool"
        }
      ],
      "payable": false,
      "stateMutability": "view",
      "type": "function"
    },
    {
      "constant": true,
      "inputs": [
        {
          "name": "",
          "type": "uint256"
        }
      ],
      "name": "challenges",
      "outputs": [
        {
          "name": "nPos",
          "type": "uint256"
        },
        {
          "name": "nNeg",
          "type": "uint256"
        },
        {
          "name": "quorum",
          "type": "uint256"
        },
        {
          "name": "result",
          "type": "bool"
        },
        {
          "name": "finish",
          "type": "bool"
        }
      ],
      "payable": false,
      "stateMutability": "view",
      "type": "function"
    },
    {
      "inputs": [],
      "payable": false,
      "stateMutability": "nonpayable",
      "type": "constructor"
    },
    {
      "anonymous": false,
      "inputs": [
        {
          "indexed": false,
          "name": "_verifier",
          "type": "address"
        },
        {
          "indexed": false,
          "name": "_state",
          "type": "bool"
        }
      ],
      "name": "verifierAdded",
      "type": "event"
    },
    {
      "anonymous": false,
      "inputs": [
        {
          "indexed": false,
          "name": "_verifier",
          "type": "address"
        },
        {
          "indexed": false,
          "name": "_state",
          "type": "bool"
        }
      ],
      "name": "verifierRemoved",
      "type": "event"
    },
    {
      "anonymous": false,
      "inputs": [
        {
          "indexed": false,
          "name": "_did",
          "type": "uint256"
        }
      ],
      "name": "verificationRequested",
      "type": "event"
    },
    {
      "anonymous": false,
      "inputs": [
        {
          "indexed": false,
          "name": "_did",
          "type": "uint256"
        },
        {
          "indexed": false,
          "name": "_state",
          "type": "bool"
        }
      ],
      "name": "verificationFinished",
      "type": "event"
    },
    {
      "constant": false,
      "inputs": [
        {
          "name": "user",
          "type": "address"
        }
      ],
      "name": "addVerifier",
      "outputs": [],
      "payable": false,
      "stateMutability": "nonpayable",
      "type": "function"
    },
    {
      "constant": false,
      "inputs": [
        {
          "name": "user",
          "type": "address"
        }
      ],
      "name": "removeVerifier",
      "outputs": [],
      "payable": false,
      "stateMutability": "nonpayable",
      "type": "function"
    },
    {
      "constant": true,
      "inputs": [
        {
          "name": "user",
          "type": "address"
        }
      ],
      "name": "queryVerifier",
      "outputs": [
        {
          "name": "",
          "type": "bool"
        }
      ],
      "payable": false,
      "stateMutability": "view",
      "type": "function"
    },
    {
      "constant": false,
      "inputs": [
        {
          "name": "did",
          "type": "uint256"
        }
      ],
      "name": "requestPOR",
      "outputs": [],
      "payable": false,
      "stateMutability": "nonpayable",
      "type": "function"
    },
    {
      "constant": false,
      "inputs": [
        {
          "name": "did",
          "type": "uint256"
        }
      ],
      "name": "submitSignature",
      "outputs": [],
      "payable": false,
      "stateMutability": "nonpayable",
      "type": "function"
    },
    {
      "constant": true,
      "inputs": [
        {
          "name": "did",
          "type": "uint256"
        },
        {
          "name": "x",
          "type": "uint256"
        }
      ],
      "name": "getInfo",
      "outputs": [
        {
          "name": "",
          "type": "uint256"
        }
      ],
      "payable": false,
      "stateMutability": "view",
      "type": "function"
    },
    {
      "constant": false,
      "inputs": [
        {
          "name": "did",
          "type": "uint256"
        }
      ],
      "name": "resolveChallenge",
      "outputs": [],
      "payable": false,
      "stateMutability": "nonpayable",
      "type": "function"
    },
    {
      "constant": true,
      "inputs": [
        {
          "name": "did",
          "type": "uint256"
        }
      ],
      "name": "queryVerification",
      "outputs": [
        {
          "name": "",
          "type": "bool"
        }
      ],
      "payable": false,
      "stateMutability": "view",
      "type": "function"
    }
  ],
  "bytecode": "0x608060405234801561001057600080fd5b5060008081905550610c5a806100276000396000f3fe608060405234801561001057600080fd5b50600436106100bb576000357c010000000000000000000000000000000000000000000000000000000090048063761c7cfe11610083578063761c7cfe1461021a5780637e250c6e146102485780638f1d3776146102945780639000b3d6146102fa578063ca2dfd0a1461033e576100bb565b8063038defd7146100c057806308dc2ca81461011c57806337c25cfc14610178578063657aa973146101a657806369bf1a94146101d4575b600080fd5b610102600480360360208110156100d657600080fd5b81019080803573ffffffffffffffffffffffffffffffffffffffff169060200190929190505050610382565b604051808215151515815260200191505060405180910390f35b61015e6004803603602081101561013257600080fd5b81019080803573ffffffffffffffffffffffffffffffffffffffff1690602001909291905050506103a2565b604051808215151515815260200191505060405180910390f35b6101a46004803603602081101561018e57600080fd5b81019080803590602001909291905050506103f8565b005b6101d2600480360360208110156101bc57600080fd5b8101908080359060200190929190505050610432565b005b610200600480360360208110156101ea57600080fd5b810190808035906020019092919050505061060b565b604051808215151515815260200191505060405180910390f35b6102466004803603602081101561023057600080fd5b8101908080359060200190929190505050610638565b005b61027e6004803603604081101561025e57600080fd5b810190808035906020019092919080359060200190929190505050610804565b6040518082815260200191505060405180910390f35b6102c0600480360360208110156102aa57600080fd5b8101908080359060200190929190505050610895565b6040518086815260200185815260200184815260200183151515158152602001821515151581526020019550505050505060405180910390f35b61033c6004803603602081101561031057600080fd5b81019080803573ffffffffffffffffffffffffffffffffffffffff1690602001909291905050506108e5565b005b6103806004803603602081101561035457600080fd5b81019080803573ffffffffffffffffffffffffffffffffffffffff169060200190929190505050610abf565b005b60016020528060005260406000206000915054906101000a900460ff1681565b6000600160008373ffffffffffffffffffffffffffffffffffffffff1673ffffffffffffffffffffffffffffffffffffffff16815260200190815260200160002060009054906101000a900460ff169050919050565b7fdfe43d96a5e6e1b03e2e6d96aca2d45267ccc5929508587683bb45bddfae3bde816040518082815260200191505060405180910390a150565b60011515600160003373ffffffffffffffffffffffffffffffffffffffff1673ffffffffffffffffffffffffffffffffffffffff16815260200190815260200160002060009054906101000a900460ff1615151415156104fa576040517f08c379a00000000000000000000000000000000000000000000000000000000081526004018080602001828103825260188152602001807f73656e646572206973206e6f742061207665726966696572000000000000000081525060200191505060405180910390fd5b600015156002600083815260200190815260200160002060040160003373ffffffffffffffffffffffffffffffffffffffff1673ffffffffffffffffffffffffffffffffffffffff16815260200190815260200160002060009054906101000a900460ff1615151415610608576001600260008381526020019081526020016000206000015401600260008381526020019081526020016000206000018190555060016002600083815260200190815260200160002060040160003373ffffffffffffffffffffffffffffffffffffffff1673ffffffffffffffffffffffffffffffffffffffff16815260200190815260200160002060006101000a81548160ff0219169083151502179055505b50565b60006002600083815260200190815260200160002060030160009054906101000a900460ff169050919050565b600054600260008381526020019081526020016000206001015460026000848152602001908152602001600020600001540114801561069857506002600082815260200190815260200160002060030160019054906101000a900460ff16155b156108015760016002600083815260200190815260200160002060030160016101000a81548160ff02191690831515021790555060006064600260008481526020019081526020016000206000015402905060006002600084815260200190815260200160002060020154600054029050808210151561078a5760016002600085815260200190815260200160002060030160006101000a81548160ff0219169083151502179055507f8410c16ef5899c79ca3a392a04010ed727cacb731086b6e44db94f78497495af83600160405180838152602001821515151581526020019250505060405180910390a16107fe565b60006002600085815260200190815260200160002060030160006101000a81548160ff0219169083151502179055507f8410c16ef5899c79ca3a392a04010ed727cacb731086b6e44db94f78497495af83600060405180838152602001821515151581526020019250505060405180910390a15b50505b50565b6000600182141561082d576002600084815260200190815260200160002060000154905061088f565b6002821415610854576002600084815260200190815260200160002060010154905061088f565b600382141561087b576002600084815260200190815260200160002060020154905061088f565b600482141561088e57600054905061088f565b5b92915050565b60026020528060005260406000206000915090508060000154908060010154908060020154908060030160009054906101000a900460ff16908060030160019054906101000a900460ff16905085565b600073ffffffffffffffffffffffffffffffffffffffff168173ffffffffffffffffffffffffffffffffffffffff161415151561098a576040517f08c379a00000000000000000000000000000000000000000000000000000000081526004018080602001828103825260128152602001807f6164647265737320697320696e76616c6964000000000000000000000000000081525060200191505060405180910390fd5b60011515600160008373ffffffffffffffffffffffffffffffffffffffff1673ffffffffffffffffffffffffffffffffffffffff16815260200190815260200160002060009054906101000a900460ff16151514156109e857610abc565b60018060008373ffffffffffffffffffffffffffffffffffffffff1673ffffffffffffffffffffffffffffffffffffffff16815260200190815260200160002060006101000a81548160ff0219169083151502179055506001600054016000819055507f1eb7afb67755aae367bcdf1214a00df5bb701cca74c4008b50957986dfbd7049816001604051808373ffffffffffffffffffffffffffffffffffffffff1673ffffffffffffffffffffffffffffffffffffffff168152602001821515151581526020019250505060405180910390a15b50565b600073ffffffffffffffffffffffffffffffffffffffff168173ffffffffffffffffffffffffffffffffffffffff1614151515610b64576040517f08c379a00000000000000000000000000000000000000000000000000000000081526004018080602001828103825260128152602001807f6164647265737320697320696e76616c6964000000000000000000000000000081525060200191505060405180910390fd5b6000600160008373ffffffffffffffffffffffffffffffffffffffff1673ffffffffffffffffffffffffffffffffffffffff16815260200190815260200160002060006101000a81548160ff0219169083151502179055507e7a189f93b8aaf6c3ddd9c9b2d02b0e7c08dfa3442b3dd1be51716ce38b260e816000604051808373ffffffffffffffffffffffffffffffffffffffff1673ffffffffffffffffffffffffffffffffffffffff168152602001821515151581526020019250505060405180910390a15056fea165627a7a723058202c8822ddc8665494e4c3092fc0bc12ef81c627e2ac02296b30a3625d7c798d7b0029",
  "source": "// pragma solidity 0.4.24;\npragma solidity 0.5.3;\n\ncontract Verifier {\n    struct Challenge{\n        uint256 nPos;\n        uint256 nNeg;\n        uint256 quorum;\n        bool    result;\n        bool    finish;\n        mapping(address => bool) votes;\n    }\n\n    uint256 nVoters;\n    mapping(address => bool) public registry;\n    mapping(uint256 => Challenge) public challenges;\n\n    // events\n    event verifierAdded(address _verifier, bool _state);\n    event verifierRemoved(address _verifier, bool _state);\n    event verificationRequested(uint256 _did);\n    event verificationFinished(uint256 _did, bool _state);\n\n    constructor() public {\n        nVoters = 0;\n    }\n    \n    // manage verifier registration\n    function addVerifier(address user) public {\n        require(user != address(0), 'address is invalid');\n        if(registry[user] == true) return;\n        // if not registered yet\n        registry[user] = true;\n         nVoters = nVoters + 1;\n        emit verifierAdded(user, true);\n    }\n\n    function removeVerifier(address user) public {\n        require(user != address(0), 'address is invalid');\n        registry[user] = false;\n        emit verifierRemoved(user, false);\n    }\n\n    function queryVerifier(address user) public view returns (bool) {\n        return registry[user];\n    }\n\n    // quest por verification\n    function requestPOR(uint256 did) public {\n        // // if challenge of the same did exists AND it is not finished yet, do not allow new challenge\n        // if(challenges[did].quorum != 0 && challenges[did].finish != true) return;\n        // // create new challenge for the did\n        // challenges[did] = Challenge({\n        //     nPos: 0,\n        //     nNeg: 0,\n        //     quorum: 50,\n        //     result: false,\n        //     finish: false\n        // });\n        emit verificationRequested(did);\n    }\n\n    function submitSignature(uint256 did) public {\n        // check eligibility\n        require(registry[msg.sender] == true, 'sender is not a verifier');\n\n        if (challenges[did].votes[msg.sender] == false){\n            challenges[did].nPos = challenges[did].nPos + 1;\n            challenges[did].votes[msg.sender] = true;\n        }\n    }\n\n    /*\n        uint256 nPos;\n        uint256 nNeg;\n        uint256 quorum;\n        uint256 nVoters\n    */\n    function getInfo(uint256 did, uint256 x) public view returns(uint256) {\n        if(x == 1) return challenges[did].nPos;\n        if(x == 2) return challenges[did].nNeg;\n        if(x == 3) return challenges[did].quorum;\n        if(x == 4) return nVoters;\n    }\n\n    function resolveChallenge(uint256 did) public {\n        if(challenges[did].nPos + challenges[did].nNeg == nVoters && !challenges[did].finish ) {\n                challenges[did].finish = true;\n                uint256 cur = challenges[did].nPos * 100;\n                uint256 target = nVoters * challenges[did].quorum;\n                if( cur >= target){\n                    challenges[did].result = true;\n                    emit verificationFinished(did, true);\n                } else {\n                    challenges[did].result = false;\n                    emit verificationFinished(did, false);\n                }\n        }\n    }\n\n    function queryVerification(uint256 did) public view returns (bool){\n        //require(challenges[did].finish, 'verification is not finished yet');\n        return challenges[did].result;\n    }\n}\n",
  "sourcePath": "/Users/fancy/Documents/Ocean Protocol/research/rust_sandbox/truffle/contracts/Verifier.sol",
  "compiler": {
    "name": "solc",
    "version": "0.5.3+commit.10d17f24.Emscripten.clang"
  },
  "schemaVersion": "2.0.0",
  "updatedAt": "2019-07-16T02:06:02.254Z"
}