{
  "contractName": "OceanToken",
  "abi": [
    {
      "constant": true,
      "inputs": [],
      "name": "name",
      "outputs": [
        {
          "name": "",
          "type": "string"
        }
      ],
      "payable": false,
      "stateMutability": "view",
      "type": "function"
    },
    {
      "constant": false,
      "inputs": [
        {
          "name": "spender",
          "type": "address"
        },
        {
          "name": "value",
          "type": "uint256"
        }
      ],
      "name": "approve",
      "outputs": [
        {
          "name": "",
          "type": "bool"
        }
      ],
      "payable": false,
      "stateMutability": "nonpayable",
      "type": "function"
    },
    {
      "constant": true,
      "inputs": [],
      "name": "initInflationBlock",
      "outputs": [
        {
          "name": "",
          "type": "uint256"
        }
      ],
      "payable": false,
      "stateMutability": "view",
      "type": "function"
    },
    {
      "constant": true,
      "inputs": [],
      "name": "totalSupply",
      "outputs": [
        {
          "name": "",
          "type": "uint256"
        }
      ],
      "payable": false,
      "stateMutability": "view",
      "type": "function"
    },
    {
      "constant": false,
      "inputs": [
        {
          "name": "from",
          "type": "address"
        },
        {
          "name": "to",
          "type": "address"
        },
        {
          "name": "value",
          "type": "uint256"
        }
      ],
      "name": "transferFrom",
      "outputs": [
        {
          "name": "",
          "type": "bool"
        }
      ],
      "payable": false,
      "stateMutability": "nonpayable",
      "type": "function"
    },
    {
      "constant": true,
      "inputs": [],
      "name": "decimals",
      "outputs": [
        {
          "name": "",
          "type": "uint8"
        }
      ],
      "payable": false,
      "stateMutability": "view",
      "type": "function"
    },
    {
      "constant": false,
      "inputs": [
        {
          "name": "spender",
          "type": "address"
        },
        {
          "name": "addedValue",
          "type": "uint256"
        }
      ],
      "name": "increaseAllowance",
      "outputs": [
        {
          "name": "",
          "type": "bool"
        }
      ],
      "payable": false,
      "stateMutability": "nonpayable",
      "type": "function"
    },
    {
      "constant": true,
      "inputs": [
        {
          "name": "owner",
          "type": "address"
        }
      ],
      "name": "balanceOf",
      "outputs": [
        {
          "name": "",
          "type": "uint256"
        }
      ],
      "payable": false,
      "stateMutability": "view",
      "type": "function"
    },
    {
      "constant": true,
      "inputs": [],
      "name": "currentSupply",
      "outputs": [
        {
          "name": "",
          "type": "uint256"
        }
      ],
      "payable": false,
      "stateMutability": "view",
      "type": "function"
    },
    {
      "constant": true,
      "inputs": [],
      "name": "unmintedSupply",
      "outputs": [
        {
          "name": "",
          "type": "uint256"
        }
      ],
      "payable": false,
      "stateMutability": "view",
      "type": "function"
    },
    {
      "constant": true,
      "inputs": [],
      "name": "rewardAddress",
      "outputs": [
        {
          "name": "",
          "type": "address"
        }
      ],
      "payable": false,
      "stateMutability": "view",
      "type": "function"
    },
    {
      "constant": true,
      "inputs": [],
      "name": "symbol",
      "outputs": [
        {
          "name": "",
          "type": "string"
        }
      ],
      "payable": false,
      "stateMutability": "view",
      "type": "function"
    },
    {
      "constant": true,
      "inputs": [],
      "name": "tokenReceiver",
      "outputs": [
        {
          "name": "",
          "type": "address"
        }
      ],
      "payable": false,
      "stateMutability": "view",
      "type": "function"
    },
    {
      "constant": false,
      "inputs": [
        {
          "name": "spender",
          "type": "address"
        },
        {
          "name": "subtractedValue",
          "type": "uint256"
        }
      ],
      "name": "decreaseAllowance",
      "outputs": [
        {
          "name": "",
          "type": "bool"
        }
      ],
      "payable": false,
      "stateMutability": "nonpayable",
      "type": "function"
    },
    {
      "constant": false,
      "inputs": [
        {
          "name": "to",
          "type": "address"
        },
        {
          "name": "value",
          "type": "uint256"
        }
      ],
      "name": "transfer",
      "outputs": [
        {
          "name": "",
          "type": "bool"
        }
      ],
      "payable": false,
      "stateMutability": "nonpayable",
      "type": "function"
    },
    {
      "constant": true,
      "inputs": [],
      "name": "inflationRatePerInterval",
      "outputs": [
        {
          "name": "",
          "type": "uint256"
        }
      ],
      "payable": false,
      "stateMutability": "view",
      "type": "function"
    },
    {
      "constant": true,
      "inputs": [],
      "name": "lastInflationBlock",
      "outputs": [
        {
          "name": "",
          "type": "uint256"
        }
      ],
      "payable": false,
      "stateMutability": "view",
      "type": "function"
    },
    {
      "constant": true,
      "inputs": [],
      "name": "blockInterval",
      "outputs": [
        {
          "name": "",
          "type": "uint256"
        }
      ],
      "payable": false,
      "stateMutability": "view",
      "type": "function"
    },
    {
      "constant": true,
      "inputs": [
        {
          "name": "owner",
          "type": "address"
        },
        {
          "name": "spender",
          "type": "address"
        }
      ],
      "name": "allowance",
      "outputs": [
        {
          "name": "",
          "type": "uint256"
        }
      ],
      "payable": false,
      "stateMutability": "view",
      "type": "function"
    },
    {
      "inputs": [],
      "payable": false,
      "stateMutability": "nonpayable",
      "type": "constructor"
    },
    {
      "payable": true,
      "stateMutability": "payable",
      "type": "fallback"
    },
    {
      "anonymous": false,
      "inputs": [
        {
          "indexed": true,
          "name": "_miner",
          "type": "address"
        },
        {
          "indexed": false,
          "name": "_amount",
          "type": "uint256"
        }
      ],
      "name": "tokenMinted",
      "type": "event"
    },
    {
      "anonymous": false,
      "inputs": [
        {
          "indexed": true,
          "name": "from",
          "type": "address"
        },
        {
          "indexed": true,
          "name": "to",
          "type": "address"
        },
        {
          "indexed": false,
          "name": "value",
          "type": "uint256"
        }
      ],
      "name": "Transfer",
      "type": "event"
    },
    {
      "anonymous": false,
      "inputs": [
        {
          "indexed": true,
          "name": "owner",
          "type": "address"
        },
        {
          "indexed": true,
          "name": "spender",
          "type": "address"
        },
        {
          "indexed": false,
          "name": "value",
          "type": "uint256"
        }
      ],
      "name": "Approval",
      "type": "event"
    },
    {
      "constant": false,
      "inputs": [
        {
          "name": "_to",
          "type": "address"
        }
      ],
      "name": "mintInitialSupply",
      "outputs": [
        {
          "name": "success",
          "type": "bool"
        }
      ],
      "payable": false,
      "stateMutability": "nonpayable",
      "type": "function"
    },
    {
      "constant": false,
      "inputs": [
        {
          "name": "_to",
          "type": "address"
        }
      ],
      "name": "setRewardAddress",
      "outputs": [
        {
          "name": "success",
          "type": "bool"
        }
      ],
      "payable": false,
      "stateMutability": "nonpayable",
      "type": "function"
    },
    {
      "constant": false,
      "inputs": [],
      "name": "mintTokens",
      "outputs": [
        {
          "name": "success",
          "type": "bool"
        }
      ],
      "payable": false,
      "stateMutability": "nonpayable",
      "type": "function"
    }
  ],
  "bytecode": "0x60806040523480156200001157600080fd5b5060408051808201909152600a8082527f4f6365616e546f6b656e0000000000000000000000000000000000000000000060209092019182526200005891600391620001df565b506040805180820190915260038082527f4f434e000000000000000000000000000000000000000000000000000000000060209092019182526200009f91600491620001df565b5060058054600160a060020a031916905560068054600160a860020a031916741200000000000000000000000000000000000000001790556b04860d8812f0b38878000000600781905562000121906064906200010c90602864010000000062000165810262000d691704565b9064010000000062000d97620001a282021704565b6008819055600754620001429164010000000062000bbb620001c782021704565b600955670e27c49886e60000600a556001600b5543600c819055600d5562000284565b6000808315156200017a57600091506200019b565b508282028284828115156200018b57fe5b04146200019757600080fd5b8091505b5092915050565b600080808311620001b257600080fd5b8284811515620001be57fe5b04949350505050565b60008083831115620001d857600080fd5b5050900390565b828054600181600116156101000203166002900490600052602060002090601f016020900481019282601f106200022257805160ff191683800117855562000252565b8280016001018555821562000252579182015b828111156200025257825182559160200191906001019062000235565b506200026092915062000264565b5090565b6200028191905b808211156200026057600081556001016200026b565b90565b610de680620002946000396000f3006080604052600436106101275763ffffffff7c010000000000000000000000000000000000000000000000000000000060003504166306fdde03811461012c578063095ea7b3146101b657806314afbbf4146101ee57806318160ddd1461021557806323b872dd1461022a578063313ce56714610254578063395093511461027f5780635db53202146102a35780635e00e679146102c457806370a08231146102e5578063771282f6146103065780637ec158f21461031b5780638cf57cb91461033057806395d89b4114610361578063a3e295bc14610376578063a457c2d71461038b578063a9059cbb146103af578063b03f4d4f146103d3578063b633ef4b146103e8578063c4c22e98146103fd578063dd62ed3e14610412578063eeb9635c14610439575b600080fd5b34801561013857600080fd5b5061014161044e565b6040805160208082528351818301528351919283929083019185019080838360005b8381101561017b578181015183820152602001610163565b50505050905090810190601f1680156101a85780820380516001836020036101000a031916815260200191505b509250505060405180910390f35b3480156101c257600080fd5b506101da600160a060020a03600435166024356104dc565b604080519115158252519081900360200190f35b3480156101fa57600080fd5b5061020361055a565b60408051918252519081900360200190f35b34801561022157600080fd5b50610203610560565b34801561023657600080fd5b506101da600160a060020a0360043581169060243516604435610566565b34801561026057600080fd5b5061026961062f565b6040805160ff9092168252519081900360200190f35b34801561028b57600080fd5b506101da600160a060020a0360043516602435610650565b3480156102af57600080fd5b506101da600160a060020a0360043516610700565b3480156102d057600080fd5b506101da600160a060020a03600435166107b9565b3480156102f157600080fd5b50610203600160a060020a0360043516610866565b34801561031257600080fd5b50610203610881565b34801561032757600080fd5b50610203610887565b34801561033c57600080fd5b5061034561088d565b60408051600160a060020a039092168252519081900360200190f35b34801561036d57600080fd5b5061014161089c565b34801561038257600080fd5b506103456108f7565b34801561039757600080fd5b506101da600160a060020a0360043516602435610906565b3480156103bb57600080fd5b506101da600160a060020a0360043516602435610951565b3480156103df57600080fd5b50610203610967565b3480156103f457600080fd5b5061020361096d565b34801561040957600080fd5b50610203610973565b34801561041e57600080fd5b50610203600160a060020a0360043581169060243516610979565b34801561044557600080fd5b506101da6109a4565b6003805460408051602060026001851615610100026000190190941693909304601f810184900484028201840190925281815292918301828280156104d45780601f106104a9576101008083540402835291602001916104d4565b820191906000526020600020905b8154815290600101906020018083116104b757829003601f168201915b505050505081565b6000600160a060020a03831615156104f357600080fd5b336000818152600160209081526040808320600160a060020a03881680855290835292819020869055805186815290519293927f8c5be1e5ebec7d5bd14f71427d1e84f3dd0314c0f7b2291e5b200ac8c7c3b925929181900390910190a350600192915050565b600c5481565b60075481565b600160a060020a038316600090815260016020908152604080832033845290915281205461059a908363ffffffff610bbb16565b600160a060020a03851660009081526001602090815260408083203384529091529020556105c9848484610bd9565b600160a060020a0384166000818152600160209081526040808320338085529083529281902054815190815290519293927f8c5be1e5ebec7d5bd14f71427d1e84f3dd0314c0f7b2291e5b200ac8c7c3b925929181900390910190a35060019392505050565b60065474010000000000000000000000000000000000000000900460ff1681565b6000600160a060020a038316151561066757600080fd5b336000908152600160209081526040808320600160a060020a038716845290915290205461069b908363ffffffff610ca616565b336000818152600160209081526040808320600160a060020a0389168085529083529281902085905580519485525191937f8c5be1e5ebec7d5bd14f71427d1e84f3dd0314c0f7b2291e5b200ac8c7c3b925929081900390910190a350600192915050565b600554600090600160a060020a03161561077b57604080517f08c379a000000000000000000000000000000000000000000000000000000000815260206004820152601d60248201527f5265636569766572206164647265737320616c7265616479207365742e000000604482015290519081900360640190fd5b61078782600854610cbf565b5060058054600160a060020a03831673ffffffffffffffffffffffffffffffffffffffff199091161790556001919050565b600654600090600160a060020a03161561083457604080517f08c379a000000000000000000000000000000000000000000000000000000000815260206004820181905260248201527f72657761726420706f6f6c206164647265737320616c7265616479207365742e604482015290519081900360640190fd5b5060068054600160a060020a03831673ffffffffffffffffffffffffffffffffffffffff199091161790556001919050565b600160a060020a031660009081526020819052604090205490565b60085481565b60095481565b600654600160a060020a031681565b6004805460408051602060026001851615610100026000190190941693909304601f810184900484028201840190925281815292918301828280156104d45780601f106104a9576101008083540402835291602001916104d4565b600554600160a060020a031681565b6000600160a060020a038316151561091d57600080fd5b336000908152600160209081526040808320600160a060020a038716845290915290205461069b908363ffffffff610bbb16565b600061095e338484610bd9565b50600192915050565b600a5481565b600d5481565b600b5481565b600160a060020a03918216600090815260016020908152604080832093909416825291909152205490565b60008060008060008060008060075460085414156109c55760009750610bb1565b600a549650600b54955043945085600d548115156109df57fe5b0486868115156109eb57fe5b04039350600084116109fc57600080fd5b869250600191505b83821015610a4157610a34670de0b6b3a7640000610a28858a63ffffffff610d6916565b9063ffffffff610d9716565b9250600190910190610a04565b671bc16d674ec80000831115610ade57604080517f08c379a000000000000000000000000000000000000000000000000000000000815260206004820152602260248201527f696e666c6174696f6e2063616e6e6f742065786365656420746865206c696d6960448201527f742e000000000000000000000000000000000000000000000000000000000000606482015290519081900360840190fd5b600954610b0d90610b01670de0b6b3a7640000610a28838863ffffffff610d6916565b9063ffffffff610bbb16565b9050600754610b2782600854610ca690919063ffffffff16565b1115610b4557600854600754610b429163ffffffff610bbb16565b90505b600654610b5b90600160a060020a031682610cbf565b600d859055600854610b73908263ffffffff610ca616565b60085560408051828152905133917f2d8eb9b9558d4b5ef1d238622692f6156d5822009340e26ab15fac05d64c12f0919081900360200190a2600197505b5050505050505090565b60008083831115610bcb57600080fd5b5050808203805b5092915050565b600160a060020a0382161515610bee57600080fd5b600160a060020a038316600090815260208190526040902054610c17908263ffffffff610bbb16565b600160a060020a038085166000908152602081905260408082209390935590841681522054610c4c908263ffffffff610ca616565b600160a060020a038084166000818152602081815260409182902094909455805185815290519193928716927fddf252ad1be2c89b69c2b068fc378daa952ba7f163c4a11628f55a4df523b3ef92918290030190a3505050565b600082820183811015610cb857600080fd5b9392505050565b600160a060020a0382161515610cd457600080fd5b600254610ce7908263ffffffff610ca616565b600255600160a060020a038216600090815260208190526040902054610d13908263ffffffff610ca616565b600160a060020a0383166000818152602081815260408083209490945583518581529351929391927fddf252ad1be2c89b69c2b068fc378daa952ba7f163c4a11628f55a4df523b3ef9281900390910190a35050565b600080831515610d7c5760009150610bd2565b50828202828482811515610d8c57fe5b0414610cb857600080fd5b600080808311610da657600080fd5b8284811515610db157fe5b049493505050505600a165627a7a72305820c69641d392c5f21d10ca322466fca3dede74e62ee4e807ec1ce5a20e8278e1fa0029",
  "source": "pragma solidity 0.4.25;\n\nimport \"../library/ERC20.sol\";\n\n/**\n * @title Ocean Token\n * @dev Ocean ERC20 tokens with token mining and distribution.\n */\n\ncontract OceanToken is ERC20 {\n\n    using SafeMath for uint256;\n\n    // ============\n    // DATA STRUCTURES:\n    // ============\n    string public name;                             // Set the token name for display\n    string public symbol;                           // Set the token symbol for display\n\n    // initial receiver of tokens\n    address public tokenReceiver;                   // address to receive initial supply of TOKENS\n    address public rewardAddress;                   // address to receive reward tokens\n\n    // constants\n    uint8 public decimals;                        // Set the number of decimals for display\n    uint256 public totalSupply;                   // OceanToken total supply\n    uint256 public currentSupply;                 // current available tokens\n\n    // network reward parameters\n    uint256 public unmintedSupply;                  // token amount that are not minted\n    uint256 public inflationRatePerInterval;      // inflationRatePerInterval should be multiplied by 1e18\n    uint256 public blockInterval;                 // period of inflation calculation\n\n    uint256 public initInflationBlock;\n    uint256 public lastInflationBlock;\n\n    // Events\n    event tokenMinted(address indexed _miner, uint256 _amount);\n\n    /**\n    * @dev OceanToken Constructor\n    * Runs only on initial contract creation.\n    */\n    constructor() public {\n        name = 'OceanToken';\n        symbol = 'OCN';\n        tokenReceiver = address(0);\n        rewardAddress = address(0);\n        decimals = 18;\n        totalSupply = 1400000000 * 10 ** 18;\n        currentSupply = totalSupply.mul(40).div(100);\n        unmintedSupply = totalSupply.sub(currentSupply);\n        inflationRatePerInterval = 1.02 * (10 ** 18);     // inflation rate per block (50% / half-life-num-block), e.g., 2%\n        blockInterval = 1;                                // testing: calculate inflation every block\n        // log init block number\n        initInflationBlock = block.number;\n        // log last mining block\n        lastInflationBlock = block.number;\n    }\n\n    /**\n    * @dev mintInitialSupply mints the initial supply tokens and sends to receiver (called upon deployment and only once)\n    * @param _to The address to send initial supply tokens\n    * @return success setting is successful.\n    */\n    function mintInitialSupply(address _to) public returns (bool success){\n        // make sure receiver is not set already\n        require(tokenReceiver == address(0), 'Receiver address already set.');\n        // Creator address is assigned initial available tokens\n        super._mint(_to, currentSupply);\n        // set receiver\n        tokenReceiver = _to;\n        return true;\n    }\n\n    /**\n    * @dev setRewardPool set the address (OceanReward) to receive the reward tokens\n    * @param _to The address to send tokens\n    * @return success setting is successful.\n    */\n    function setRewardAddress(address _to) public returns (bool success){\n        // make sure receiver is not set already\n        require(rewardAddress == address(0), 'reward pool address already set.');\n        // set _rewardPool\n        rewardAddress = _to;\n        return true;\n    }\n\n    /**\n     * @dev emitTokens Ocean tokens according to schedule forumla\n     * @return true if the mining of Ocean tokens is successful.\n     */\n    function mintTokens() public returns (bool success) {\n        // check if all tokens have been minted\n        if (currentSupply == totalSupply) {\n            return false;\n        }\n\n        uint256 infRate = inflationRatePerInterval;\n        uint256 blockInt = blockInterval;\n        uint256 currentBlock = block.number;\n\n        // compute the number of interval elapsed since the last time we minted infation tokens\n        uint256 intervalsSinceLastMint = currentBlock / blockInt - lastInflationBlock / blockInt;\n\n        // only update at least with one interval elapsed\n        require(intervalsSinceLastMint > 0);\n\n        uint256 rate = infRate;\n        // compute inflation for total timeIntervals elapsed\n        for (uint256 i = 1; i < intervalsSinceLastMint; i++) {\n          rate = rate.mul(infRate).div(10 ** 18);\n        }\n\n        // calculate number of tokens to be minted\n        require(rate <= 2 * (10 ** 18), 'inflation cannot exceed the limit.');\n        uint256 tokenInflation = unmintedSupply.mul(rate).div(10 ** 18).sub(unmintedSupply);\n\n        // avoid minting more tokens than total supply\n        if (currentSupply.add(tokenInflation) > totalSupply) {\n            tokenInflation = totalSupply.sub(currentSupply);\n        }\n        // mint new tokens and deposit in OceanReward contract\n        // super._mint(tokenReceiver, tokenInflation);  // testing purpose: send reward tokens to receiver\n        super._mint(rewardAddress, tokenInflation);     // production: send reward tokens to reward contract\n        // log the block number\n        lastInflationBlock = currentBlock;\n        // update current token supply\n        currentSupply = currentSupply.add(tokenInflation);\n        emit tokenMinted(msg.sender, tokenInflation);\n        return true;\n    }\n\n    /**\n    * @dev Fallback function to return Ether deposit\n    */\n    function() public payable {\n        revert();\n    }\n\n}\n",
  "sourcePath": "/Users/fancy/Documents/Ocean Protocol/research/16-research-repo/research/2-signaling-mechanism/1-bonding-curve/contracts/token/OceanToken.sol",
  "compiler": {
    "name": "solc",
    "version": "0.4.25+commit.59dbf8f1.Emscripten.clang"
  },
  "schemaVersion": "3.0.1",
  "updatedAt": "2019-02-09T00:07:58.664Z",
  "devdoc": {
    "methods": {
      "allowance(address,address)": {
        "details": "Function to check the amount of tokens that an owner allowed to a spender.",
        "params": {
          "owner": "address The address which owns the funds.",
          "spender": "address The address which will spend the funds."
        },
        "return": "A uint256 specifying the amount of tokens still available for the spender."
      },
      "approve(address,uint256)": {
        "details": "Approve the passed address to spend the specified amount of tokens on behalf of msg.sender. Beware that changing an allowance with this method brings the risk that someone may use both the old and the new allowance by unfortunate transaction ordering. One possible solution to mitigate this race condition is to first reduce the spender's allowance to 0 and set the desired value afterwards: https://github.com/ethereum/EIPs/issues/20#issuecomment-263524729",
        "params": {
          "spender": "The address which will spend the funds.",
          "value": "The amount of tokens to be spent."
        }
      },
      "balanceOf(address)": {
        "details": "Gets the balance of the specified address.",
        "params": {
          "owner": "The address to query the balance of."
        },
        "return": "An uint256 representing the amount owned by the passed address."
      },
      "decreaseAllowance(address,uint256)": {
        "details": "Decrease the amount of tokens that an owner allowed to a spender. approve should be called when allowed_[_spender] == 0. To decrement allowed value is better to use this function to avoid 2 calls (and wait until the first transaction is mined) From MonolithDAO Token.sol Emits an Approval event.",
        "params": {
          "spender": "The address which will spend the funds.",
          "subtractedValue": "The amount of tokens to decrease the allowance by."
        }
      },
      "increaseAllowance(address,uint256)": {
        "details": "Increase the amount of tokens that an owner allowed to a spender. approve should be called when allowed_[_spender] == 0. To increment allowed value is better to use this function to avoid 2 calls (and wait until the first transaction is mined) From MonolithDAO Token.sol Emits an Approval event.",
        "params": {
          "addedValue": "The amount of tokens to increase the allowance by.",
          "spender": "The address which will spend the funds."
        }
      },
      "mintInitialSupply(address)": {
        "details": "mintInitialSupply mints the initial supply tokens and sends to receiver (called upon deployment and only once)",
        "params": {
          "_to": "The address to send initial supply tokens"
        },
        "return": "success setting is successful."
      },
      "mintTokens()": {
        "details": "emitTokens Ocean tokens according to schedule forumla",
        "return": "true if the mining of Ocean tokens is successful."
      },
      "setRewardAddress(address)": {
        "details": "setRewardPool set the address (OceanReward) to receive the reward tokens",
        "params": {
          "_to": "The address to send tokens"
        },
        "return": "success setting is successful."
      },
      "transfer(address,uint256)": {
        "details": "Transfer token for a specified address",
        "params": {
          "to": "The address to transfer to.",
          "value": "The amount to be transferred."
        }
      },
      "transferFrom(address,address,uint256)": {
        "details": "Transfer tokens from one address to another. Note that while this function emits an Approval event, this is not required as per the specification, and other compliant implementations may not emit the event.",
        "params": {
          "from": "address The address which you want to send tokens from",
          "to": "address The address which you want to transfer to",
          "value": "uint256 the amount of tokens to be transferred"
        }
      }
    },
    "title": "Ocean Token"
  },
  "userdoc": {
    "methods": {}
  }
}