{
  "contractName": "OceanBondingCurve",
  "abi": [
    {
      "constant": true,
      "inputs": [
        {
          "name": "_supply",
          "type": "uint256"
        },
        {
          "name": "_connectorBalance",
          "type": "uint256"
        },
        {
          "name": "_connectorWeight",
          "type": "uint32"
        },
        {
          "name": "_depositAmount",
          "type": "uint256"
        }
      ],
      "name": "calculatePurchaseReturn",
      "outputs": [
        {
          "name": "",
          "type": "uint256"
        }
      ],
      "payable": false,
      "stateMutability": "view",
      "type": "function"
    },
    {
      "constant": true,
      "inputs": [
        {
          "name": "_supply",
          "type": "uint256"
        },
        {
          "name": "_connectorBalance",
          "type": "uint256"
        },
        {
          "name": "_connectorWeight",
          "type": "uint32"
        },
        {
          "name": "_sellAmount",
          "type": "uint256"
        }
      ],
      "name": "calculateSaleReturn",
      "outputs": [
        {
          "name": "",
          "type": "uint256"
        }
      ],
      "payable": false,
      "stateMutability": "view",
      "type": "function"
    },
    {
      "constant": true,
      "inputs": [],
      "name": "version",
      "outputs": [
        {
          "name": "",
          "type": "string"
        }
      ],
      "payable": false,
      "stateMutability": "view",
      "type": "function"
    },
    {
      "constant": true,
      "inputs": [
        {
          "name": "_fromConnectorBalance",
          "type": "uint256"
        },
        {
          "name": "_fromConnectorWeight",
          "type": "uint32"
        },
        {
          "name": "_toConnectorBalance",
          "type": "uint256"
        },
        {
          "name": "_toConnectorWeight",
          "type": "uint32"
        },
        {
          "name": "_amount",
          "type": "uint256"
        }
      ],
      "name": "calculateCrossConnectorReturn",
      "outputs": [
        {
          "name": "",
          "type": "uint256"
        }
      ],
      "payable": false,
      "stateMutability": "view",
      "type": "function"
    },
    {
      "constant": false,
      "inputs": [],
      "name": "renounceOwnership",
      "outputs": [],
      "payable": false,
      "stateMutability": "nonpayable",
      "type": "function"
    },
    {
      "constant": true,
      "inputs": [],
      "name": "owner",
      "outputs": [
        {
          "name": "",
          "type": "address"
        }
      ],
      "payable": false,
      "stateMutability": "view",
      "type": "function"
    },
    {
      "constant": true,
      "inputs": [],
      "name": "isOwner",
      "outputs": [
        {
          "name": "",
          "type": "bool"
        }
      ],
      "payable": false,
      "stateMutability": "view",
      "type": "function"
    },
    {
      "constant": true,
      "inputs": [],
      "name": "mToken",
      "outputs": [
        {
          "name": "",
          "type": "address"
        }
      ],
      "payable": false,
      "stateMutability": "view",
      "type": "function"
    },
    {
      "constant": false,
      "inputs": [
        {
          "name": "newOwner",
          "type": "address"
        }
      ],
      "name": "transferOwnership",
      "outputs": [],
      "payable": false,
      "stateMutability": "nonpayable",
      "type": "function"
    },
    {
      "constant": true,
      "inputs": [],
      "name": "scale",
      "outputs": [
        {
          "name": "",
          "type": "uint256"
        }
      ],
      "payable": false,
      "stateMutability": "view",
      "type": "function"
    },
    {
      "constant": true,
      "inputs": [],
      "name": "gasPrice",
      "outputs": [
        {
          "name": "",
          "type": "uint256"
        }
      ],
      "payable": false,
      "stateMutability": "view",
      "type": "function"
    },
    {
      "inputs": [
        {
          "name": "_tokenAddress",
          "type": "address"
        }
      ],
      "payable": false,
      "stateMutability": "nonpayable",
      "type": "constructor"
    },
    {
      "anonymous": false,
      "inputs": [
        {
          "indexed": true,
          "name": "_creator",
          "type": "address"
        },
        {
          "indexed": true,
          "name": "_did",
          "type": "bytes32"
        }
      ],
      "name": "bondingCurveCreated",
      "type": "event"
    },
    {
      "anonymous": false,
      "inputs": [
        {
          "indexed": true,
          "name": "_requester",
          "type": "address"
        },
        {
          "indexed": false,
          "name": "_ocn",
          "type": "uint256"
        },
        {
          "indexed": false,
          "name": "_tokens",
          "type": "uint256"
        }
      ],
      "name": "buyBondedTokens",
      "type": "event"
    },
    {
      "anonymous": false,
      "inputs": [
        {
          "indexed": true,
          "name": "_requester",
          "type": "address"
        },
        {
          "indexed": false,
          "name": "_ocn",
          "type": "uint256"
        },
        {
          "indexed": false,
          "name": "_tokens",
          "type": "uint256"
        }
      ],
      "name": "sellBondedTokens",
      "type": "event"
    },
    {
      "anonymous": false,
      "inputs": [
        {
          "indexed": true,
          "name": "previousOwner",
          "type": "address"
        },
        {
          "indexed": true,
          "name": "newOwner",
          "type": "address"
        }
      ],
      "name": "OwnershipTransferred",
      "type": "event"
    },
    {
      "constant": true,
      "inputs": [
        {
          "name": "did",
          "type": "bytes32"
        },
        {
          "name": "account",
          "type": "address"
        }
      ],
      "name": "getTokenBalance",
      "outputs": [
        {
          "name": "balance",
          "type": "uint256"
        }
      ],
      "payable": false,
      "stateMutability": "view",
      "type": "function"
    },
    {
      "constant": true,
      "inputs": [
        {
          "name": "did",
          "type": "bytes32"
        }
      ],
      "name": "getTokenAddress",
      "outputs": [
        {
          "name": "",
          "type": "address"
        }
      ],
      "payable": false,
      "stateMutability": "view",
      "type": "function"
    },
    {
      "constant": false,
      "inputs": [
        {
          "name": "amount",
          "type": "uint256"
        }
      ],
      "name": "requestTokens",
      "outputs": [
        {
          "name": "",
          "type": "uint256"
        }
      ],
      "payable": false,
      "stateMutability": "nonpayable",
      "type": "function"
    },
    {
      "constant": false,
      "inputs": [
        {
          "name": "did",
          "type": "bytes32"
        },
        {
          "name": "name",
          "type": "string"
        },
        {
          "name": "symbol",
          "type": "string"
        }
      ],
      "name": "createBondingCurve",
      "outputs": [
        {
          "name": "success",
          "type": "bool"
        }
      ],
      "payable": false,
      "stateMutability": "nonpayable",
      "type": "function"
    },
    {
      "constant": false,
      "inputs": [
        {
          "name": "did",
          "type": "bytes32"
        },
        {
          "name": "ocn",
          "type": "uint256"
        }
      ],
      "name": "buy",
      "outputs": [
        {
          "name": "success",
          "type": "bool"
        }
      ],
      "payable": false,
      "stateMutability": "nonpayable",
      "type": "function"
    },
    {
      "constant": false,
      "inputs": [
        {
          "name": "did",
          "type": "bytes32"
        },
        {
          "name": "sellAmount",
          "type": "uint256"
        }
      ],
      "name": "sell",
      "outputs": [
        {
          "name": "success",
          "type": "bool"
        }
      ],
      "payable": false,
      "stateMutability": "nonpayable",
      "type": "function"
    },
    {
      "constant": false,
      "inputs": [
        {
          "name": "_gasPrice",
          "type": "uint256"
        }
      ],
      "name": "setGasPrice",
      "outputs": [],
      "payable": false,
      "stateMutability": "nonpayable",
      "type": "function"
    }
  ],
  "bytecode": "0x60c0604052600360808190527f302e33000000000000000000000000000000000000000000000000000000000060a09081526200004091600091906200090e565b503480156200004e57600080fd5b5060405160208062003f2c83398101604081815291516001606060020a641c35fedd1502036021556001605e60020a646c3390ecc902036022556001606160020a640cf801476102036023556001605f60020a6431bdb23e1d02036024556001605b60020a6502fb1d8fe08302036025556001605a60020a6505b771955b3702036026556001605960020a650af67a93bb5102036027556001605860020a6515060c256cb302036028556001605860020a651428a2f98d7302036029556001605660020a654d51566397090203602a556001605560020a65944620b0e70f0203602b557011c592761c666fffffffffffffffffffff602c5570110a688680a757ffffffffffffffffffff602d55701056f1b5bedf77ffffffffffffffffffff602e55700faadceceeff8bffffffffffffffffffff602f55700f05dc6b27edadffffffffffffffffffff603055700e67a5a25da4107fffffffffffffffffff603155700dcff115b14eedffffffffffffffffffff603255700d3e7a392431239fffffffffffffffffff603355700cb2ff529eb71e4fffffffffffffffffff603455700c2d415c3db974afffffffffffffffffff603555700bad03e7d883f69bffffffffffffffffff603655700b320d03b2c343d5ffffffffffffffffff603755700abc25204e02828dffffffffffffffffff603855700a4b16f74ee4bb207fffffffffffffffff6039557009deaf736ac1f569ffffffffffffffffff603a55700976bd9952c7aa957fffffffffffffffff603b557009131271922eaa606fffffffffffffffff603c557008b380f3558668c46fffffffffffffffff603d55700857ddf0117efa215bffffffffffffffff603e556001608360020a03603f557007abbf6f6abb9d087fffffffffffffffff90925570075af62cbac95f7dfa7fffffffffffffff60415570070d7fb7452e187ac13fffffffffffffff6042557006c3390ecc8af379295fffffffffffffff60435570067c00a3b07ffc01fd6fffffffffffffff604455700637b647c39cbb9d3d27ffffffffffffff6045557005f63b1fc104dbd39587ffffffffffffff6046557005b771955b36e12f7235ffffffffffffff60475570057b3d49dda84556d6f6ffffffffffffff60485570054183095b2c8ececf30ffffffffffffff60495570050a28be635ca2b888f77fffffffffffff604a557004d5156639708c9db33c3fffffffffffff604b557004a23105873875bd52dfdfffffffffffff604c55700471649d87199aa990756fffffffffffff604d557004429a21a029d4c1457cfbffffffffffff604e55700415bc6d6fb7dd71af2cb3ffffffffffff604f557003eab73b3bbfe282243ce1ffffffffffff6050557003c1771ac9fb6b4c18e229ffffffffffff605155700399e96897690418f785257fffffffffff605255700373fc456c53bb779bf0ea9fffffffffff60535570034f9e8e490c48e67e6ab8bfffffffffff60545570032cbfd4a7adc790560b3337ffffffffff60555570030b50570f6e5d2acca94613ffffffffff6056557002eb40f9f620fda6b56c2861ffffffffff6057557002cc8340ecb0d0f520a6af58ffffffffff6058557002af09481380a0a35cf1ba02ffffffffff605955700292c5bdd3b92ec810287b1b3fffffffff605a55700277abdcdab07d5a77ac6d6b9fffffffff605b5570025daf6654b1eaa55fd64df5efffffffff605c55700244c49c648baa98192dce88b7ffffffff605d5570022ce03cd5619a311b2471268bffffffff605e55700215f77c045fbe885654a44a0fffffffff605f556001608160020a036060557001eaefdbdaaee7421fc4d3ede5ffffffff6061557001d6bd8b2eb257df7e8ca57b09bfffffff6062557001c35fedd14b861eb0443f7f133fffffff6063557001b0ce43b322bcde4a56e8ada5afffffff60645570019f0028ec1fff007f5a195a39dfffffff60655570018ded91f0e72ee74f49b15ba527ffffff60665570017d8ec7f04136f4e5615fd41a63ffffff60675570016ddc6556cdb84bdc8d12d22e6fffffff60685570015ecf52776a1155b5bd8395814f7fffff60695570015060c256cb23b3b3cc3754cf40ffffff606a557001428a2f98d728ae223ddab715be3fffff606b5570013545598e5c23276ccf0ede68034fffff606c557001288c4161ce1d6f54b7f61081194fffff606d5570011c592761c666aa641d5a01a40f17ffff606e55700110a688680a7530515f3e6e6cfdcdffff606f557001056f1b5bedf75c6bcb2ce8aed428ffff6070556ffaadceceeff8a0890f3875f008277fff6071556ff05dc6b27edad306388a600f6ba0bfff6072556fe67a5a25da41063de1495d5b18cdbfff6073556fdcff115b14eedde6fc3aa5353f2e4fff6074556fd3e7a3924312399f9aae2e0f868f8fff6075556fcb2ff529eb71e41582cccd5a1ee26fff6076556fc2d415c3db974ab32a51840c0b67edff6077556fbad03e7d883f69ad5b0a186184e06bff6078556fb320d03b2c343d4829abd6075f0cc5ff6079556fabc25204e02828d73c6e80bcdb1a95bf607a556fa4b16f74ee4bb2040a1ec6c15fbbf2df607b556f9deaf736ac1f569deb1b5ae3f36c130f607c556f976bd9952c7aa957f5937d790ef65037607d556f9131271922eaa6064b73a22d0bd4f2bf607e556f8b380f3558668c46c91c49a2f8e967b9607f556f857ddf0117efa215952912839f6473e660805560818054600160a060020a031916331790819055600160a060020a0316906000907f8be0079c531659141344cd1fd0a4f28419497f9722a3daafe3b4186f6b6457e0908290a3600160a060020a0381161515620008c457604080517f08c379a000000000000000000000000000000000000000000000000000000000815260206004820152601560248201527f546f6b656e2061646472657373206973203078302e0000000000000000000000604482015290519081900360640190fd5b60828054600160a060020a03909216600160a060020a0319909216919091179055670de0b6b3a76400006083556085805463ffffffff1916620dbba01790556000608455620009b3565b828054600181600116156101000203166002900490600052602060002090601f016020900481019282601f106200095157805160ff191683800117855562000981565b8280016001018555821562000981579182015b828111156200098157825182559160200191906001019062000964565b506200098f92915062000993565b5090565b620009b091905b808211156200098f57600081556001016200099a565b90565b61356980620009c36000396000f300608060405260043610620000f55763ffffffff60e060020a6000350416630ddeb6328114620000fa57806329a00e7c146200012c578063443528f6146200016857806349f9b0f7146200018f57806354fd4d5014620001b957806365098bb31462000249578063715018a6146200027a5780638da5cb5b14620002945780638f32d59b14620002c8578063a2b7222814620002e0578063b12e4410146200037f578063b592de3a146200039a578063bf1fe42014620003b8578063c3b6f93914620003d3578063eef9c27c14620003eb578063f2fde38b1462000406578063f51e181a146200042a578063fe173b971462000442575b600080fd5b3480156200010757600080fd5b50620001186004356024356200045a565b604080519115158252519081900360200190f35b3480156200013957600080fd5b506200015660043560243563ffffffff60443516606435620007ad565b60408051918252519081900360200190f35b3480156200017557600080fd5b5062000156600435600160a060020a03602435166200089e565b3480156200019c57600080fd5b506200015660043560243563ffffffff6044351660643562000972565b348015620001c657600080fd5b50620001d162000a82565b6040805160208082528351818301528351919283929083019185019080838360005b838110156200020d578181015183820152602001620001f3565b50505050905090810190601f1680156200023b5780820380516001836020036101000a031916815260200191505b509250505060405180910390f35b3480156200025657600080fd5b506200015660043563ffffffff602435811690604435906064351660843562000b14565b3480156200028757600080fd5b506200029262000c3d565b005b348015620002a157600080fd5b50620002ac62000caa565b60408051600160a060020a039092168252519081900360200190f35b348015620002d557600080fd5b506200011862000cb9565b348015620002ed57600080fd5b5060408051602060046024803582810135601f81018590048502860185019096528585526200011895833595369560449491939091019190819084018382808284375050604080516020601f89358b018035918201839004830284018301909452808352979a99988101979196509182019450925082915084018382808284375094975062000cca9650505050505050565b3480156200038c57600080fd5b50620002ac60043562001296565b348015620003a757600080fd5b5062000118600435602435620012d9565b348015620003c557600080fd5b50620002926004356200180b565b348015620003e057600080fd5b50620002ac62001834565b348015620003f857600080fd5b506200015660043562001843565b3480156200041357600080fd5b5062000292600160a060020a0360043516620018fe565b3480156200043757600080fd5b506200015662001922565b3480156200044f57600080fd5b506200015662001928565b6000828152608660205260408120548190819081908690600160a060020a031615156200048357fe5b6084543a11156200049057fe5b6000878152608660209081526040808320600381015460029091015460835483517f18160ddd0000000000000000000000000000000000000000000000000000000081529351600160a060020a0390931699509097506200058d94620005549491938a936318160ddd9360048084019491938390030190829087803b1580156200051957600080fd5b505af11580156200052e573d6000803e3d6000fd5b505050506040513d60208110156200054557600080fd5b50519063ffffffff6200192e16565b6083546200056a90869063ffffffff6200192e16565b60855460835463ffffffff9182169162000587918c916200192e16565b620007ad565b608254604080517f23b872dd000000000000000000000000000000000000000000000000000000008152336004820152306024820152604481018a90529051929450600160a060020a03909116916323b872dd916064808201926020929091908290030181600087803b1580156200060457600080fd5b505af115801562000619573d6000803e3d6000fd5b505050506040513d60208110156200063057600080fd5b505115156200063e57600080fd5b60008781526086602090815260408083203384526004019091529020546200066d908763ffffffff6200195316565b600088815260866020818152604080842033855260048101835290842094909455918a9052905260020154620006aa908763ffffffff6200195316565b600088815260866020526040902060020155608354600160a060020a038516906340c10f19903390620006e590869063ffffffff6200196d16565b6040518363ffffffff1660e060020a0281526004018083600160a060020a0316600160a060020a0316815260200182815260200192505050602060405180830381600087803b1580156200073857600080fd5b505af11580156200074d573d6000803e3d6000fd5b505050506040513d60208110156200076457600080fd5b50506040805187815260208101849052815133927f5242e813a15f3d8715d66e8c4c0a58a9e5f65abaa5898c3bbef85247d18dded8928290030190a25060019695505050505050565b60008060008060008089118015620007c55750600088115b8015620007d8575060008763ffffffff16115b8015620007ee5750620f424063ffffffff881611155b1515620007fa57600080fd5b8515156200080c576000945062000892565b63ffffffff8716620f42401415620008445787620008318a8863ffffffff6200196d16565b8115156200083b57fe5b04945062000892565b62000856868963ffffffff6200195316565b915062000869828989620f42406200199f565b909450925060ff8316620008848a8663ffffffff6200196d16565b9060020a9004905088810394505b50505050949350505050565b6000828152608660205260408120548390600160a060020a03161515620008c157fe5b60008481526086602090815260408083206003015481517f70a08231000000000000000000000000000000000000000000000000000000008152600160a060020a038881166004830152925192909116936370a082319360248084019491939192918390030190829087803b1580156200093a57600080fd5b505af11580156200094f573d6000803e3d6000fd5b505050506040513d60208110156200096657600080fd5b505191505b5092915050565b60008060008060008060008a1180156200098c5750600089115b80156200099f575060008863ffffffff16115b8015620009b55750620f424063ffffffff891611155b8015620009c25750898711155b1515620009ce57600080fd5b861515620009e0576000955062000a75565b89871415620009f25788955062000a75565b63ffffffff8816620f4240141562000a2a578962000a178a8963ffffffff6200196d16565b81151562000a2157fe5b04955062000a75565b868a03925062000a408a84620f42408b6200199f565b909550935062000a57898663ffffffff6200196d16565b91505060ff831660020a88028481830381151562000a7157fe5b0495505b5050505050949350505050565b6000805460408051602060026001851615610100026000190190941693909304601f8101849004840282018401909252818152929183018282801562000b0c5780601f1062000ae05761010080835404028352916020019162000b0c565b820191906000526020600020905b81548152906001019060200180831162000aee57829003601f168201915b505050505081565b60008060008060008060008b11801562000b34575060008a63ffffffff16115b801562000b4a5750620f424063ffffffff8b1611155b801562000b575750600089115b801562000b6a575060008863ffffffff16115b801562000b805750620f424063ffffffff891611155b151562000b8c57600080fd5b8763ffffffff168a63ffffffff16141562000bd85762000bb38b8863ffffffff6200195316565b62000bc58a8963ffffffff6200196d16565b81151562000bcf57fe5b04955062000c2f565b62000bea8b8863ffffffff6200195316565b925062000bfa838c8c8b6200199f565b909550935062000c11898663ffffffff6200196d16565b91505060ff831660020a88028481830381151562000c2b57fe5b0495505b505050505095945050505050565b62000c4762000cb9565b151562000c5357600080fd5b608154604051600091600160a060020a0316907f8be0079c531659141344cd1fd0a4f28419497f9722a3daafe3b4186f6b6457e0908390a36081805473ffffffffffffffffffffffffffffffffffffffff19169055565b608154600160a060020a031690565b608154600160a060020a0316331490565b6000838152608660205260408120548190600160a060020a03161562000d60576040805160e560020a62461bcd02815260206004820152602160248201527f7468657265206d757374206265206f6e6c79206f6e652042432070657220646960448201527f6400000000000000000000000000000000000000000000000000000000000000606482015290519081900360840190fd5b6087846040518082805190602001908083835b6020831062000d945780518252601f19909201916020918201910162000d73565b51815160209384036101000a600019018019909216911617905292019485525060405193849003019092205460ff1615915050801562000e3757506088836040518082805190602001908083835b6020831062000e035780518252601f19909201916020918201910162000de2565b51815160209384036101000a600019018019909216911617905292019485525060405193849003019092205460ff16159150505b151562000e8e576040805160e560020a62461bcd02815260206004820152601e60248201527f6e616d65206f722073796d626f6c20616c7265616479206578697374732e0000604482015290519081900360640190fd5b84151562000ee6576040805160e560020a62461bcd02815260206004820152601060248201527f646964206973206e6f742076616c696400000000000000000000000000000000604482015290519081900360640190fd5b838362000ef262002987565b604080825283519082015282518190602080830191606084019187019080838360005b8381101562000f2f57818101518382015260200162000f15565b50505050905090810190601f16801562000f5d5780820380516001836020036101000a031916815260200191505b50838103825284518152845160209182019186019080838360005b8381101562000f9257818101518382015260200162000f78565b50505050905090810190601f16801562000fc05780820380516001836020036101000a031916815260200191505b50945050505050604051809103906000f08015801562000fe4573d6000803e3d6000fd5b50604080517f11cee7e30000000000000000000000000000000000000000000000000000000081523060048201529051919250600160a060020a038316916311cee7e39160248082019260009290919082900301818387803b1580156200104a57600080fd5b505af11580156200105f573d6000803e3d6000fd5b505060408051608081018252338152608354600a81026020808401918252838501928352600160a060020a038881166060860181815260008f8152608685528881209751885490851673ffffffffffffffffffffffffffffffffffffffff1991821617895595516001890181905596516002890155905160039097018054979093169690941695909517905584517f40c10f19000000000000000000000000000000000000000000000000000000008152306004820152602481019390935293519295506340c10f19945060448083019493928390030190829087803b1580156200114957600080fd5b505af11580156200115e573d6000803e3d6000fd5b505050506040513d60208110156200117557600080fd5b5050604051859033907f96f7a3cf4eec90ca9aff80e56bc31a9d702c93ec1f237f29cb31fa7724bdc49390600090a360016087856040518082805190602001908083835b60208310620011da5780518252601f199092019160209182019101620011b9565b51815160209384036101000a60001901801990921691161790529201948552506040519384900381018420805460ff19169515159590951790945550508451600192608892879290918291908401908083835b602083106200124e5780518252601f1990920191602091820191016200122d565b51815160209384036101000a60001901801990921691161790529201948552506040519384900301909220805460ff1916931515939093179092555060019695505050505050565b6000818152608660205260408120548290600160a060020a03161515620012b957fe5b5050600090815260866020526040902060030154600160a060020a031690565b6000828152608660205260408120548190819081908690600160a060020a031615156200130257fe5b6084543a11156200130f57fe5b600087815260866020526040812060030154600160a060020a0316945086118015620013cc5750604080517f70a0823100000000000000000000000000000000000000000000000000000000815233600482015290518791600160a060020a038716916370a08231916024808201926020929091908290030181600087803b1580156200139b57600080fd5b505af1158015620013b0573d6000803e3d6000fd5b505050506040513d6020811015620013c757600080fd5b505110155b151562001449576040805160e560020a62461bcd02815260206004820152602160248201527f6d73672e73656e64657220686173206e6f20656e6f7567682062616c616e636560448201527f2e00000000000000000000000000000000000000000000000000000000000000606482015290519081900360840190fd5b60866000886000191660001916815260200190815260200160002060020154925062001501608354620014f4620014bb60835488600160a060020a03166318160ddd6040518163ffffffff1660e060020a028152600401602060405180830381600087803b1580156200051957600080fd5b608354620014d190889063ffffffff6200192e16565b60855460835463ffffffff91821691620014ee918e916200192e16565b62000972565b9063ffffffff6200196d16565b608254604080517f70a0823100000000000000000000000000000000000000000000000000000000815230600482015290519294508492600160a060020a03909216916370a08231916024808201926020929091908290030181600087803b1580156200156d57600080fd5b505af115801562001582573d6000803e3d6000fd5b505050506040513d60208110156200159957600080fd5b5051101562001618576040805160e560020a62461bcd02815260206004820152602b60248201527f636f6e747261637420686173206e6f20656e6f756768204f6365616e20746f6b60448201527f656e2062616c616e63652e000000000000000000000000000000000000000000606482015290519081900360840190fd5b604080517f79cc6790000000000000000000000000000000000000000000000000000000008152336004820152602481018890529051600160a060020a038616916379cc679091604480830192600092919082900301818387803b1580156200168057600080fd5b505af115801562001695573d6000803e3d6000fd5b5050608254604080517fa9059cbb000000000000000000000000000000000000000000000000000000008152336004820152602481018790529051600160a060020a03909216935063a9059cbb92506044808201926020929091908290030181600087803b1580156200170757600080fd5b505af11580156200171c573d6000803e3d6000fd5b505050506040513d60208110156200173357600080fd5b505115156200174157600080fd5b600087815260866020908152604080832033845260040190915290205462001770908363ffffffff62001a9a16565b600088815260866020818152604080842033855260048101835290842094909455918a9052905260020154620017ad908363ffffffff62001a9a16565b600088815260866020908152604091829020600201929092558051848152918201889052805133927fcc5f8c31af47400d449e9de2f0067d8a8888cc530939fd8e6232de185941aa2892908290030190a25060019695505050505050565b6200181562000cb9565b15156200182157600080fd5b600081116200182f57600080fd5b608455565b608254600160a060020a031681565b60003315156200185257600080fd5b608254604080517fa9059cbb000000000000000000000000000000000000000000000000000000008152336004820152602481018590529051600160a060020a039092169163a9059cbb916044808201926020929091908290030181600087803b158015620018c057600080fd5b505af1158015620018d5573d6000803e3d6000fd5b505050506040513d6020811015620018ec57600080fd5b50511515620018fa57600080fd5b5090565b6200190862000cb9565b15156200191457600080fd5b6200191f8162001ab2565b50565b60835481565b60845481565b6000808083116200193e57600080fd5b82848115156200194a57fe5b04949350505050565b6000828201838110156200196657600080fd5b9392505050565b6000808315156200198257600091506200096b565b508282028284828115156200199357fe5b04146200196657600080fd5b600080808080807002000000000000000000000000000000008a10620019c457600080fd5b88607f60020a8b02811515620019d657fe5b04925070015bf0a8b1457695355fb8ac404e7a79e383101562001a0657620019fe8362001b31565b935062001a14565b62001a118362001f5e565b93505b8663ffffffff168863ffffffff16850281151562001a2e57fe5b04915070080000000000000000000000000000000082101562001a625762001a568262002038565b607f9550955062001a8d565b62001a6d826200245b565b905062001a8760ff607f8390031660020a830482620024f3565b81955095505b5050505094509492505050565b6000808383111562001aab57600080fd5b5050900390565b600160a060020a038116151562001ac857600080fd5b608154604051600160a060020a038084169216907f8be0079c531659141344cd1fd0a4f28419497f9722a3daafe3b4186f6b6457e090600090a36081805473ffffffffffffffffffffffffffffffffffffffff1916600160a060020a0392909216919091179055565b6000808080806fd3094c70f034de4b96ff7d5b6f99fcd8861062001b81576f4000000000000000000000000000000093909301926fd3094c70f034de4b96ff7d5b6f99fcd8607f60020a87020495505b6fa45af1e1f40c333b3de1db4dd55f29a7861062001bcb576f2000000000000000000000000000000093909301926fa45af1e1f40c333b3de1db4dd55f29a7607f60020a87020495505b6f910b022db7ae67ce76b441c27035c6a1861062001c15576f1000000000000000000000000000000093909301926f910b022db7ae67ce76b441c27035c6a1607f60020a87020495505b6f88415abbe9a76bead8d00cf112e4d4a8861062001c5f576f0800000000000000000000000000000093909301926f88415abbe9a76bead8d00cf112e4d4a8607f60020a87020495505b6f84102b00893f64c705e841d5d4064bd3861062001ca9576f0400000000000000000000000000000093909301926f84102b00893f64c705e841d5d4064bd3607f60020a87020495505b6f8204055aaef1c8bd5c3259f4822735a2861062001cf3576f0200000000000000000000000000000093909301926f8204055aaef1c8bd5c3259f4822735a2607f60020a87020495505b6f810100ab00222d861931c15e39b44e99861062001d3d576f0100000000000000000000000000000093909301926f810100ab00222d861931c15e39b44e99607f60020a87020495505b6f808040155aabbbe9451521693554f733861062001d86576e80000000000000000000000000000093909301926f808040155aabbbe9451521693554f733607f60020a87020495505b6f7fffffffffffffffffffffffffffffff1986019250829150607f60020a8280020490507001000000000000000000000000000000008381038302049390930192607f60020a8282020491507002000000000000000000000000000000006faaaaaaaaaaaaaaaaaaaaaaaaaaaaaaaa8490038302049390930192607f60020a8282020491507003000000000000000000000000000000006f999999999999999999999999999999998490038302049390930192607f60020a8282020491507004000000000000000000000000000000006f924924924924924924924924924924928490038302049390930192607f60020a8282020491507005000000000000000000000000000000006f8e38e38e38e38e38e38e38e38e38e38e8490038302049390930192607f60020a8282020491507006000000000000000000000000000000006f8ba2e8ba2e8ba2e8ba2e8ba2e8ba2e8b8490038302049390930192607f60020a8282020491507007000000000000000000000000000000006f89d89d89d89d89d89d89d89d89d89d898490038302049390930192607f60020a8282020491507008000000000000000000000000000000006f888888888888888888888888888888888490038302049390930195945050505050565b6000808080700100000000000000000000000000000000851062001fa55762001f8d607f60020a860462002917565b60ff8116600281900a90960495607f60020a02935091505b607f60020a851115620020085750607f5b60008160ff1611156200200857607f60020a858002049450700100000000000000000000000000000000851062001ffe576002948590049460ff600019830116900a92909201915b6000190162001fb6565b6f05b9de1d10bf4103d647b0955897ba806f03f80fe03f80fe03f80fe03f80fe03f884020493505b505050919050565b6000670168244fdac78000607f60020a6f0fffffffffffffffffffffffffffffff84168080028290048082028390048083028490049485026710e1b3be415a00009092026705a0913f6b1e000091909102010192909181830204905080664807432bc180000283019250607f60020a828202811515620020b457fe5b04905080660c0135dca040000283019250607f60020a828202811515620020d757fe5b049050806601b707b1cdc0000283019250607f60020a828202811515620020fa57fe5b049050806536e0f639b8000283019250607f60020a8282028115156200211c57fe5b04905080650618fee9f8000283019250607f60020a8282028115156200213e57fe5b04905080649c197dcc000283019250607f60020a8282028115156200215f57fe5b04905080640e30dce4000283019250607f60020a8282028115156200218057fe5b0490508064012ebd13000283019250607f60020a828202811515620021a157fe5b049050806317499f000283019250607f60020a828202811515620021c157fe5b049050806301a9d4800283019250607f60020a828202811515620021e157fe5b04905080621c63800283019250607f60020a8282028115156200220057fe5b049050806201c6380283019250607f60020a8282028115156200221f57fe5b04905080611ab80283019250607f60020a8282028115156200223d57fe5b0490508061017c0283019250607f60020a8282028115156200225b57fe5b0490508060140283019250607f60020a8282028115156200227857fe5b6721c3677c82b40000919004938401048201607f60020a019290506f10000000000000000000000000000000851615620022d65770018ebef9eac820ae8682b9793ac6d1e7767001c3d6a24ed82218787d624d3e5eba95f984020492505b6f2000000000000000000000000000000085161562002319577001368b2fc6f9609fe7aceb46aa619baed470018ebef9eac820ae8682b9793ac6d1e77884020492505b6f400000000000000000000000000000008516156200235b576fbc5ab1b16779be3575bd8f0520a9f21f7001368b2fc6f9609fe7aceb46aa619baed584020492505b607f60020a85161562002390576f454aaa8efe072e7f6ddbab84b40a55c96fbc5ab1b16779be3575bd8f0520a9f21e84020492505b700100000000000000000000000000000000851615620023d2576f0960aadc109e7a3bf4578099615711ea6f454aaa8efe072e7f6ddbab84b40a55c584020492505b70020000000000000000000000000000000085161562002413576e2bf84208204f5977f9a8cf01fdce3d6f0960aadc109e7a3bf4578099615711d784020492505b70040000000000000000000000000000000085161562002452576d03c6ab775dd0b95b4cbee7e65d116e2bf84208204f5977f9a8cf01fdc30784020492505b50909392505050565b60006020607f825b8160ff168360010160ff161015620024ad57600260ff8484011604905084600160ff8316608081106200249257fe5b015410620024a357809250620024a7565b8091505b62002463565b84600160ff841660808110620024bf57fe5b015410620024d05781935062002030565b84600160ff851660808110620024e257fe5b015410620000f55782935062002030565b6000806000849150600090508360ff168583029060020a90049150816f03442c4e6074a82f1797f72ac000000002810190508360ff168583029060020a90049150816f0116b96f757c380fb287fd0e4000000002810190508360ff168583029060020a90049150816e45ae5bdd5f0e03eca1ff439000000002810190508360ff168583029060020a90049150816e0defabf91302cd95b9ffda5000000002810190508360ff168583029060020a90049150816e02529ca9832b22439efff9b800000002810190508360ff168583029060020a90049150816d54f1cf12bd04e516b6da8800000002810190508360ff168583029060020a90049150816d0a9e39e257a09ca2d6db5100000002810190508360ff168583029060020a90049150816d012e066e7b839fa050c30900000002810190508360ff168583029060020a90049150816c1e33d7d926c329a1ad1a80000002810190508360ff168583029060020a90049150816c02bee513bdb4a6b19b5f80000002810190508360ff168583029060020a90049150816b3a9316fa79b88eccf2a0000002810190508360ff168583029060020a90049150816b048177ebe1fa81237520000002810190508360ff168583029060020a90049150816a5263fe90242dcbacf0000002810190508360ff168583029060020a90049150816a057e22099c030d9410000002810190508360ff168583029060020a90049150816957e22099c030d941000002810190508360ff168583029060020a900491508169052b6b5456997631000002810190508360ff168583029060020a9004915081684985f67696bf74800002810190508360ff168583029060020a90049150816803dea12ea99e49800002810190508360ff168583029060020a90049150816731880f2214b6e00002810190508360ff168583029060020a900491508167025bcff56eb3600002810190508360ff168583029060020a9004915081661b722e10ab100002810190508360ff168583029060020a90049150816601317c7007700002810190508360ff168583029060020a9004915081650cba84aafa0002810190508360ff168583029060020a90049150816482573a0a0002810190508360ff168583029060020a90049150816405035ad90002810190508360ff168583029060020a9004915081632f881b0002810190508360ff168583029060020a90049150816301b2934002810190508360ff168583029060020a9004915081620efc4002810190508360ff168583029060020a9004915081617fe002810190508360ff168583029060020a900491508161042002810190508360ff168583029060020a9004915081602102810190508360ff168583029060020a9004915081600102810190508360ff1660019060020a02856f0688589cc0e9505e2f2fee5580000000838115156200290b57fe5b04010195945050505050565b600080806101008410156200294a575b600184111562002944576002909304926001919091019062002927565b6200096b565b5060805b60008160ff1611156200096b5760ff811660020a8410620029795760ff811660020a90930492908117905b600260ff909116046200294e565b604051610ba58062002999833901905600608060405234801561001057600080fd5b50604051610ba5380380610ba58339810160405280516020808301519183018051909392909201916100489160039190850190610071565b50805161005c906004906020840190610071565b50506005805460ff191660121790555061010c565b828054600181600116156101000203166002900490600052602060002090601f016020900481019282601f106100b257805160ff19168380011785556100df565b828001600101855582156100df579182015b828111156100df5782518255916020019190600101906100c4565b506100eb9291506100ef565b5090565b61010991905b808211156100eb57600081556001016100f5565b90565b610a8a8061011b6000396000f3006080604052600436106100b95763ffffffff7c0100000000000000000000000000000000000000000000000000000000600035041663095ea7b381146100be57806311cee7e3146100f657806318160ddd1461011957806323b872dd14610140578063395093511461016a57806340c10f191461018e57806342966c68146101b257806370a08231146101ca57806379cc6790146101eb578063a457c2d71461020f578063a9059cbb14610233578063dd62ed3e14610257575b600080fd5b3480156100ca57600080fd5b506100e2600160a060020a036004351660243561027e565b604080519115158252519081900360200190f35b34801561010257600080fd5b50610117600160a060020a03600435166102ea565b005b34801561012557600080fd5b5061012e610470565b60408051918252519081900360200190f35b34801561014c57600080fd5b506100e2600160a060020a0360043581169060243516604435610476565b34801561017657600080fd5b506100e2600160a060020a036004351660243561052d565b34801561019a57600080fd5b506100e2600160a060020a03600435166024356105cb565b3480156101be57600080fd5b50610117600435610612565b3480156101d657600080fd5b5061012e600160a060020a0360043516610650565b3480156101f757600080fd5b50610117600160a060020a036004351660243561066b565b34801561021b57600080fd5b506100e2600160a060020a03600435166024356106aa565b34801561023f57600080fd5b506100e2600160a060020a03600435166024356106f5565b34801561026357600080fd5b5061012e600160a060020a036004358116906024351661070b565b6000600160a060020a038316151561029557600080fd5b336000818152600160209081526040808320600160a060020a0388168085529083529281902086905580518681529051929392600080516020610a3f833981519152929181900390910190a350600192915050565b6005546101009004600160a060020a03161561038d57604080517f08c379a000000000000000000000000000000000000000000000000000000000815260206004820152603360248201527f626f6e64696e67437572766520636f6e7472616374206164647265737320686160448201527f73206265656e20696e697469616c697a65642e00000000000000000000000000606482015290519081900360840190fd5b600160a060020a038116158015906103a957506103a981610736565b151561043b57604080517f08c379a0000000000000000000000000000000000000000000000000000000008152602060048201526024808201527f626f6e64696e67436f6e74726163742061646472657373206973206e6f74207660448201527f616c696400000000000000000000000000000000000000000000000000000000606482015290519081900360840190fd5b60058054600160a060020a039092166101000274ffffffffffffffffffffffffffffffffffffffff0019909216919091179055565b60025490565b600160a060020a03831660009081526001602090815260408083203384529091528120546104aa908363ffffffff61073e16565b600160a060020a03851660009081526001602090815260408083203384529091529020556104d9848484610755565b600160a060020a038416600081815260016020908152604080832033808552908352928190205481519081529051929392600080516020610a3f833981519152929181900390910190a35060019392505050565b6000600160a060020a038316151561054457600080fd5b336000908152600160209081526040808320600160a060020a0387168452909152902054610578908363ffffffff61082216565b336000818152600160209081526040808320600160a060020a038916808552908352928190208590558051948552519193600080516020610a3f833981519152929081900390910190a350600192915050565b60055460009033906101009004600160a060020a0316811480156105f357506105f381610736565b15156105fe57600080fd5b610608848461083b565b5060019392505050565b60055433906101009004600160a060020a031681148015610637575061063781610736565b151561064257600080fd5b61064c33836108e5565b5050565b600160a060020a031660009081526020819052604090205490565b60055433906101009004600160a060020a031681148015610690575061069081610736565b151561069b57600080fd5b6106a5838361098e565b505050565b6000600160a060020a03831615156106c157600080fd5b336000908152600160209081526040808320600160a060020a0387168452909152902054610578908363ffffffff61073e16565b6000610702338484610755565b50600192915050565b600160a060020a03918216600090815260016020908152604080832093909416825291909152205490565b6000903b1190565b6000808383111561074e57600080fd5b5050900390565b600160a060020a038216151561076a57600080fd5b600160a060020a038316600090815260208190526040902054610793908263ffffffff61073e16565b600160a060020a0380851660009081526020819052604080822093909355908416815220546107c8908263ffffffff61082216565b600160a060020a038084166000818152602081815260409182902094909455805185815290519193928716927fddf252ad1be2c89b69c2b068fc378daa952ba7f163c4a11628f55a4df523b3ef92918290030190a3505050565b60008282018381101561083457600080fd5b9392505050565b600160a060020a038216151561085057600080fd5b600254610863908263ffffffff61082216565b600255600160a060020a03821660009081526020819052604090205461088f908263ffffffff61082216565b600160a060020a0383166000818152602081815260408083209490945583518581529351929391927fddf252ad1be2c89b69c2b068fc378daa952ba7f163c4a11628f55a4df523b3ef9281900390910190a35050565b600160a060020a03821615156108fa57600080fd5b60025461090d908263ffffffff61073e16565b600255600160a060020a038216600090815260208190526040902054610939908263ffffffff61073e16565b600160a060020a038316600081815260208181526040808320949094558351858152935191937fddf252ad1be2c89b69c2b068fc378daa952ba7f163c4a11628f55a4df523b3ef929081900390910190a35050565b600160a060020a03821660009081526001602090815260408083203384529091529020546109c2908263ffffffff61073e16565b600160a060020a03831660009081526001602090815260408083203384529091529020556109f082826108e5565b600160a060020a038216600081815260016020908152604080832033808552908352928190205481519081529051929392600080516020610a3f833981519152929181900390910190a3505056008c5be1e5ebec7d5bd14f71427d1e84f3dd0314c0f7b2291e5b200ac8c7c3b925a165627a7a72305820b010741336c7baf13260192d81c0bd7a98fda8f84a82c6bca3d4544c4452179e0029a165627a7a723058208becefed4aae7b4e9605acd5d6951baba207feaf1ea3e65b4e3e0b228be105fa0029",
  "source": "pragma solidity 0.4.25;\n\nimport '../library/Ownable.sol';\nimport \"./BancorFormula.sol\";\nimport '../token/OceanToken.sol';\n\n/**\n * @title Ocean Bonding Curve\n * @dev Ocean token holders can stake on assets through bonding curves and get bonded tokens.\n */\n\ncontract OceanBondingCurve is BancorFormula, Ownable {\n\n    using SafeMath for uint256;\n    using SafeMath for uint;\n\n    // global variables\n    OceanToken  public  mToken;\n    uint256     public  scale;\n    uint256     public  gasPrice;               // maximum gas price for bancor transactions\n    uint32      private reserveRatio;           // determine shape of bonding curve\n\n    // bonding curve struct\n    struct bondingCurve {\n      address  creator;\n      uint256  virtualSupply;                   // initial virtual supply of bonded tokens to avoid numeric error\n      uint256  poolBalance;                     // total amount of Ocean tokens deposited to purchase bonded tokens\n      ERC20Token bondedToken;\n      mapping (address => uint256) balances;    // num of ocean tokens for each token holder\n    }\n    // lookup table from DID to corresponding bondingCurve struct\n    mapping(bytes32 => bondingCurve) did2BondingCurve;\n    mapping (string => bool) nameExist;\n    mapping (string => bool) symbolExist;\n\n    event bondingCurveCreated(address indexed _creator, bytes32 indexed _did);\n    event buyBondedTokens(address indexed _requester, uint256 _ocn, uint256 _tokens);\n    event sellBondedTokens(address indexed _requester, uint256 _ocn, uint256 _tokens);\n\n      // verifies that the gas price is lower than the universal limit\n    modifier validGasPrice() {\n      assert(tx.gasprice <= gasPrice);\n      _;\n    }\n\n    modifier validBondingCurve(bytes32 did) {\n      assert(did2BondingCurve[did].creator != address(0));\n      _;\n    }\n\n    ///////////////////////////////////////////////////////////////////\n    //  inquery function\n    ///////////////////////////////////////////////////////////////////\n    function getTokenBalance(bytes32 did, address account) validBondingCurve(did) public view returns (uint256 balance) {\n        return did2BondingCurve[did].bondedToken.balanceOf(account);\n    }\n\n    function getTokenAddress(bytes32 did) validBondingCurve(did) public view returns (address) {\n        return address(did2BondingCurve[did].bondedToken);\n    }\n\n    ///////////////////////////////////////////////////////////////////\n    //  initialize function\n    ///////////////////////////////////////////////////////////////////\n    constructor(address _tokenAddress) public {\n        require(_tokenAddress != address(0x0), 'Token address is 0x0.');\n        // instantiate Ocean token contract\n        mToken = OceanToken(_tokenAddress);\n        // initialize variables\n        scale = 10 ** 18;\n        reserveRatio = 900000;  // MAX_WEIGHT = 1000000;\n        gasPrice = 0 wei;\n    }\n\n    // Testing: request initial fund transfer\n    function requestTokens(uint256 amount) public returns (uint256) {\n        require(msg.sender != 0x0);\n        require(mToken.transfer(msg.sender, amount));\n        return amount;\n    }\n\n    // create new Bonding Curve\n    function createBondingCurve(bytes32 did, string name, string symbol) public returns (bool success) {\n        // prevent multiple bonding curves for the same asset\n        require(did2BondingCurve[did].creator == address(0), 'there must be only one BC per did');\n        require(nameExist[name] == false && symbolExist[symbol] == false, 'name or symbol already exists.');\n        require(did != 0x0, 'did is not valid');\n\n        // create bonded token\n        ERC20Token _token = new ERC20Token(name, symbol);\n        // set caller to be bondingCurve contract only!\n        _token.setCallerContract(address(this));\n\n        // create bonding curve\n        did2BondingCurve[did] = bondingCurve({\n          creator: msg.sender,\n          virtualSupply: 10 * scale,\n          poolBalance: 1 * scale,\n          bondedToken: _token\n        });\n\n        // mint virtual supply tokens\n        _token.mint(address(this), did2BondingCurve[did].virtualSupply);\n\n        // emit message\n        emit bondingCurveCreated(msg.sender, did);\n\n        // update mapping\n        nameExist[name] = true;\n        symbolExist[symbol] = true;\n        return true;\n    }\n\n    ///////////////////////////////////////////////////////////////////\n    // Bonding Curve Module\n    ///////////////////////////////////////////////////////////////////\n    /**\n     * @dev Buy tokens\n     */\n    function buy(bytes32 did, uint256 ocn) validBondingCurve(did) validGasPrice() public returns(bool success) {\n        ERC20Token _token = did2BondingCurve[did].bondedToken;\n        uint256 poolBalance = did2BondingCurve[did].poolBalance;\n\n        // calculate the amount bonded tokens to be minted:\n        uint256 tokensToMint = calculatePurchaseReturn(_token.totalSupply().div(scale), poolBalance.div(scale),reserveRatio, ocn.div(scale));\n\n        // transfer Ocean tokens into contract for purchase\n        require(mToken.transferFrom(msg.sender, address(this), ocn));\n        did2BondingCurve[did].balances[msg.sender] = did2BondingCurve[did].balances[msg.sender].add(ocn);\n        did2BondingCurve[did].poolBalance = did2BondingCurve[did].poolBalance.add(ocn);\n\n        // mint new bonded tokens\n        _token.mint(msg.sender, tokensToMint.mul(scale));\n\n        emit buyBondedTokens(msg.sender, ocn, tokensToMint);\n        return true;\n    }\n\n    /**\n     * @dev Sell tokens\n     * @param sellAmount Amount of tokens to withdraw\n     */\n    function sell(bytes32 did, uint256 sellAmount) validBondingCurve(did) validGasPrice() public returns(bool success) {\n        ERC20Token _token = did2BondingCurve[did].bondedToken;\n        require(sellAmount > 0 && _token.balanceOf(msg.sender) >= sellAmount, 'msg.sender has no enough balance.');\n\n        // calculate amount of Ocean tokens to withdraw\n        uint256 poolBalance = did2BondingCurve[did].poolBalance;\n        uint256 ocn = calculateSaleReturn(_token.totalSupply().div(scale), poolBalance.div(scale), reserveRatio, sellAmount.div(scale)).mul(scale);\n        require(mToken.balanceOf(address(this)) >= ocn, 'contract has no enough Ocean token balance.');\n\n        // burn bonded tokens\n        _token.burnFrom(msg.sender, sellAmount);\n\n        // release Ocean tokens\n        require(mToken.transfer(msg.sender, ocn));\n        did2BondingCurve[did].balances[msg.sender] = did2BondingCurve[did].balances[msg.sender].sub(ocn);\n        did2BondingCurve[did].poolBalance = did2BondingCurve[did].poolBalance.sub(ocn);\n\n        emit sellBondedTokens(msg.sender, ocn, sellAmount);\n        return true;\n    }\n\n    /**\n      @dev Allows the owner to update the gas price limit\n      @param _gasPrice The new gas price limit\n    */\n    function setGasPrice(uint256 _gasPrice) onlyOwner public {\n      require(_gasPrice > 0);\n      gasPrice = _gasPrice;\n    }\n\n}\n\n\ncontract ERC20Token is ERC20 {\n\n    string  private _name;\n    string  private _symbol;\n    uint8   private _decimals;\n    address private _callerContract;\n\n    modifier validCaller(address _addr) {\n        require(_addr == _callerContract && isContract(_addr));\n        _;\n    }\n\n    constructor (string name, string symbol) public {\n        _name = name;\n        _symbol = symbol;\n        _decimals = 18;\n    }\n\n    function setCallerContract(address bondingContract) public {\n        require(_callerContract == address(0), 'bondingCurve contract address has been initialized.');\n        require(bondingContract != address(0) && isContract(bondingContract), 'bondingContract address is not valid');\n        _callerContract = bondingContract;\n    }\n\n    function isContract(address _addr) private view returns (bool) {\n        uint length;\n        assembly { length := extcodesize(_addr) }\n        return length > 0;\n    }\n    /**\n     * @dev Function to mint tokens\n     * @param to The address that will receive the minted tokens.\n     * @param value The amount of tokens to mint.\n     * @return A boolean that indicates if the operation was successful.\n     */\n    function mint(address to, uint256 value) public validCaller(msg.sender) returns (bool) {\n        _mint(to, value);\n        return true;\n    }\n\n    /**\n     * @dev Burns a specific amount of tokens.\n     * @param value The amount of token to be burned.\n     */\n    function burn(uint256 value) public validCaller(msg.sender) {\n        _burn(msg.sender, value);\n    }\n\n    /**\n     * @dev Burns a specific amount of tokens from the target address and decrements allowance\n     * @param from address The address which you want to send tokens from\n     * @param value uint256 The amount of token to be burned\n     */\n    function burnFrom(address from, uint256 value) public validCaller(msg.sender) {\n        _burnFrom(from, value);\n    }\n\n}\n",
  "sourcePath": "/Users/fancy/Documents/Ocean Protocol/research/16-research-repo/research/2-signaling-mechanism/1-bonding-curve/contracts/bonding/OceanBondingCurve.sol",
  "compiler": {
    "name": "solc",
    "version": "0.4.25+commit.59dbf8f1.Emscripten.clang"
  },
  "schemaVersion": "3.0.1",
  "updatedAt": "2019-02-09T00:07:58.659Z",
  "devdoc": {
    "methods": {
      "buy(bytes32,uint256)": {
        "details": "Buy tokens"
      },
      "calculateCrossConnectorReturn(uint256,uint32,uint256,uint32,uint256)": {
        "details": "given two connector balances/weights and a sell amount (in the first connector token), calculates the return for a conversion from the first connector token to the second connector token (in the second connector token) Formula: Return = _toConnectorBalance * (1 - (_fromConnectorBalance / (_fromConnectorBalance + _amount)) ^ (_fromConnectorWeight / _toConnectorWeight))",
        "params": {
          "_amount": "input connector amount",
          "_fromConnectorBalance": "input connector balance",
          "_fromConnectorWeight": "input connector weight, represented in ppm, 1-1000000",
          "_toConnectorBalance": "output connector balance",
          "_toConnectorWeight": "output connector weight, represented in ppm, 1-1000000"
        },
        "return": "second connector amount"
      },
      "calculatePurchaseReturn(uint256,uint256,uint32,uint256)": {
        "details": "given a token supply, connector balance, weight and a deposit amount (in the connector token), calculates the return for a given conversion (in the main token) Formula: Return = _supply * ((1 + _depositAmount / _connectorBalance) ^ (_connectorWeight / 1000000) - 1)",
        "params": {
          "_connectorBalance": "total connector balance",
          "_connectorWeight": "connector weight, represented in ppm, 1-1000000",
          "_depositAmount": "deposit amount, in connector token",
          "_supply": "token total supply"
        },
        "return": "purchase return amount"
      },
      "calculateSaleReturn(uint256,uint256,uint32,uint256)": {
        "details": "given a token supply, connector balance, weight and a sell amount (in the main token), calculates the return for a given conversion (in the connector token) Formula: Return = _connectorBalance * (1 - (1 - _sellAmount / _supply) ^ (1 / (_connectorWeight / 1000000)))",
        "params": {
          "_connectorBalance": "total connector",
          "_connectorWeight": "constant connector Weight, represented in ppm, 1-1000000",
          "_sellAmount": "sell amount, in the token itself",
          "_supply": "token total supply"
        },
        "return": "sale return amount"
      },
      "isOwner()": {
        "return": "true if `msg.sender` is the owner of the contract."
      },
      "owner()": {
        "return": "the address of the owner."
      },
      "renounceOwnership()": {
        "details": "Allows the current owner to relinquish control of the contract."
      },
      "sell(bytes32,uint256)": {
        "details": "Sell tokens",
        "params": {
          "sellAmount": "Amount of tokens to withdraw"
        }
      },
      "setGasPrice(uint256)": {
        "details": "Allows the owner to update the gas price limit",
        "params": {
          "_gasPrice": "The new gas price limit"
        }
      },
      "transferOwnership(address)": {
        "details": "Allows the current owner to transfer control of the contract to a newOwner.",
        "params": {
          "newOwner": "The address to transfer ownership to."
        }
      }
    },
    "title": "Ocean Bonding Curve"
  },
  "userdoc": {
    "methods": {
      "getTokenBalance(bytes32,address)": {
        "notice": "////////////////////////////////////////////////////////////////"
      },
      "renounceOwnership()": {
        "notice": "Renouncing to ownership will leave the contract without an owner. It will not be possible to call the functions with the `onlyOwner` modifier anymore."
      }
    }
  }
}