{
  "contractName": "HashSig",
  "abi": [
    {
      "inputs": [],
      "payable": false,
      "stateMutability": "nonpayable",
      "type": "constructor",
      "signature": "constructor"
    },
    {
      "constant": false,
      "inputs": [
        {
          "name": "_name",
          "type": "bytes32"
        },
        {
          "name": "_hash",
          "type": "bytes32"
        }
      ],
      "name": "addSig",
      "outputs": [
        {
          "name": "",
          "type": "bool"
        }
      ],
      "payable": false,
      "stateMutability": "nonpayable",
      "type": "function",
      "signature": "0xfa3d1325"
    },
    {
      "constant": true,
      "inputs": [
        {
          "name": "_name",
          "type": "bytes32"
        }
      ],
      "name": "getSig",
      "outputs": [
        {
          "name": "",
          "type": "bytes32"
        }
      ],
      "payable": false,
      "stateMutability": "view",
      "type": "function",
      "signature": "0x893182ff"
    }
  ],
  "bytecode": "0x608060405234801561001057600080fd5b50610126806100206000396000f3fe6080604052348015600f57600080fd5b5060043610604e577c01000000000000000000000000000000000000000000000000000000006000350463893182ff81146053578063fa3d132514607f575b600080fd5b606d60048036036020811015606757600080fd5b503560b3565b60408051918252519081900360200190f35b609f60048036036040811015609357600080fd5b508035906020013560c5565b604080519115158252519081900360200190f35b60009081526020819052604090205490565b6000828152602081905260408120541560df5750600060f4565b50600082815260208190526040902081905560015b9291505056fea165627a7a723058204345cc95e4a1e9e672e137ee32fd63f54c515b6b4248a6f53d5d77eb9a60bec70029",
  "source": "pragma solidity 0.5.3;\n\ncontract HashSig {\n\n  mapping (bytes32 => bytes32) signatures;\n\n  constructor() public {\n  }\n\n  function addSig(bytes32 _name, bytes32 _hash) public returns (bool) {\n    if(signatures[_name] != 0x0) return false;\n    signatures[_name] = _hash;\n    return true;\n  }\n\n  function getSig(bytes32 _name) public view returns (bytes32) {\n    return signatures[_name];\n  }\n\n}\n",
  "sourcePath": "/Users/fancy/Documents/Ocean Protocol/research/16-research-repo/research/14-proof-of-execution/hash_sig/contracts/HashSig.sol",
  "compiler": {
    "name": "solc",
    "version": "0.5.3+commit.10d17f24.Emscripten.clang"
  },
  "schemaVersion": "3.0.1",
  "updatedAt": "2019-06-28T20:30:45.792Z",
  "devdoc": {
    "methods": {}
  },
  "userdoc": {
    "methods": {}
  }
}