{
  "contractName": "DataManager",
  "abi": [
    {
      "inputs": [],
      "payable": false,
      "stateMutability": "nonpayable",
      "type": "constructor"
    },
    {
      "anonymous": false,
      "inputs": [
        {
          "indexed": true,
          "name": "_owner",
          "type": "address"
        },
        {
          "indexed": true,
          "name": "_did",
          "type": "bytes32"
        },
        {
          "indexed": true,
          "name": "_tokenId",
          "type": "uint256"
        }
      ],
      "name": "nftMinted",
      "type": "event"
    },
    {
      "anonymous": false,
      "inputs": [
        {
          "indexed": true,
          "name": "_owner",
          "type": "address"
        },
        {
          "indexed": true,
          "name": "_did",
          "type": "bytes32"
        },
        {
          "indexed": true,
          "name": "_tokenId",
          "type": "uint256"
        }
      ],
      "name": "nftBurnt",
      "type": "event"
    },
    {
      "anonymous": false,
      "inputs": [
        {
          "indexed": true,
          "name": "_owner",
          "type": "address"
        },
        {
          "indexed": true,
          "name": "_did",
          "type": "bytes32"
        },
        {
          "indexed": true,
          "name": "_erc20Token",
          "type": "address"
        }
      ],
      "name": "erc20Created",
      "type": "event"
    },
    {
      "anonymous": false,
      "inputs": [
        {
          "indexed": true,
          "name": "_owner",
          "type": "address"
        },
        {
          "indexed": true,
          "name": "_did",
          "type": "bytes32"
        },
        {
          "indexed": true,
          "name": "_amount",
          "type": "uint256"
        }
      ],
      "name": "erc20Minted",
      "type": "event"
    },
    {
      "anonymous": false,
      "inputs": [
        {
          "indexed": true,
          "name": "_owner",
          "type": "address"
        },
        {
          "indexed": true,
          "name": "_did",
          "type": "bytes32"
        },
        {
          "indexed": true,
          "name": "_amount",
          "type": "uint256"
        }
      ],
      "name": "erc20Burnt",
      "type": "event"
    },
    {
      "constant": false,
      "inputs": [
        {
          "name": "_did",
          "type": "bytes32"
        },
        {
          "name": "_name",
          "type": "string"
        },
        {
          "name": "_symbol",
          "type": "string"
        }
      ],
      "name": "mintNFT",
      "outputs": [
        {
          "name": "",
          "type": "bool"
        }
      ],
      "payable": false,
      "stateMutability": "nonpayable",
      "type": "function"
    },
    {
      "constant": false,
      "inputs": [
        {
          "name": "_did",
          "type": "bytes32"
        }
      ],
      "name": "burnNFT",
      "outputs": [
        {
          "name": "",
          "type": "bool"
        }
      ],
      "payable": false,
      "stateMutability": "nonpayable",
      "type": "function"
    },
    {
      "constant": false,
      "inputs": [
        {
          "name": "_did",
          "type": "bytes32"
        },
        {
          "name": "_name",
          "type": "string"
        },
        {
          "name": "_symbol",
          "type": "string"
        },
        {
          "name": "_price",
          "type": "uint256"
        }
      ],
      "name": "createERC20",
      "outputs": [
        {
          "name": "",
          "type": "bool"
        }
      ],
      "payable": false,
      "stateMutability": "nonpayable",
      "type": "function"
    },
    {
      "constant": false,
      "inputs": [
        {
          "name": "_did",
          "type": "bytes32"
        }
      ],
      "name": "mintERC20",
      "outputs": [
        {
          "name": "",
          "type": "bool"
        }
      ],
      "payable": true,
      "stateMutability": "payable",
      "type": "function"
    },
    {
      "constant": false,
      "inputs": [
        {
          "name": "_did",
          "type": "bytes32"
        },
        {
          "name": "_amount",
          "type": "uint256"
        }
      ],
      "name": "burnERC20",
      "outputs": [
        {
          "name": "",
          "type": "bool"
        }
      ],
      "payable": false,
      "stateMutability": "nonpayable",
      "type": "function"
    },
    {
      "constant": true,
      "inputs": [
        {
          "name": "_did",
          "type": "bytes32"
        }
      ],
      "name": "getNFTaddress",
      "outputs": [
        {
          "name": "",
          "type": "address"
        }
      ],
      "payable": false,
      "stateMutability": "view",
      "type": "function"
    },
    {
      "constant": true,
      "inputs": [
        {
          "name": "_did",
          "type": "bytes32"
        }
      ],
      "name": "getERC20address",
      "outputs": [
        {
          "name": "",
          "type": "address"
        }
      ],
      "payable": false,
      "stateMutability": "view",
      "type": "function"
    }
  ],
  "bytecode": "0x608060405234801561001057600080fd5b506000805560405161002190610080565b60408082526000818301819052608060208401819052830181905290519182900360c0019190f08015801561005a573d6000803e3d6000fd5b50600180546001600160a01b0319166001600160a01b039290921691909117905561008e565b610fbe806200490e83390190565b614870806200009e6000396000f3fe6080604052600436106200007a5760003560e01c80635de053e111620000555780635de053e1146200012b5780638c7b79f21462000159578063b5b026be14620002a0578063e2dfc47f14620002d4576200007a565b80634b018ea1146200007f578063561afa1414620000c15780635965bc6c146200010b575b600080fd5b3480156200008c57600080fd5b50620000ad60048036036020811015620000a557600080fd5b50356200041d565b604080519115158252519081900360200190f35b348015620000ce57600080fd5b50620000ef60048036036020811015620000e757600080fd5b5035620007a1565b604080516001600160a01b039092168252519081900360200190f35b620000ad600480360360208110156200012357600080fd5b503562000821565b3480156200013857600080fd5b50620000ef600480360360208110156200015157600080fd5b5035620009aa565b3480156200016657600080fd5b50620000ad600480360360608110156200017f57600080fd5b81359190810190604081016020820135600160201b811115620001a157600080fd5b820183602082011115620001b457600080fd5b803590602001918460018302840111600160201b83111715620001d657600080fd5b91908080601f0160208091040260200160405190810160405280939291908181526020018383808284376000920191909152509295949360208101935035915050600160201b8111156200022957600080fd5b8201836020820111156200023c57600080fd5b803590602001918460018302840111600160201b831117156200025e57600080fd5b91908080601f01602080910402602001604051908101604052809392919081815260200183838082843760009201919091525092955062000aa4945050505050565b348015620002ad57600080fd5b50620000ad60048036036040811015620002c657600080fd5b5080359060200135620010b1565b348015620002e157600080fd5b50620000ad60048036036080811015620002fa57600080fd5b81359190810190604081016020820135600160201b8111156200031c57600080fd5b8201836020820111156200032f57600080fd5b803590602001918460018302840111600160201b831117156200035157600080fd5b91908080601f0160208091040260200160405190810160405280939291908181526020018383808284376000920191909152509295949360208101935035915050600160201b811115620003a457600080fd5b820183602082011115620003b757600080fd5b803590602001918460018302840111600160201b83111715620003d957600080fd5b91908080601f0160208091040260200160405190810160405280939291908181526020018383808284376000920191909152509295505091359250620012f4915050565b600081815260026020526040812054829015156200047057604051600160e51b62461bcd02815260040180806020018281038252602e81526020018062004817602e913960400191505060405180910390fd5b60008381526002602052604090205462000489620016b7565b60036000838152602001908152602001600020604051806101400160405290816000820154815260200160018201548152602001600282018054600181600116156101000203166002900480601f016020809104026020016040519081016040528092919081815260200182805460018160011615610100020316600290048015620005595780601f106200052d5761010080835404028352916020019162000559565b820191906000526020600020905b8154815290600101906020018083116200053b57829003601f168201915b505050918352505060038201805460408051602060026001851615610100026000190190941693909304601f8101849004840282018401909252818152938201939291830182828015620005f15780601f10620005c557610100808354040283529160200191620005f1565b820191906000526020600020905b815481529060010190602001808311620005d357829003601f168201915b505050918352505060048201546001600160a01b03908116602083015260058301548082166040840152600160a01b900460ff161515606083015260068301546080830152600783015460a080840191909152600890930154811660c09092019190915290820151919250163314620006b45760408051600160e51b62461bcd02815260206004820152601f60248201527f4e4654206d757374206265206275726e7420627920697473206f776e65722e00604482015290519081900360640190fd5b61010081015115620006fb57604051600160e51b62461bcd028152600401808060200182810382526041815260200180620047a76041913960600191505060405180910390fd5b608081015160408051600160e31b630852cd8d0281526004810185905290516001600160a01b038316916342966c6891602480830192600092919082900301818387803b1580156200074c57600080fd5b505af115801562000761573d6000803e3d6000fd5b50506000805460405190935089925033917f61e8eba15a37b7e0c783b547c1682ce6e5c99aebd2faa035e1c1b88c3f127f1491a450600195945050505050565b60008181526002602052604081205482901515620007f457604051600160e51b62461bcd02815260040180806020018281038252602e81526020018062004817602e913960400191505060405180910390fd5b5050600090815260026020908152604080832054835260039091529020600401546001600160a01b031690565b600081815260026020526040812054829015156200087457604051600160e51b62461bcd02815260040180806020018281038252602e81526020018062004817602e913960400191505060405180910390fd5b600083815260026020908152604080832054808452600390925282206006015490919034811515620008a257fe5b6000878152600660209081526040808320548151600160e01b6340c10f19028152336004820152959094046024860181905290519095506001600160a01b039093169384936340c10f1993604480840194938390030190829087803b1580156200090b57600080fd5b505af115801562000920573d6000803e3d6000fd5b505050506040513d60208110156200093757600080fd5b50506000838152600360205260409020600701546200095d908363ffffffff6200157616565b6000848152600360205260408082206007019290925590518391889133917fd5bac6df7d5838dc412e1b51052ecf2b471c03e26f7bd36e973d99b57e64caa091a450600195945050505050565b60008181526002602052604081205482901515620009fd57604051600160e51b62461bcd02815260040180806020018281038252602e81526020018062004817602e913960400191505060405180910390fd5b600083815260026020908152604080832054808452600390925290912060050154600160a01b900460ff16151560011462000a825760408051600160e51b62461bcd02815260206004820152601b60248201527f455243323020746f6b656e20646f6573206e6f742065786973742e0000000000604482015290519081900360640190fd5b6000908152600360205260409020600801546001600160a01b03169392505050565b6000838152600260205260408120541562000af457604051600160e51b62461bcd028152600401808060200182810382526026815260200180620047816026913960400191505060405180910390fd5b82511580159062000b6857506004836040518082805190602001908083835b6020831062000b345780518252601f19909201916020918201910162000b13565b51815160209384036101000a600019018019909216911617905292019485525060405193849003019092205460ff16159150505b151562000bbf5760408051600160e51b62461bcd02815260206004820152601e60248201527f6e616d652063616e6e6f7420626520656d707479206f722065786973742e0000604482015290519081900360640190fd5b81511580159062000c3357506005826040518082805190602001908083835b6020831062000bff5780518252601f19909201916020918201910162000bde565b51815160209384036101000a600019018019909216911617905292019485525060405193849003019092205460ff16159150505b151562000c8a5760408051600160e51b62461bcd02815260206004820181905260248201527f73796d626f6c2063616e6e6f7420626520656d707479206f722065786973742e604482015290519081900360640190fd5b60005462000ca090600163ffffffff6200157616565b600081905550600054600260008681526020019081526020016000208190555060016004846040518082805190602001908083835b6020831062000cf65780518252601f19909201916020918201910162000cd5565b51815160209384036101000a60001901801990921691161790529201948552506040519384900381018420805460ff19169515159590951790945550508351600192600592869290918291908401908083835b6020831062000d6a5780518252601f19909201916020918201910162000d49565b51815160209384036101000a600019018019909216911617905292019485525060405193849003018320805460ff19169415159490941790935550600091508490849062000db8906200172a565b604080825283519082015282518190602080830191606084019187019080838360005b8381101562000df557818101518382015260200162000ddb565b50505050905090810190601f16801562000e235780820380516001836020036101000a031916815260200191505b50838103825284518152845160209182019186019080838360005b8381101562000e5857818101518382015260200162000e3e565b50505050905090810190601f16801562000e865780820380516001836020036101000a031916815260200191505b50945050505050604051809103906000f08015801562000eaa573d6000803e3d6000fd5b509050806001600160a01b03166340c10f19336000546040518363ffffffff1660e01b815260040180836001600160a01b03166001600160a01b0316815260200182815260200192505050602060405180830381600087803b15801562000f1057600080fd5b505af115801562000f25573d6000803e3d6000fd5b505050506040513d602081101562000f3c57600080fd5b505060408051610140810182528681526000805460208381018281528486018a8152606086018a90526001600160a01b0380891660808801523360a088015260c0870186905260e08701869052610100870186905260018054909116610120880152938552600383529590932084518155925191830191909155925180519293919262000fd0926002850192019062001738565b506060820151805162000fee91600384019160209091019062001738565b5060808201516004820180546001600160a01b03199081166001600160a01b039384161790915560a084015160058401805460c087015190841692851692909217600160a01b60ff021916600160a01b9215159290920291909117905560e08401516006840155610100840151600784015561012090930151600890920180549093169116179055600080546040519091879133917f96ed77279b5514666633cf60d4df7b107cdc795a92873048d2a02a6ccbc340bb91a4506001949350505050565b600082815260026020526040812054839015156200110457604051600160e51b62461bcd02815260040180806020018281038252602e81526020018062004817602e913960400191505060405180910390fd5b60008481526002602090815260408083205460068352818420548251600160e01b6323b872dd02815233600482015230602482015260448101899052925191946001600160a01b039091169384936323b872dd9360648083019491928390030190829087803b1580156200117757600080fd5b505af11580156200118c573d6000803e3d6000fd5b505050506040513d6020811015620011a357600080fd5b50511515620011e757604051600160e51b62461bcd02815260040180806020018281038252602f815260200180620047e8602f913960400191505060405180910390fd5b806001600160a01b03166342966c68866040518263ffffffff1660e01b815260040180828152602001915050600060405180830381600087803b1580156200122e57600080fd5b505af115801562001243573d6000803e3d6000fd5b5050506000838152600360205260409020600701546200126b91508663ffffffff620015db16565b6000838152600360205260408082206007810193909355600690920154915191870291339183156108fc02918491818181858888f19350505050158015620012b7573d6000803e3d6000fd5b506040518690889033907fa2a61441cd4ae863a2487b48eccc50f9da7f783a55911b6dcb649e23400a90cf90600090a45060019695505050505050565b600084815260026020526040812054859015156200134757604051600160e51b62461bcd02815260040180806020018281038252602e81526020018062004817602e913960400191505060405180910390fd5b6000868152600260209081526040808320548084526003909252909120600501546001600160a01b03163314620013c85760408051600160e51b62461bcd02815260206004820152601f60248201527f4e4654206d757374206265206275726e7420627920697473206f776e65722e00604482015290519081900360640190fd5b60008686604051620013da90620017bd565b604080825283519082015282518190602080830191606084019187019080838360005b8381101562001417578181015183820152602001620013fd565b50505050905090810190601f168015620014455780820380516001836020036101000a031916815260200191505b50838103825284518152845160209182019186019080838360005b838110156200147a57818101518382015260200162001460565b50505050905090810190601f168015620014a85780820380516001836020036101000a031916815260200191505b50945050505050604051809103906000f080158015620014cc573d6000803e3d6000fd5b5060008381526003602081815260408084206008810180546001600160a01b0388166001600160a01b031991821681179092558f875260068086528488208054909216831790915589875294909352600581018054600160a01b60ff021916600160a01b179055929092018990559051929350918a9133917f61ac92bff51451a5492434007baf271ed1e763ee3c22e47272da14498073c5f79190a4506001979650505050505050565b600082820183811015620015d45760408051600160e51b62461bcd02815260206004820152601b60248201527f536166654d6174683a206164646974696f6e206f766572666c6f770000000000604482015290519081900360640190fd5b9392505050565b6000620015d483836040518060400160405280601e81526020017f536166654d6174683a207375627472616374696f6e206f766572666c6f77000081525060008184841115620016af57604051600160e51b62461bcd0281526004018080602001828103825283818151815260200191508051906020019080838360005b838110156200167357818101518382015260200162001659565b50505050905090810190601f168015620016a15780820380516001836020036101000a031916815260200191505b509250505060405180910390fd5b505050900390565b6040518061014001604052806000801916815260200160008152602001606081526020016060815260200160006001600160a01b0316815260200160006001600160a01b03168152602001600015158152602001600081526020016000815260200160006001600160a01b031681525090565b611fd780620017ec83390190565b828054600181600116156101000203166002900490600052602060002090601f016020900481019282601f106200177b57805160ff1916838001178555620017ab565b82800160010185558215620017ab579182015b82811115620017ab5782518255916020019190600101906200178e565b50620017b9929150620017cb565b5090565b610fbe80620037c383390190565b620017e891905b80821115620017b95760008155600101620017d2565b9056fe60806040523480156200001157600080fd5b5060405162001fd738038062001fd7833981018060405260408110156200003757600080fd5b8101908080516401000000008111156200005057600080fd5b820160208101848111156200006457600080fd5b81516401000000008111828201871017156200007f57600080fd5b505092919060200180516401000000008111156200009c57600080fd5b82016020810184811115620000b057600080fd5b8151640100000000811182820187101715620000cb57600080fd5b505092919050505081818181620000ef6301ffc9a760e01b620001cb60201b60201c565b620001076380ac58cd60e01b620001cb60201b60201c565b6200011f63780e9d6360e01b620001cb60201b60201c565b8151620001349060099060208501906200029f565b5080516200014a90600a9060208401906200029f565b5062000163635b5e139f60e01b620001cb60201b60201c565b50505050620001776200029a60201b60201c565b600c80546001600160a01b0319166001600160a01b0392831617908190556040519116906000907f8be0079c531659141344cd1fd0a4f28419497f9722a3daafe3b4186f6b6457e0908290a3505062000341565b7fffffffff0000000000000000000000000000000000000000000000000000000080821614156200025d57604080517f08c379a000000000000000000000000000000000000000000000000000000000815260206004820152601c60248201527f4552433136353a20696e76616c696420696e7465726661636520696400000000604482015290519081900360640190fd5b7fffffffff00000000000000000000000000000000000000000000000000000000166000908152602081905260409020805460ff19166001179055565b335b90565b828054600181600116156101000203166002900490600052602060002090601f016020900481019282601f10620002e257805160ff191683800117855562000312565b8280016001018555821562000312579182015b8281111562000312578251825591602001919060010190620002f5565b506200032092915062000324565b5090565b6200029c91905b808211156200032057600081556001016200032b565b611c8680620003516000396000f3fe608060405234801561001057600080fd5b50600436106101425760003560e01c80636352211e116100b857806395d89b411161007c57806395d89b41146103d9578063a22cb465146103e1578063b88d4fde1461040f578063c87b56dd146104d5578063e985e9c5146104f2578063f2fde38b1461052057610142565b80636352211e1461037e57806370a082311461039b578063715018a6146103c15780638da5cb5b146103c95780638f32d59b146103d157610142565b806323b872dd1161010a57806323b872dd146102805780632f745c59146102b657806340c10f19146102e257806342842e0e1461030e57806342966c68146103445780634f6ccce71461036157610142565b806301ffc9a71461014757806306fdde0314610182578063081812fc146101ff578063095ea7b31461023857806318160ddd14610266575b600080fd5b61016e6004803603602081101561015d57600080fd5b50356001600160e01b031916610546565b604080519115158252519081900360200190f35b61018a610565565b6040805160208082528351818301528351919283929083019185019080838360005b838110156101c45781810151838201526020016101ac565b50505050905090810190601f1680156101f15780820380516001836020036101000a031916815260200191505b509250505060405180910390f35b61021c6004803603602081101561021557600080fd5b50356105fc565b604080516001600160a01b039092168252519081900360200190f35b6102646004803603604081101561024e57600080fd5b506001600160a01b038135169060200135610663565b005b61026e61078d565b60408051918252519081900360200190f35b6102646004803603606081101561029657600080fd5b506001600160a01b03813581169160208101359091169060400135610793565b61026e600480360360408110156102cc57600080fd5b506001600160a01b0381351690602001356107f4565b61016e600480360360408110156102f857600080fd5b506001600160a01b038135169060200135610876565b6102646004803603606081101561032457600080fd5b506001600160a01b0381358116916020810135909116906040013561088b565b6102646004803603602081101561035a57600080fd5b50356108a6565b61026e6004803603602081101561037757600080fd5b50356108b2565b61021c6004803603602081101561039457600080fd5b503561091c565b61026e600480360360208110156103b157600080fd5b50356001600160a01b031661097b565b6102646109e8565b61021c610a90565b61016e610a9f565b61018a610ac5565b610264600480360360408110156103f757600080fd5b506001600160a01b0381351690602001351515610b26565b6102646004803603608081101561042557600080fd5b6001600160a01b0382358116926020810135909116916040820135919081019060808101606082013564010000000081111561046057600080fd5b82018360208201111561047257600080fd5b8035906020019184600183028401116401000000008311171561049457600080fd5b91908080601f016020809104026020016040519081016040528093929190818152602001838380828437600092019190915250929550610c28945050505050565b61018a600480360360208110156104eb57600080fd5b5035610c8b565b61016e6004803603604081101561050857600080fd5b506001600160a01b0381358116916020013516610d75565b6102646004803603602081101561053657600080fd5b50356001600160a01b0316610da3565b6001600160e01b03191660009081526020819052604090205460ff1690565b60098054604080516020601f60026000196101006001881615020190951694909404938401819004810282018101909252828152606093909290918301828280156105f15780601f106105c6576101008083540402835291602001916105f1565b820191906000526020600020905b8154815290600101906020018083116105d457829003601f168201915b505050505090505b90565b600061060782610e0a565b151561064757604051600160e51b62461bcd02815260040180806020018281038252602c815260200180611b34602c913960400191505060405180910390fd5b506000908152600260205260409020546001600160a01b031690565b600061066e8261091c565b90506001600160a01b0383811690821614156106be57604051600160e51b62461bcd028152600401808060200182810382526021815260200180611bb86021913960400191505060405180910390fd5b806001600160a01b03166106d0610e27565b6001600160a01b031614806106f157506106f1816106ec610e27565b610d75565b151561073157604051600160e51b62461bcd028152600401808060200182810382526038815260200180611aa96038913960400191505060405180910390fd5b60008281526002602052604080822080546001600160a01b0319166001600160a01b0387811691821790925591518593918516917f8c5be1e5ebec7d5bd14f71427d1e84f3dd0314c0f7b2291e5b200ac8c7c3b92591a4505050565b60075490565b6107a461079e610e27565b82610e2b565b15156107e457604051600160e51b62461bcd028152600401808060200182810382526031815260200180611bd96031913960400191505060405180910390fd5b6107ef838383610ed4565b505050565b60006107ff8361097b565b821061083f57604051600160e51b62461bcd02815260040180806020018281038252602b8152602001806119d6602b913960400191505060405180910390fd5b6001600160a01b038316600090815260056020526040902080548390811061086357fe5b9060005260206000200154905092915050565b60006108828383610ef3565b50600192915050565b6107ef83838360405180602001604052806000815250610c28565b6108af81610f11565b50565b60006108bc61078d565b82106108fc57604051600160e51b62461bcd02815260040180806020018281038252602c815260200180611c0a602c913960400191505060405180910390fd5b600780548390811061090a57fe5b90600052602060002001549050919050565b6000818152600160205260408120546001600160a01b031680151561097557604051600160e51b62461bcd028152600401808060200182810382526029815260200180611b0b6029913960400191505060405180910390fd5b92915050565b60006001600160a01b03821615156109c757604051600160e51b62461bcd02815260040180806020018281038252602a815260200180611ae1602a913960400191505060405180910390fd5b6001600160a01b038216600090815260036020526040902061097590610f23565b6109f0610a9f565b1515610a465760408051600160e51b62461bcd02815260206004820181905260248201527f4f776e61626c653a2063616c6c6572206973206e6f7420746865206f776e6572604482015290519081900360640190fd5b600c546040516000916001600160a01b0316907f8be0079c531659141344cd1fd0a4f28419497f9722a3daafe3b4186f6b6457e0908390a3600c80546001600160a01b0319169055565b600c546001600160a01b031690565b600c546000906001600160a01b0316610ab6610e27565b6001600160a01b031614905090565b600a8054604080516020601f60026000196101006001881615020190951694909404938401819004810282018101909252828152606093909290918301828280156105f15780601f106105c6576101008083540402835291602001916105f1565b610b2e610e27565b6001600160a01b0383811691161415610b915760408051600160e51b62461bcd02815260206004820152601960248201527f4552433732313a20617070726f766520746f2063616c6c657200000000000000604482015290519081900360640190fd5b8060046000610b9e610e27565b6001600160a01b03908116825260208083019390935260409182016000908120918716808252919093529120805460ff191692151592909217909155610be2610e27565b60408051841515815290516001600160a01b0392909216917f17307eab39ab6107e8899845ad3d59bd9653f200f220920489ca2b5937696c319181900360200190a35050565b610c39610c33610e27565b83610e2b565b1515610c7957604051600160e51b62461bcd028152600401808060200182810382526031815260200180611bd96031913960400191505060405180910390fd5b610c8584848484610f27565b50505050565b6060610c9682610e0a565b1515610cd657604051600160e51b62461bcd02815260040180806020018281038252602f815260200180611b89602f913960400191505060405180910390fd5b6000828152600b602090815260409182902080548351601f600260001961010060018616150201909316929092049182018490048402810184019094528084529091830182828015610d695780601f10610d3e57610100808354040283529160200191610d69565b820191906000526020600020905b815481529060010190602001808311610d4c57829003601f168201915b50505050509050919050565b6001600160a01b03918216600090815260046020908152604080832093909416825291909152205460ff1690565b610dab610a9f565b1515610e015760408051600160e51b62461bcd02815260206004820181905260248201527f4f776e61626c653a2063616c6c6572206973206e6f7420746865206f776e6572604482015290519081900360640190fd5b6108af81610f7e565b6000908152600160205260409020546001600160a01b0316151590565b3390565b6000610e3682610e0a565b1515610e7657604051600160e51b62461bcd02815260040180806020018281038252602c815260200180611a7d602c913960400191505060405180910390fd5b6000610e818361091c565b9050806001600160a01b0316846001600160a01b03161480610ebc5750836001600160a01b0316610eb1846105fc565b6001600160a01b0316145b80610ecc5750610ecc8185610d75565b949350505050565b610edf838383611024565b610ee98382611170565b6107ef8282611267565b610f0d8282604051806020016040528060008152506112a5565b5050565b6108af610f1d8261091c565b826112fc565b5490565b610f32848484610ed4565b610f3e84848484611344565b1515610c8557604051600160e51b62461bcd028152600401808060200182810382526032815260200180611a016032913960400191505060405180910390fd5b6001600160a01b0381161515610fc857604051600160e51b62461bcd028152600401808060200182810382526026815260200180611a336026913960400191505060405180910390fd5b600c546040516001600160a01b038084169216907f8be0079c531659141344cd1fd0a4f28419497f9722a3daafe3b4186f6b6457e090600090a3600c80546001600160a01b0319166001600160a01b0392909216919091179055565b826001600160a01b03166110378261091c565b6001600160a01b03161461107f57604051600160e51b62461bcd028152600401808060200182810382526029815260200180611b606029913960400191505060405180910390fd5b6001600160a01b03821615156110c957604051600160e51b62461bcd028152600401808060200182810382526024815260200180611a596024913960400191505060405180910390fd5b6110d2816114a0565b6001600160a01b03831660009081526003602052604090206110f3906114db565b6001600160a01b0382166000908152600360205260409020611114906114f2565b60008181526001602052604080822080546001600160a01b0319166001600160a01b0386811691821790925591518493918716917fddf252ad1be2c89b69c2b068fc378daa952ba7f163c4a11628f55a4df523b3ef91a4505050565b6001600160a01b03821660009081526005602052604081205461119a90600163ffffffff6114fb16565b600083815260066020526040902054909150808214611237576001600160a01b03841660009081526005602052604081208054849081106111d757fe5b906000526020600020015490508060056000876001600160a01b03166001600160a01b031681526020019081526020016000208381548110151561121757fe5b600091825260208083209091019290925591825260069052604090208190555b6001600160a01b0384166000908152600560205260409020805490611260906000198301611953565b5050505050565b6001600160a01b0390911660009081526005602081815260408084208054868652600684529185208290559282526001810183559183529091200155565b6112af8383611544565b6112bc6000848484611344565b15156107ef57604051600160e51b62461bcd028152600401808060200182810382526032815260200180611a016032913960400191505060405180910390fd5b6113068282611561565b6000818152600b60205260409020546002600019610100600184161502019091160415610f0d576000818152600b60205260408120610f0d91611977565b6000611358846001600160a01b031661158d565b151561136657506001610ecc565b6000846001600160a01b031663150b7a0261137f610e27565b8887876040518563ffffffff1660e01b815260040180856001600160a01b03166001600160a01b03168152602001846001600160a01b03166001600160a01b0316815260200183815260200180602001828103825283818151815260200191508051906020019080838360005b838110156114045781810151838201526020016113ec565b50505050905090810190601f1680156114315780820380516001836020036101000a031916815260200191505b5095505050505050602060405180830381600087803b15801561145357600080fd5b505af1158015611467573d6000803e3d6000fd5b505050506040513d602081101561147d57600080fd5b50516001600160e01b031916600160e11b630a85bd010214915050949350505050565b6000818152600260205260409020546001600160a01b0316156108af57600090815260026020526040902080546001600160a01b0319169055565b80546114ee90600163ffffffff6114fb16565b9055565b80546001019055565b600061153d83836040518060400160405280601e81526020017f536166654d6174683a207375627472616374696f6e206f766572666c6f7700008152506115c4565b9392505050565b61154e828261165e565b6115588282611267565b610f0d81611797565b61156b82826117db565b6115758282611170565b600081815260066020526040812055610f0d816118b5565b6000813f7fc5d2460186f7233c927e7db2dcc703c0e500b653ca82273b7bfad8045d85a4708115801590610ecc5750141592915050565b6000818484111561165657604051600160e51b62461bcd0281526004018080602001828103825283818151815260200191508051906020019080838360005b8381101561161b578181015183820152602001611603565b50505050905090810190601f1680156116485780820380516001836020036101000a031916815260200191505b509250505060405180910390fd5b505050900390565b6001600160a01b03821615156116be5760408051600160e51b62461bcd02815260206004820181905260248201527f4552433732313a206d696e7420746f20746865207a65726f2061646472657373604482015290519081900360640190fd5b6116c781610e0a565b1561171c5760408051600160e51b62461bcd02815260206004820152601c60248201527f4552433732313a20746f6b656e20616c7265616479206d696e74656400000000604482015290519081900360640190fd5b600081815260016020908152604080832080546001600160a01b0319166001600160a01b03871690811790915583526003909152902061175b906114f2565b60405181906001600160a01b038416906000907fddf252ad1be2c89b69c2b068fc378daa952ba7f163c4a11628f55a4df523b3ef908290a45050565b600780546000838152600860205260408120829055600182018355919091527fa66cc928b5edb82af9bd49922954155ab7b0942694bea4ce44661d9a8736c6880155565b816001600160a01b03166117ee8261091c565b6001600160a01b03161461183657604051600160e51b62461bcd028152600401808060200182810382526025815260200180611c366025913960400191505060405180910390fd5b61183f816114a0565b6001600160a01b0382166000908152600360205260409020611860906114db565b60008181526001602052604080822080546001600160a01b0319169055518291906001600160a01b038516907fddf252ad1be2c89b69c2b068fc378daa952ba7f163c4a11628f55a4df523b3ef908390a45050565b6007546000906118cc90600163ffffffff6114fb16565b600083815260086020526040812054600780549394509092849081106118ee57fe5b906000526020600020015490508060078381548110151561190b57fe5b6000918252602080832090910192909255828152600890915260409020829055600780549061193e906000198301611953565b50505060009182525060086020526040812055565b8154818355818111156107ef576000838152602090206107ef9181019083016119b7565b50805460018160011615610100020316600290046000825580601f1061199d57506108af565b601f0160209004906000526020600020908101906108af91905b6105f991905b808211156119d157600081556001016119bd565b509056fe455243373231456e756d657261626c653a206f776e657220696e646578206f7574206f6620626f756e64734552433732313a207472616e7366657220746f206e6f6e20455243373231526563656976657220696d706c656d656e7465724f776e61626c653a206e6577206f776e657220697320746865207a65726f20616464726573734552433732313a207472616e7366657220746f20746865207a65726f20616464726573734552433732313a206f70657261746f7220717565727920666f72206e6f6e6578697374656e7420746f6b656e4552433732313a20617070726f76652063616c6c6572206973206e6f74206f776e6572206e6f7220617070726f76656420666f7220616c6c4552433732313a2062616c616e636520717565727920666f7220746865207a65726f20616464726573734552433732313a206f776e657220717565727920666f72206e6f6e6578697374656e7420746f6b656e4552433732313a20617070726f76656420717565727920666f72206e6f6e6578697374656e7420746f6b656e4552433732313a207472616e73666572206f6620746f6b656e2074686174206973206e6f74206f776e4552433732314d657461646174613a2055524920717565727920666f72206e6f6e6578697374656e7420746f6b656e4552433732313a20617070726f76616c20746f2063757272656e74206f776e65724552433732313a207472616e736665722063616c6c6572206973206e6f74206f776e6572206e6f7220617070726f766564455243373231456e756d657261626c653a20676c6f62616c20696e646578206f7574206f6620626f756e64734552433732313a206275726e206f6620746f6b656e2074686174206973206e6f74206f776ea165627a7a7230582045b58f997ad4fa7113222c77526aff9aa5032b973b740cf0588f3453663c90b6002960806040523480156200001157600080fd5b5060405162000fbe38038062000fbe833981018060405260408110156200003757600080fd5b8101908080516401000000008111156200005057600080fd5b820160208101848111156200006457600080fd5b81516401000000008111828201871017156200007f57600080fd5b505092919060200180516401000000008111156200009c57600080fd5b82016020810184811115620000b057600080fd5b8151640100000000811182820187101715620000cb57600080fd5b50508451909350849250839150601290620000ee90600090602086019062000124565b5081516200010490600190602085019062000124565b506002805460ff191660ff9290921691909117905550620001c992505050565b828054600181600116156101000203166002900490600052602060002090601f016020900481019282601f106200016757805160ff191683800117855562000197565b8280016001018555821562000197579182015b82811115620001975782518255916020019190600101906200017a565b50620001a5929150620001a9565b5090565b620001c691905b80821115620001a55760008155600101620001b0565b90565b610de580620001d96000396000f3fe608060405234801561001057600080fd5b50600436106100ea5760003560e01c806342966c681161008c57806395d89b411161006657806395d89b41146102e3578063a457c2d7146102eb578063a9059cbb14610317578063dd62ed3e14610343576100ea565b806342966c681461027257806370a082311461029157806379cc6790146102b7576100ea565b806323b872dd116100c857806323b872dd146101c6578063313ce567146101fc578063395093511461021a57806340c10f1914610246576100ea565b806306fdde03146100ef578063095ea7b31461016c57806318160ddd146101ac575b600080fd5b6100f7610371565b6040805160208082528351818301528351919283929083019185019080838360005b83811015610131578181015183820152602001610119565b50505050905090810190601f16801561015e5780820380516001836020036101000a031916815260200191505b509250505060405180910390f35b6101986004803603604081101561018257600080fd5b506001600160a01b038135169060200135610407565b604080519115158252519081900360200190f35b6101b4610424565b60408051918252519081900360200190f35b610198600480360360608110156101dc57600080fd5b506001600160a01b0381358116916020810135909116906040013561042a565b6102046104b7565b6040805160ff9092168252519081900360200190f35b6101986004803603604081101561023057600080fd5b506001600160a01b0381351690602001356104c0565b6101986004803603604081101561025c57600080fd5b506001600160a01b038135169060200135610514565b61028f6004803603602081101561028857600080fd5b5035610520565b005b6101b4600480360360208110156102a757600080fd5b50356001600160a01b031661052d565b61028f600480360360408110156102cd57600080fd5b506001600160a01b038135169060200135610548565b6100f7610556565b6101986004803603604081101561030157600080fd5b506001600160a01b0381351690602001356105b6565b6101986004803603604081101561032d57600080fd5b506001600160a01b038135169060200135610624565b6101b46004803603604081101561035957600080fd5b506001600160a01b0381358116916020013516610638565b60008054604080516020601f60026000196101006001881615020190951694909404938401819004810282018101909252828152606093909290918301828280156103fd5780601f106103d2576101008083540402835291602001916103fd565b820191906000526020600020905b8154815290600101906020018083116103e057829003601f168201915b5050505050905090565b600061041b610414610663565b8484610667565b50600192915050565b60055490565b600061043784848461075d565b6104ad84610443610663565b6104a885604051806060016040528060288152602001610cdf602891396001600160a01b038a16600090815260046020526040812090610481610663565b6001600160a01b03168152602081019190915260400160002054919063ffffffff6108c516565b610667565b5060019392505050565b60025460ff1690565b600061041b6104cd610663565b846104a885600460006104de610663565b6001600160a01b03908116825260208083019390935260409182016000908120918c16815292529020549063ffffffff61095f16565b600061041b83836109c3565b61052a3382610aba565b50565b6001600160a01b031660009081526003602052604090205490565b6105528282610bbb565b5050565b60018054604080516020601f600260001961010087891615020190951694909404938401819004810282018101909252828152606093909290918301828280156103fd5780601f106103d2576101008083540402835291602001916103fd565b600061041b6105c3610663565b846104a885604051806060016040528060258152602001610d9560259139600460006105ed610663565b6001600160a01b03908116825260208083019390935260409182016000908120918d1681529252902054919063ffffffff6108c516565b600061041b610631610663565b848461075d565b6001600160a01b03918216600090815260046020908152604080832093909416825291909152205490565b3390565b6001600160a01b03831615156106b157604051600160e51b62461bcd028152600401808060200182810382526024815260200180610d716024913960400191505060405180910390fd5b6001600160a01b03821615156106fb57604051600160e51b62461bcd028152600401808060200182810382526022815260200180610c976022913960400191505060405180910390fd5b6001600160a01b03808416600081815260046020908152604080832094871680845294825291829020859055815185815291517f8c5be1e5ebec7d5bd14f71427d1e84f3dd0314c0f7b2291e5b200ac8c7c3b9259281900390910190a3505050565b6001600160a01b03831615156107a757604051600160e51b62461bcd028152600401808060200182810382526025815260200180610d4c6025913960400191505060405180910390fd5b6001600160a01b03821615156107f157604051600160e51b62461bcd028152600401808060200182810382526023815260200180610c526023913960400191505060405180910390fd5b61083481604051806060016040528060268152602001610cb9602691396001600160a01b038616600090815260036020526040902054919063ffffffff6108c516565b6001600160a01b038085166000908152600360205260408082209390935590841681522054610869908263ffffffff61095f16565b6001600160a01b0380841660008181526003602090815260409182902094909455805185815290519193928716927fddf252ad1be2c89b69c2b068fc378daa952ba7f163c4a11628f55a4df523b3ef92918290030190a3505050565b6000818484111561095757604051600160e51b62461bcd0281526004018080602001828103825283818151815260200191508051906020019080838360005b8381101561091c578181015183820152602001610904565b50505050905090810190601f1680156109495780820380516001836020036101000a031916815260200191505b509250505060405180910390fd5b505050900390565b6000828201838110156109bc5760408051600160e51b62461bcd02815260206004820152601b60248201527f536166654d6174683a206164646974696f6e206f766572666c6f770000000000604482015290519081900360640190fd5b9392505050565b6001600160a01b0382161515610a235760408051600160e51b62461bcd02815260206004820152601f60248201527f45524332303a206d696e7420746f20746865207a65726f206164647265737300604482015290519081900360640190fd5b600554610a36908263ffffffff61095f16565b6005556001600160a01b038216600090815260036020526040902054610a62908263ffffffff61095f16565b6001600160a01b03831660008181526003602090815260408083209490945583518581529351929391927fddf252ad1be2c89b69c2b068fc378daa952ba7f163c4a11628f55a4df523b3ef9281900390910190a35050565b6001600160a01b0382161515610b0457604051600160e51b62461bcd028152600401808060200182810382526021815260200180610d2b6021913960400191505060405180910390fd5b610b4781604051806060016040528060228152602001610c75602291396001600160a01b038516600090815260036020526040902054919063ffffffff6108c516565b6001600160a01b038316600090815260036020526040902055600554610b73908263ffffffff610c0f16565b6005556040805182815290516000916001600160a01b038516917fddf252ad1be2c89b69c2b068fc378daa952ba7f163c4a11628f55a4df523b3ef9181900360200190a35050565b610bc58282610aba565b61055282610bd1610663565b6104a884604051806060016040528060248152602001610d07602491396001600160a01b038816600090815260046020526040812090610481610663565b60006109bc83836040518060400160405280601e81526020017f536166654d6174683a207375627472616374696f6e206f766572666c6f7700008152506108c556fe45524332303a207472616e7366657220746f20746865207a65726f206164647265737345524332303a206275726e20616d6f756e7420657863656564732062616c616e636545524332303a20617070726f766520746f20746865207a65726f206164647265737345524332303a207472616e7366657220616d6f756e7420657863656564732062616c616e636545524332303a207472616e7366657220616d6f756e74206578636565647320616c6c6f77616e636545524332303a206275726e20616d6f756e74206578636565647320616c6c6f77616e636545524332303a206275726e2066726f6d20746865207a65726f206164647265737345524332303a207472616e736665722066726f6d20746865207a65726f206164647265737345524332303a20617070726f76652066726f6d20746865207a65726f206164647265737345524332303a2064656372656173656420616c6c6f77616e63652062656c6f77207a65726fa165627a7a723058207937d7c2670a59b432458b8fe8a9eeb5b899a50185e598d8fc0a99a7713f94e100294e465420746f6b656e2065786973747320666f7220746869732064617461736574204449442e4e46542063616e6e6f74206265206275726e74206265666f726520616c6c20756e6465726c79696e6720455243323020746f6b656e7320617265206275726e742e6d757374207472616e7366657220657263323020746f6b656e20696e746f20657363726f7720636f6e74726163742e4e465420746f6b656e20646f6573206e6f7420657869737420666f7220746869732064617461736574204449442ea165627a7a72305820147e51bf4cc7132addcb13af2914a61e7bc4686e10c11accc1d1ccdf48db31e7002960806040523480156200001157600080fd5b5060405162000fbe38038062000fbe833981018060405260408110156200003757600080fd5b8101908080516401000000008111156200005057600080fd5b820160208101848111156200006457600080fd5b81516401000000008111828201871017156200007f57600080fd5b505092919060200180516401000000008111156200009c57600080fd5b82016020810184811115620000b057600080fd5b8151640100000000811182820187101715620000cb57600080fd5b50508451909350849250839150601290620000ee90600090602086019062000124565b5081516200010490600190602085019062000124565b506002805460ff191660ff9290921691909117905550620001c992505050565b828054600181600116156101000203166002900490600052602060002090601f016020900481019282601f106200016757805160ff191683800117855562000197565b8280016001018555821562000197579182015b82811115620001975782518255916020019190600101906200017a565b50620001a5929150620001a9565b5090565b620001c691905b80821115620001a55760008155600101620001b0565b90565b610de580620001d96000396000f3fe608060405234801561001057600080fd5b50600436106100ea5760003560e01c806342966c681161008c57806395d89b411161006657806395d89b41146102e3578063a457c2d7146102eb578063a9059cbb14610317578063dd62ed3e14610343576100ea565b806342966c681461027257806370a082311461029157806379cc6790146102b7576100ea565b806323b872dd116100c857806323b872dd146101c6578063313ce567146101fc578063395093511461021a57806340c10f1914610246576100ea565b806306fdde03146100ef578063095ea7b31461016c57806318160ddd146101ac575b600080fd5b6100f7610371565b6040805160208082528351818301528351919283929083019185019080838360005b83811015610131578181015183820152602001610119565b50505050905090810190601f16801561015e5780820380516001836020036101000a031916815260200191505b509250505060405180910390f35b6101986004803603604081101561018257600080fd5b506001600160a01b038135169060200135610407565b604080519115158252519081900360200190f35b6101b4610424565b60408051918252519081900360200190f35b610198600480360360608110156101dc57600080fd5b506001600160a01b0381358116916020810135909116906040013561042a565b6102046104b7565b6040805160ff9092168252519081900360200190f35b6101986004803603604081101561023057600080fd5b506001600160a01b0381351690602001356104c0565b6101986004803603604081101561025c57600080fd5b506001600160a01b038135169060200135610514565b61028f6004803603602081101561028857600080fd5b5035610520565b005b6101b4600480360360208110156102a757600080fd5b50356001600160a01b031661052d565b61028f600480360360408110156102cd57600080fd5b506001600160a01b038135169060200135610548565b6100f7610556565b6101986004803603604081101561030157600080fd5b506001600160a01b0381351690602001356105b6565b6101986004803603604081101561032d57600080fd5b506001600160a01b038135169060200135610624565b6101b46004803603604081101561035957600080fd5b506001600160a01b0381358116916020013516610638565b60008054604080516020601f60026000196101006001881615020190951694909404938401819004810282018101909252828152606093909290918301828280156103fd5780601f106103d2576101008083540402835291602001916103fd565b820191906000526020600020905b8154815290600101906020018083116103e057829003601f168201915b5050505050905090565b600061041b610414610663565b8484610667565b50600192915050565b60055490565b600061043784848461075d565b6104ad84610443610663565b6104a885604051806060016040528060288152602001610cdf602891396001600160a01b038a16600090815260046020526040812090610481610663565b6001600160a01b03168152602081019190915260400160002054919063ffffffff6108c516565b610667565b5060019392505050565b60025460ff1690565b600061041b6104cd610663565b846104a885600460006104de610663565b6001600160a01b03908116825260208083019390935260409182016000908120918c16815292529020549063ffffffff61095f16565b600061041b83836109c3565b61052a3382610aba565b50565b6001600160a01b031660009081526003602052604090205490565b6105528282610bbb565b5050565b60018054604080516020601f600260001961010087891615020190951694909404938401819004810282018101909252828152606093909290918301828280156103fd5780601f106103d2576101008083540402835291602001916103fd565b600061041b6105c3610663565b846104a885604051806060016040528060258152602001610d9560259139600460006105ed610663565b6001600160a01b03908116825260208083019390935260409182016000908120918d1681529252902054919063ffffffff6108c516565b600061041b610631610663565b848461075d565b6001600160a01b03918216600090815260046020908152604080832093909416825291909152205490565b3390565b6001600160a01b03831615156106b157604051600160e51b62461bcd028152600401808060200182810382526024815260200180610d716024913960400191505060405180910390fd5b6001600160a01b03821615156106fb57604051600160e51b62461bcd028152600401808060200182810382526022815260200180610c976022913960400191505060405180910390fd5b6001600160a01b03808416600081815260046020908152604080832094871680845294825291829020859055815185815291517f8c5be1e5ebec7d5bd14f71427d1e84f3dd0314c0f7b2291e5b200ac8c7c3b9259281900390910190a3505050565b6001600160a01b03831615156107a757604051600160e51b62461bcd028152600401808060200182810382526025815260200180610d4c6025913960400191505060405180910390fd5b6001600160a01b03821615156107f157604051600160e51b62461bcd028152600401808060200182810382526023815260200180610c526023913960400191505060405180910390fd5b61083481604051806060016040528060268152602001610cb9602691396001600160a01b038616600090815260036020526040902054919063ffffffff6108c516565b6001600160a01b038085166000908152600360205260408082209390935590841681522054610869908263ffffffff61095f16565b6001600160a01b0380841660008181526003602090815260409182902094909455805185815290519193928716927fddf252ad1be2c89b69c2b068fc378daa952ba7f163c4a11628f55a4df523b3ef92918290030190a3505050565b6000818484111561095757604051600160e51b62461bcd0281526004018080602001828103825283818151815260200191508051906020019080838360005b8381101561091c578181015183820152602001610904565b50505050905090810190601f1680156109495780820380516001836020036101000a031916815260200191505b509250505060405180910390fd5b505050900390565b6000828201838110156109bc5760408051600160e51b62461bcd02815260206004820152601b60248201527f536166654d6174683a206164646974696f6e206f766572666c6f770000000000604482015290519081900360640190fd5b9392505050565b6001600160a01b0382161515610a235760408051600160e51b62461bcd02815260206004820152601f60248201527f45524332303a206d696e7420746f20746865207a65726f206164647265737300604482015290519081900360640190fd5b600554610a36908263ffffffff61095f16565b6005556001600160a01b038216600090815260036020526040902054610a62908263ffffffff61095f16565b6001600160a01b03831660008181526003602090815260408083209490945583518581529351929391927fddf252ad1be2c89b69c2b068fc378daa952ba7f163c4a11628f55a4df523b3ef9281900390910190a35050565b6001600160a01b0382161515610b0457604051600160e51b62461bcd028152600401808060200182810382526021815260200180610d2b6021913960400191505060405180910390fd5b610b4781604051806060016040528060228152602001610c75602291396001600160a01b038516600090815260036020526040902054919063ffffffff6108c516565b6001600160a01b038316600090815260036020526040902055600554610b73908263ffffffff610c0f16565b6005556040805182815290516000916001600160a01b038516917fddf252ad1be2c89b69c2b068fc378daa952ba7f163c4a11628f55a4df523b3ef9181900360200190a35050565b610bc58282610aba565b61055282610bd1610663565b6104a884604051806060016040528060248152602001610d07602491396001600160a01b038816600090815260046020526040812090610481610663565b60006109bc83836040518060400160405280601e81526020017f536166654d6174683a207375627472616374696f6e206f766572666c6f7700008152506108c556fe45524332303a207472616e7366657220746f20746865207a65726f206164647265737345524332303a206275726e20616d6f756e7420657863656564732062616c616e636545524332303a20617070726f766520746f20746865207a65726f206164647265737345524332303a207472616e7366657220616d6f756e7420657863656564732062616c616e636545524332303a207472616e7366657220616d6f756e74206578636565647320616c6c6f77616e636545524332303a206275726e20616d6f756e74206578636565647320616c6c6f77616e636545524332303a206275726e2066726f6d20746865207a65726f206164647265737345524332303a207472616e736665722066726f6d20746865207a65726f206164647265737345524332303a20617070726f76652066726f6d20746865207a65726f206164647265737345524332303a2064656372656173656420616c6c6f77616e63652062656c6f77207a65726fa165627a7a723058207937d7c2670a59b432458b8fe8a9eeb5b899a50185e598d8fc0a99a7713f94e10029",
  "source": "pragma solidity ^0.5.0;\n\nimport './ERC721Token.sol';\nimport './ERC20Token.sol';\n\ncontract DataManager {\n    using SafeMath for uint256;\n\n    struct NFT {\n        bytes32 did;\n        uint256 tokenId;\n        string name;\n        string symbol;\n        ERC721Token token;\n        address owner;\n        bool    erc20Exist;\n        uint256 price;\n        uint256 supply;\n        ERC20Token ft;\n    }\n\n    uint256 tokenId;\n    ERC20Token dummy_erc20;\n    mapping(bytes32 => uint256) private did2nftId;\n    mapping(uint256 => NFT) private nftId2Token;\n    mapping(string => bool) private nameExist;\n    mapping(string => bool) private symbolExist;\n    mapping(bytes32 => ERC20Token) private did2erc20;\n\n    // modifier\n    modifier nftExist(bytes32 _did) {\n        require(did2nftId[_did] > 0, \"NFT token does not exist for this dataset DID.\");\n        _;\n    }\n\n    // events\n    event nftMinted(address indexed _owner, bytes32 indexed _did, uint256 indexed _tokenId);\n    event nftBurnt(address indexed _owner, bytes32 indexed _did, uint256 indexed _tokenId);\n    event erc20Created(address indexed _owner, bytes32 indexed _did, address indexed _erc20Token);\n    event erc20Minted(address indexed _owner, bytes32 indexed _did, uint256 indexed _amount);\n    event erc20Burnt(address indexed _owner, bytes32 indexed _did, uint256 indexed _amount);\n\n    constructor () public {\n        tokenId = 0;\n        dummy_erc20 = new ERC20Token(\"\", \"\");\n    }\n\n    /**\n     * @dev Mint ERC721 token for new dataset \n     * @param _did refers to the unique id of the dataset.\n     */\n    function mintNFT(bytes32 _did, string memory _name, string memory _symbol) public returns (bool) {\n        require(did2nftId[_did] == 0, \"NFT token exists for this dataset DID.\");\n        require(bytes(_name).length != 0 && nameExist[_name] == false, \"name cannot be empty or exist.\");\n        require(bytes(_symbol).length != 0 && symbolExist[_symbol] == false, \"symbol cannot be empty or exist.\");\n\n        tokenId = tokenId.add(1);\n        did2nftId[_did] = tokenId;\n        nameExist[_name] = true;\n        symbolExist[_symbol] = true;\n        // create NFT token\n        ERC721Token _token = new ERC721Token(_name, _symbol);\n        _token.mint(msg.sender, tokenId);\n        // create NFT struct\n        nftId2Token[tokenId] = NFT({\n            did: _did,\n            tokenId: tokenId,\n            name: _name,\n            symbol: _symbol,\n            token: _token,\n            owner: msg.sender,\n            erc20Exist: false,\n            price: 0,\n            supply: 0,\n            ft: dummy_erc20\n        });\n    \n        emit nftMinted(msg.sender, _did, tokenId);\n        return true;\n    }\n\n    /**\n     * @dev Burn ERC721 token after all underlying ERC20 tokens had been burnt\n     * @param _did refers to the unique id of the dataset.\n     */\n    function burnNFT(bytes32 _did) public nftExist(_did) returns (bool) {\n        uint256 _tokenId = did2nftId[_did];\n        NFT memory nft = nftId2Token[_tokenId];\n        require(msg.sender == nft.owner, \"NFT must be burnt by its owner.\");\n\n        require(nft.supply == 0, \"NFT cannot be burnt before all underlying ERC20 tokens are burnt.\");\n        ERC721Token _token = nft.token;\n        _token.burn(_tokenId);\n\n        emit nftBurnt(msg.sender, _did, tokenId);\n        return true;\n    }\n\n    /**\n     * @dev Mint ERC20 token for a specific NFT token (Only NFT token Ower can mint ERC20)\n     * @param _did refers to the unique id of the dataset.\n     */\n    function createERC20 (bytes32 _did, string memory _name, string memory _symbol, uint256 _price) public nftExist(_did) returns (bool) {\n        uint256 _tokenId = did2nftId[_did];\n        require(msg.sender == nftId2Token[_tokenId].owner, \"NFT must be burnt by its owner.\");\n\n        ERC20Token _erc20 = new ERC20Token(_name, _symbol);\n        nftId2Token[_tokenId].ft = _erc20;\n        did2erc20[_did] = _erc20;\n        nftId2Token[_tokenId].erc20Exist = true;\n        nftId2Token[_tokenId].price = _price; // in unit of Ether\n\n        emit erc20Created(msg.sender, _did, address(_erc20));\n        return true;\n    }\n\n\n    /**\n     * @dev Mint ERC20 token for a specific NFT token (user need to send Ether to mint ERC20)\n     * @param _did refers to the unique id of the dataset.\n     */\n    function mintERC20 (bytes32 _did) public nftExist(_did) payable returns (bool) {\n        uint256 _tokenId = did2nftId[_did];\n        uint256 amount = msg.value / nftId2Token[_tokenId].price;\n        ERC20Token _erc20 = did2erc20[_did];\n        _erc20.mint(msg.sender, amount);\n        nftId2Token[_tokenId].supply = nftId2Token[_tokenId].supply.add(amount);\n        emit erc20Minted(msg.sender, _did, amount);\n        return true;\n    }\n\n\n    /**\n     * @dev Burnt ERC20 token for a specific NFT token (user burn ERC20 and exchange for Ether)\n     * @param _did refers to the unique id of the dataset.\n     */\n    function burnERC20 (bytes32 _did, uint256 _amount) public nftExist(_did) returns (bool) {\n        uint256 _tokenId = did2nftId[_did];\n        ERC20Token _erc20 = did2erc20[_did];\n\n        require(_erc20.transferFrom(msg.sender, address(this), _amount), \"must transfer erc20 token into escrow contract.\");\n        _erc20.burn(_amount);\n        nftId2Token[_tokenId].supply = nftId2Token[_tokenId].supply.sub(_amount);\n\n        uint256 nEther = _amount * nftId2Token[_tokenId].price;\n        msg.sender.transfer(nEther);\n        emit erc20Burnt(msg.sender, _did, _amount);\n        return true;\n        \n    }\n\n    /**\n     * @dev return NFT token address\n     * @param _did refers to the unique id of the dataset.\n     */\n    function getNFTaddress(bytes32 _did) public nftExist(_did) view returns (address){\n        uint256 _tokenId = did2nftId[_did];\n        return address(nftId2Token[_tokenId].token);\n    }\n\n        /**\n     * @dev return ERC20 token address\n     * @param _did refers to the unique id of the dataset.\n     */\n    function getERC20address(bytes32 _did) public nftExist(_did) view returns (address){\n        uint256 _tokenId = did2nftId[_did];\n        require(nftId2Token[_tokenId].erc20Exist == true, \"ERC20 token does not exist.\");\n        return address(nftId2Token[_tokenId].ft);\n    }\n\n}",
  "sourcePath": "/Users/fancy/Documents/Ocean Protocol/research/16-research-repo/research/22-data-token-poc/poc/contracts/DataManager.sol",
  "compiler": {
    "name": "solc",
    "version": "0.5.5+commit.47a71e8f.Emscripten.clang"
  },
  "schemaVersion": "3.0.19",
  "updatedAt": "2019-11-25T23:16:51.281Z",
  "networkType": "ethereum",
  "devdoc": {
    "methods": {
      "burnERC20(bytes32,uint256)": {
        "details": "Burnt ERC20 token for a specific NFT token (user burn ERC20 and exchange for Ether)",
        "params": {
          "_did": "refers to the unique id of the dataset."
        }
      },
      "burnNFT(bytes32)": {
        "details": "Burn ERC721 token after all underlying ERC20 tokens had been burnt",
        "params": {
          "_did": "refers to the unique id of the dataset."
        }
      },
      "createERC20(bytes32,string,string,uint256)": {
        "details": "Mint ERC20 token for a specific NFT token (Only NFT token Ower can mint ERC20)",
        "params": {
          "_did": "refers to the unique id of the dataset."
        }
      },
      "getERC20address(bytes32)": {
        "details": "return ERC20 token address",
        "params": {
          "_did": "refers to the unique id of the dataset."
        }
      },
      "getNFTaddress(bytes32)": {
        "details": "return NFT token address",
        "params": {
          "_did": "refers to the unique id of the dataset."
        }
      },
      "mintERC20(bytes32)": {
        "details": "Mint ERC20 token for a specific NFT token (user need to send Ether to mint ERC20)",
        "params": {
          "_did": "refers to the unique id of the dataset."
        }
      },
      "mintNFT(bytes32,string,string)": {
        "details": "Mint ERC721 token for new dataset ",
        "params": {
          "_did": "refers to the unique id of the dataset."
        }
      }
    }
  },
  "userdoc": {
    "methods": {}
  }
}