{
  "contractName": "OceanToken",
  "abi": [
    {
      "constant": true,
      "inputs": [],
      "name": "name",
      "outputs": [
        {
          "name": "",
          "type": "string"
        }
      ],
      "payable": false,
      "stateMutability": "view",
      "type": "function"
    },
    {
      "constant": false,
      "inputs": [
        {
          "name": "spender",
          "type": "address"
        },
        {
          "name": "value",
          "type": "uint256"
        }
      ],
      "name": "approve",
      "outputs": [
        {
          "name": "",
          "type": "bool"
        }
      ],
      "payable": false,
      "stateMutability": "nonpayable",
      "type": "function"
    },
    {
      "constant": true,
      "inputs": [],
      "name": "totalSupply",
      "outputs": [
        {
          "name": "",
          "type": "uint256"
        }
      ],
      "payable": false,
      "stateMutability": "view",
      "type": "function"
    },
    {
      "constant": true,
      "inputs": [],
      "name": "decimals",
      "outputs": [
        {
          "name": "",
          "type": "uint8"
        }
      ],
      "payable": false,
      "stateMutability": "view",
      "type": "function"
    },
    {
      "constant": true,
      "inputs": [],
      "name": "cap",
      "outputs": [
        {
          "name": "",
          "type": "uint256"
        }
      ],
      "payable": false,
      "stateMutability": "view",
      "type": "function"
    },
    {
      "constant": false,
      "inputs": [
        {
          "name": "spender",
          "type": "address"
        },
        {
          "name": "addedValue",
          "type": "uint256"
        }
      ],
      "name": "increaseAllowance",
      "outputs": [
        {
          "name": "success",
          "type": "bool"
        }
      ],
      "payable": false,
      "stateMutability": "nonpayable",
      "type": "function"
    },
    {
      "constant": false,
      "inputs": [],
      "name": "unpause",
      "outputs": [],
      "payable": false,
      "stateMutability": "nonpayable",
      "type": "function"
    },
    {
      "constant": false,
      "inputs": [
        {
          "name": "to",
          "type": "address"
        },
        {
          "name": "value",
          "type": "uint256"
        }
      ],
      "name": "mint",
      "outputs": [
        {
          "name": "",
          "type": "bool"
        }
      ],
      "payable": false,
      "stateMutability": "nonpayable",
      "type": "function"
    },
    {
      "constant": true,
      "inputs": [
        {
          "name": "account",
          "type": "address"
        }
      ],
      "name": "isPauser",
      "outputs": [
        {
          "name": "",
          "type": "bool"
        }
      ],
      "payable": false,
      "stateMutability": "view",
      "type": "function"
    },
    {
      "constant": true,
      "inputs": [
        {
          "name": "",
          "type": "uint256"
        }
      ],
      "name": "accountList",
      "outputs": [
        {
          "name": "",
          "type": "address"
        }
      ],
      "payable": false,
      "stateMutability": "view",
      "type": "function"
    },
    {
      "constant": true,
      "inputs": [],
      "name": "paused",
      "outputs": [
        {
          "name": "",
          "type": "bool"
        }
      ],
      "payable": false,
      "stateMutability": "view",
      "type": "function"
    },
    {
      "constant": false,
      "inputs": [],
      "name": "renouncePauser",
      "outputs": [],
      "payable": false,
      "stateMutability": "nonpayable",
      "type": "function"
    },
    {
      "constant": true,
      "inputs": [
        {
          "name": "",
          "type": "address"
        }
      ],
      "name": "accountExist",
      "outputs": [
        {
          "name": "",
          "type": "bool"
        }
      ],
      "payable": false,
      "stateMutability": "view",
      "type": "function"
    },
    {
      "constant": true,
      "inputs": [
        {
          "name": "owner",
          "type": "address"
        }
      ],
      "name": "balanceOf",
      "outputs": [
        {
          "name": "",
          "type": "uint256"
        }
      ],
      "payable": false,
      "stateMutability": "view",
      "type": "function"
    },
    {
      "constant": false,
      "inputs": [],
      "name": "renounceOwnership",
      "outputs": [],
      "payable": false,
      "stateMutability": "nonpayable",
      "type": "function"
    },
    {
      "constant": false,
      "inputs": [
        {
          "name": "account",
          "type": "address"
        }
      ],
      "name": "addPauser",
      "outputs": [],
      "payable": false,
      "stateMutability": "nonpayable",
      "type": "function"
    },
    {
      "constant": false,
      "inputs": [],
      "name": "pause",
      "outputs": [],
      "payable": false,
      "stateMutability": "nonpayable",
      "type": "function"
    },
    {
      "constant": true,
      "inputs": [],
      "name": "owner",
      "outputs": [
        {
          "name": "",
          "type": "address"
        }
      ],
      "payable": false,
      "stateMutability": "view",
      "type": "function"
    },
    {
      "constant": true,
      "inputs": [],
      "name": "isOwner",
      "outputs": [
        {
          "name": "",
          "type": "bool"
        }
      ],
      "payable": false,
      "stateMutability": "view",
      "type": "function"
    },
    {
      "constant": true,
      "inputs": [],
      "name": "symbol",
      "outputs": [
        {
          "name": "",
          "type": "string"
        }
      ],
      "payable": false,
      "stateMutability": "view",
      "type": "function"
    },
    {
      "constant": false,
      "inputs": [
        {
          "name": "account",
          "type": "address"
        }
      ],
      "name": "addMinter",
      "outputs": [],
      "payable": false,
      "stateMutability": "nonpayable",
      "type": "function"
    },
    {
      "constant": false,
      "inputs": [],
      "name": "renounceMinter",
      "outputs": [],
      "payable": false,
      "stateMutability": "nonpayable",
      "type": "function"
    },
    {
      "constant": false,
      "inputs": [
        {
          "name": "spender",
          "type": "address"
        },
        {
          "name": "subtractedValue",
          "type": "uint256"
        }
      ],
      "name": "decreaseAllowance",
      "outputs": [
        {
          "name": "success",
          "type": "bool"
        }
      ],
      "payable": false,
      "stateMutability": "nonpayable",
      "type": "function"
    },
    {
      "constant": true,
      "inputs": [
        {
          "name": "account",
          "type": "address"
        }
      ],
      "name": "isMinter",
      "outputs": [
        {
          "name": "",
          "type": "bool"
        }
      ],
      "payable": false,
      "stateMutability": "view",
      "type": "function"
    },
    {
      "constant": true,
      "inputs": [
        {
          "name": "owner",
          "type": "address"
        },
        {
          "name": "spender",
          "type": "address"
        }
      ],
      "name": "allowance",
      "outputs": [
        {
          "name": "",
          "type": "uint256"
        }
      ],
      "payable": false,
      "stateMutability": "view",
      "type": "function"
    },
    {
      "constant": false,
      "inputs": [
        {
          "name": "newOwner",
          "type": "address"
        }
      ],
      "name": "transferOwnership",
      "outputs": [],
      "payable": false,
      "stateMutability": "nonpayable",
      "type": "function"
    },
    {
      "inputs": [
        {
          "name": "_owner",
          "type": "address"
        }
      ],
      "payable": false,
      "stateMutability": "nonpayable",
      "type": "constructor"
    },
    {
      "payable": true,
      "stateMutability": "payable",
      "type": "fallback"
    },
    {
      "anonymous": false,
      "inputs": [
        {
          "indexed": true,
          "name": "account",
          "type": "address"
        }
      ],
      "name": "MinterAdded",
      "type": "event"
    },
    {
      "anonymous": false,
      "inputs": [
        {
          "indexed": true,
          "name": "account",
          "type": "address"
        }
      ],
      "name": "MinterRemoved",
      "type": "event"
    },
    {
      "anonymous": false,
      "inputs": [
        {
          "indexed": false,
          "name": "account",
          "type": "address"
        }
      ],
      "name": "Paused",
      "type": "event"
    },
    {
      "anonymous": false,
      "inputs": [
        {
          "indexed": false,
          "name": "account",
          "type": "address"
        }
      ],
      "name": "Unpaused",
      "type": "event"
    },
    {
      "anonymous": false,
      "inputs": [
        {
          "indexed": true,
          "name": "account",
          "type": "address"
        }
      ],
      "name": "PauserAdded",
      "type": "event"
    },
    {
      "anonymous": false,
      "inputs": [
        {
          "indexed": true,
          "name": "account",
          "type": "address"
        }
      ],
      "name": "PauserRemoved",
      "type": "event"
    },
    {
      "anonymous": false,
      "inputs": [
        {
          "indexed": true,
          "name": "from",
          "type": "address"
        },
        {
          "indexed": true,
          "name": "to",
          "type": "address"
        },
        {
          "indexed": false,
          "name": "value",
          "type": "uint256"
        }
      ],
      "name": "Transfer",
      "type": "event"
    },
    {
      "anonymous": false,
      "inputs": [
        {
          "indexed": true,
          "name": "owner",
          "type": "address"
        },
        {
          "indexed": true,
          "name": "spender",
          "type": "address"
        },
        {
          "indexed": false,
          "name": "value",
          "type": "uint256"
        }
      ],
      "name": "Approval",
      "type": "event"
    },
    {
      "anonymous": false,
      "inputs": [
        {
          "indexed": true,
          "name": "previousOwner",
          "type": "address"
        },
        {
          "indexed": true,
          "name": "newOwner",
          "type": "address"
        }
      ],
      "name": "OwnershipTransferred",
      "type": "event"
    },
    {
      "constant": false,
      "inputs": [
        {
          "name": "_to",
          "type": "address"
        },
        {
          "name": "_value",
          "type": "uint256"
        }
      ],
      "name": "transfer",
      "outputs": [
        {
          "name": "",
          "type": "bool"
        }
      ],
      "payable": false,
      "stateMutability": "nonpayable",
      "type": "function"
    },
    {
      "constant": false,
      "inputs": [
        {
          "name": "_from",
          "type": "address"
        },
        {
          "name": "_to",
          "type": "address"
        },
        {
          "name": "_value",
          "type": "uint256"
        }
      ],
      "name": "transferFrom",
      "outputs": [
        {
          "name": "",
          "type": "bool"
        }
      ],
      "payable": false,
      "stateMutability": "nonpayable",
      "type": "function"
    },
    {
      "constant": true,
      "inputs": [
        {
          "name": "begin",
          "type": "uint256"
        },
        {
          "name": "end",
          "type": "uint256"
        }
      ],
      "name": "getAccountList",
      "outputs": [
        {
          "name": "",
          "type": "address[]"
        }
      ],
      "payable": false,
      "stateMutability": "view",
      "type": "function"
    },
    {
      "constant": false,
      "inputs": [],
      "name": "kill",
      "outputs": [],
      "payable": false,
      "stateMutability": "nonpayable",
      "type": "function"
    }
  ],
  "bytecode": "0x608060405263540ae480600b8190556200003090670de0b6b3a7640000640100000000620015606200023882021704565b600c553480156200004057600080fd5b5060405160208062001bea833981018060405260208110156200006257600080fd5b5051600c54604080518082018252600a81527f4f6365616e546f6b656e0000000000000000000000000000000000000000000060208281019190915282518084018452600581527f4f4345414e0000000000000000000000000000000000000000000000000000009181019190915260008054600160a060020a0319163317808255935192939192601292600160a060020a0316919060008051602062001bca833981519152908290a3620001203364010000000062000270810204565b6005805460ff1916905582516200013f90600690602086019062000561565b5081516200015590600790602085019062000561565b506008805460ff191660ff929092169190911790555062000181905033640100000000620002c2810204565b600081116200018f57600080fd5b600a55620001a68164010000000062000314810204565b620001b96401000000006200034b810204565b620001cd8164010000000062000361810204565b600e805460018181019092557fbb7b4a454dc3493923482f07822329ed19e8244eff582cc204f8554c3620c3fd018054600160a060020a03909316600160a060020a0319909316831790556000918252600d6020526040909120805460ff1916909117905562000603565b60008215156200024b575060006200026a565b8282028284828115156200025b57fe5b04146200026757600080fd5b90505b92915050565b6200028b6004826401000000006200143a6200039482021704565b604051600160a060020a038216907f6719d08c1888103bea251a4ed56406bd0c3e69723c8a1686e017e7bbe159b6f890600090a250565b620002dd6009826401000000006200143a6200039482021704565b604051600160a060020a038216907f6ae172837ea30b801fbfcdd4108aa1d5bf8ff775444fd70256b44e6bf3dfc3f690600090a250565b6200032833640100000000620003ef810204565b15156200033457600080fd5b6200034881640100000000620002c2810204565b50565b6200035f336401000000006200040c810204565b565b620003746401000000006200045e810204565b15156200038057600080fd5b620003488164010000000062000470810204565b600160a060020a0381161515620003aa57600080fd5b620003bf8282640100000000620004d0810204565b15620003ca57600080fd5b600160a060020a0316600090815260209190915260409020805460ff19166001179055565b60006200026a60098364010000000062001016620004d082021704565b62000427600982640100000000620013ee6200050882021704565b604051600160a060020a038216907fe94479a9f7e1952cc78f2d6baab678adc1b772d936c6583def489e524cb6669290600090a250565b600054600160a060020a031633145b90565b600160a060020a03811615156200048657600080fd5b60008054604051600160a060020a038085169392169160008051602062001bca83398151915291a360008054600160a060020a031916600160a060020a0392909216919091179055565b6000600160a060020a0382161515620004e857600080fd5b50600160a060020a03166000908152602091909152604090205460ff1690565b600160a060020a03811615156200051e57600080fd5b620005338282640100000000620004d0810204565b15156200053f57600080fd5b600160a060020a0316600090815260209190915260409020805460ff19169055565b828054600181600116156101000203166002900490600052602060002090601f016020900481019282601f10620005a457805160ff1916838001178555620005d4565b82800160010185558215620005d4579182015b82811115620005d4578251825591602001919060010190620005b7565b50620005e2929150620005e6565b5090565b6200046d91905b80821115620005e25760008155600101620005ed565b6115b780620006136000396000f3fe6080604052600436106101ea576000357c01000000000000000000000000000000000000000000000000000000009004806370a0823111610114578063983b2d56116100b2578063aa271e1a11610081578063aa271e1a1461066d578063dd62ed3e146106a0578063f2fde38b146106db578063f956d9211461070e576101ea565b8063983b2d56146105b357806398650275146105e6578063a457c2d7146105fb578063a9059cbb14610634576101ea565b80638456cb59116100ee5780638456cb591461055f5780638da5cb5b146105745780638f32d59b1461058957806395d89b411461059e576101ea565b806370a08231146104e4578063715018a61461051757806382dc1ec41461052c576101ea565b80633f4ba83a1161018c5780634ea98d161161015b5780634ea98d16146104415780635c975abb146104875780636ef8d66d1461049c5780636f145dd2146104b1576101ea565b80633f4ba83a146103a957806340c10f19146103c057806341c0e1b5146103f957806346fbf68e1461040e576101ea565b806323b872dd116101c857806323b872dd146102ed578063313ce56714610330578063355274ea1461035b5780633950935114610370576101ea565b806306fdde03146101ef578063095ea7b31461027957806318160ddd146102c6575b600080fd5b3480156101fb57600080fd5b5061020461078e565b6040805160208082528351818301528351919283929083019185019080838360005b8381101561023e578181015183820152602001610226565b50505050905090810190601f16801561026b5780820380516001836020036101000a031916815260200191505b509250505060405180910390f35b34801561028557600080fd5b506102b26004803603604081101561029c57600080fd5b50600160a060020a038135169060200135610824565b604080519115158252519081900360200190f35b3480156102d257600080fd5b506102db61084a565b60408051918252519081900360200190f35b3480156102f957600080fd5b506102b26004803603606081101561031057600080fd5b50600160a060020a03813581169160208101359091169060400135610850565b34801561033c57600080fd5b50610345610909565b6040805160ff9092168252519081900360200190f35b34801561036757600080fd5b506102db610912565b34801561037c57600080fd5b506102b26004803603604081101561039357600080fd5b50600160a060020a038135169060200135610918565b3480156103b557600080fd5b506103be610935565b005b3480156103cc57600080fd5b506102b2600480360360408110156103e357600080fd5b50600160a060020a038135169060200135610999565b34801561040557600080fd5b506103be6109c2565b34801561041a57600080fd5b506102b26004803603602081101561043157600080fd5b5035600160a060020a03166109e8565b34801561044d57600080fd5b5061046b6004803603602081101561046457600080fd5b50356109fb565b60408051600160a060020a039092168252519081900360200190f35b34801561049357600080fd5b506102b2610a23565b3480156104a857600080fd5b506103be610a2c565b3480156104bd57600080fd5b506102b2600480360360208110156104d457600080fd5b5035600160a060020a0316610a37565b3480156104f057600080fd5b506102db6004803603602081101561050757600080fd5b5035600160a060020a0316610a4c565b34801561052357600080fd5b506103be610a67565b34801561053857600080fd5b506103be6004803603602081101561054f57600080fd5b5035600160a060020a0316610ad1565b34801561056b57600080fd5b506103be610af1565b34801561058057600080fd5b5061046b610b57565b34801561059557600080fd5b506102b2610b66565b3480156105aa57600080fd5b50610204610b77565b3480156105bf57600080fd5b506103be600480360360208110156105d657600080fd5b5035600160a060020a0316610bd8565b3480156105f257600080fd5b506103be610bf5565b34801561060757600080fd5b506102b26004803603604081101561061e57600080fd5b50600160a060020a038135169060200135610bfe565b34801561064057600080fd5b506102b26004803603604081101561065757600080fd5b50600160a060020a038135169060200135610c1b565b34801561067957600080fd5b506102b26004803603602081101561069057600080fd5b5035600160a060020a0316610ccb565b3480156106ac57600080fd5b506102db600480360360408110156106c357600080fd5b50600160a060020a0381358116916020013516610cde565b3480156106e757600080fd5b506103be600480360360208110156106fe57600080fd5b5035600160a060020a0316610d09565b34801561071a57600080fd5b5061073e6004803603604081101561073157600080fd5b5080359060200135610d25565b60408051602080825283518183015283519192839290830191858101910280838360005b8381101561077a578181015183820152602001610762565b505050509050019250505060405180910390f35b60068054604080516020601f600260001961010060018816150201909516949094049384018190048102820181019092528281526060939092909183018282801561081a5780601f106107ef5761010080835404028352916020019161081a565b820191906000526020600020905b8154815290600101906020018083116107fd57829003601f168201915b5050505050905090565b60055460009060ff161561083757600080fd5b6108418383610ea2565b90505b92915050565b60035490565b60055460009060ff161561086357600080fd5b600160a060020a0383166000908152600d602052604090205460ff1615156108f657600e805460018082019092557fbb7b4a454dc3493923482f07822329ed19e8244eff582cc204f8554c3620c3fd01805473ffffffffffffffffffffffffffffffffffffffff1916600160a060020a0386169081179091556000908152600d60205260409020805460ff191690911790555b610901848484610f20565b949350505050565b60085460ff1690565b600a5490565b60055460009060ff161561092b57600080fd5b6108418383610f3e565b61093e336109e8565b151561094957600080fd5b60055460ff16151561095a57600080fd5b6005805460ff191690556040805133815290517f5db9ee0a495bf2e6ff9c91a7834c1ba4fdd244a5e8aa4e537bd38aeae4b073aa9181900360200190a1565b60006109a433610ccb565b15156109af57600080fd5b6109b98383610fee565b50600192915050565b6109ca610b66565b15156109d557600080fd5b6109dd610b57565b600160a060020a0316ff5b600061084460048363ffffffff61101616565b600e805482908110610a0957fe5b600091825260209091200154600160a060020a0316905081565b60055460ff1690565b610a353361104d565b565b600d6020526000908152604090205460ff1681565b600160a060020a031660009081526001602052604090205490565b610a6f610b66565b1515610a7a57600080fd5b60008054604051600160a060020a03909116907f8be0079c531659141344cd1fd0a4f28419497f9722a3daafe3b4186f6b6457e0908390a36000805473ffffffffffffffffffffffffffffffffffffffff19169055565b610ada336109e8565b1515610ae557600080fd5b610aee81611095565b50565b610afa336109e8565b1515610b0557600080fd5b60055460ff1615610b1557600080fd5b6005805460ff191660011790556040805133815290517f62e78cea01bee320cd4e420270b5ea74000d11b0c9f74754ebdbfc544b05a2589181900360200190a1565b600054600160a060020a031690565b600054600160a060020a0316331490565b60078054604080516020601f600260001961010060018816150201909516949094049384018190048102820181019092528281526060939092909183018282801561081a5780601f106107ef5761010080835404028352916020019161081a565b610be133610ccb565b1515610bec57600080fd5b610aee816110dd565b610a3533611125565b60055460009060ff1615610c1157600080fd5b610841838361116d565b60055460009060ff1615610c2e57600080fd5b600160a060020a0383166000908152600d602052604090205460ff161515610cc157600e805460018082019092557fbb7b4a454dc3493923482f07822329ed19e8244eff582cc204f8554c3620c3fd01805473ffffffffffffffffffffffffffffffffffffffff1916600160a060020a0386169081179091556000908152600d60205260409020805460ff191690911790555b61084183836111b8565b600061084460098363ffffffff61101616565b600160a060020a03918216600090815260026020908152604080832093909416825291909152205490565b610d11610b66565b1515610d1c57600080fd5b610aee816111d5565b6060610d2f610b66565b1515610d3a57600080fd5b60008310158015610d4c5750600e5482105b1515610db957604080517f08c379a000000000000000000000000000000000000000000000000000000000815260206004820152601d60248201527f696e70757420706172616d65746572206973206e6f742076616c696465000000604482015290519081900360640190fd5b6060610ddc6001610dd0858763ffffffff61125216565b9063ffffffff61126716565b604051908082528060200260200182016040528015610e05578160200160208202803883390190505b509050835b83811015610e9a576000610e40600e83815481101515610e2657fe5b600091825260209091200154600160a060020a0316610a4c565b1115610e9257600e805482908110610e5457fe5b6000918252602090912001548251600160a060020a0390911690839083908110610e7a57fe5b600160a060020a039092166020928302909101909101525b600101610e0a565b509392505050565b6000600160a060020a0383161515610eb957600080fd5b336000818152600260209081526040808320600160a060020a03881680855290835292819020869055805186815290519293927f8c5be1e5ebec7d5bd14f71427d1e84f3dd0314c0f7b2291e5b200ac8c7c3b925929181900390910190a350600192915050565b60055460009060ff1615610f3357600080fd5b610901848484611279565b6000600160a060020a0383161515610f5557600080fd5b336000908152600260209081526040808320600160a060020a0387168452909152902054610f89908363ffffffff61126716565b336000818152600260209081526040808320600160a060020a0389168085529083529281902085905580519485525191937f8c5be1e5ebec7d5bd14f71427d1e84f3dd0314c0f7b2291e5b200ac8c7c3b925929081900390910190a350600192915050565b600a54610ffd82610dd061084a565b111561100857600080fd5b6110128282611342565b5050565b6000600160a060020a038216151561102d57600080fd5b50600160a060020a03166000908152602091909152604090205460ff1690565b61105e60048263ffffffff6113ee16565b604051600160a060020a038216907fcd265ebaf09df2871cc7bd4133404a235ba12eff2041bb89d9c714a2621c7c7e90600090a250565b6110a660048263ffffffff61143a16565b604051600160a060020a038216907f6719d08c1888103bea251a4ed56406bd0c3e69723c8a1686e017e7bbe159b6f890600090a250565b6110ee60098263ffffffff61143a16565b604051600160a060020a038216907f6ae172837ea30b801fbfcdd4108aa1d5bf8ff775444fd70256b44e6bf3dfc3f690600090a250565b61113660098263ffffffff6113ee16565b604051600160a060020a038216907fe94479a9f7e1952cc78f2d6baab678adc1b772d936c6583def489e524cb6669290600090a250565b6000600160a060020a038316151561118457600080fd5b336000908152600260209081526040808320600160a060020a0387168452909152902054610f89908363ffffffff61125216565b60055460009060ff16156111cb57600080fd5b6108418383611488565b600160a060020a03811615156111ea57600080fd5b60008054604051600160a060020a03808516939216917f8be0079c531659141344cd1fd0a4f28419497f9722a3daafe3b4186f6b6457e091a36000805473ffffffffffffffffffffffffffffffffffffffff1916600160a060020a0392909216919091179055565b60008282111561126157600080fd5b50900390565b60008282018381101561084157600080fd5b600160a060020a03831660009081526002602090815260408083203384529091528120546112ad908363ffffffff61125216565b600160a060020a03851660009081526002602090815260408083203384529091529020556112dc848484611491565b600160a060020a0384166000818152600260209081526040808320338085529083529281902054815190815290519293927f8c5be1e5ebec7d5bd14f71427d1e84f3dd0314c0f7b2291e5b200ac8c7c3b925929181900390910190a35060019392505050565b600160a060020a038216151561135757600080fd5b60035461136a908263ffffffff61126716565b600355600160a060020a038216600090815260016020526040902054611396908263ffffffff61126716565b600160a060020a03831660008181526001602090815260408083209490945583518581529351929391927fddf252ad1be2c89b69c2b068fc378daa952ba7f163c4a11628f55a4df523b3ef9281900390910190a35050565b600160a060020a038116151561140357600080fd5b61140d8282611016565b151561141857600080fd5b600160a060020a0316600090815260209190915260409020805460ff19169055565b600160a060020a038116151561144f57600080fd5b6114598282611016565b1561146357600080fd5b600160a060020a0316600090815260209190915260409020805460ff19166001179055565b60006109b93384845b600160a060020a03821615156114a657600080fd5b600160a060020a0383166000908152600160205260409020546114cf908263ffffffff61125216565b600160a060020a038085166000908152600160205260408082209390935590841681522054611504908263ffffffff61126716565b600160a060020a0380841660008181526001602090815260409182902094909455805185815290519193928716927fddf252ad1be2c89b69c2b068fc378daa952ba7f163c4a11628f55a4df523b3ef92918290030190a3505050565b600082151561157157506000610844565b82820282848281151561158057fe5b041461084157600080fdfea165627a7a72305820cd29718fd608d3fcffe717c62119c63931d3ab9590ded84847f684e04c4bed2800298be0079c531659141344cd1fd0a4f28419497f9722a3daafe3b4186f6b6457e0",
  "source": "pragma solidity 0.5.3;\n\nimport 'openzeppelin-solidity/contracts/token/ERC20/ERC20Capped.sol';\nimport 'openzeppelin-solidity/contracts/token/ERC20/ERC20Detailed.sol';\nimport 'openzeppelin-solidity/contracts/token/ERC20/ERC20Pausable.sol';\nimport 'openzeppelin-solidity/contracts/ownership/Ownable.sol';\n\n\n/**\n * @title Ocean Protocol ERC20 Token Contract\n * @author Ocean Protocol Team\n *\n * @dev Implementation of the Ocean Token.\n */\ncontract OceanToken is Ownable, ERC20Pausable, ERC20Detailed, ERC20Capped {\n\n\tusing SafeMath for uint256;\n\n\tuint256 CAP = 1410000000;\n\tuint256 TOTALSUPPLY = CAP.mul(10 ** 18);\n\n  // maintain the list of token holders\n  mapping (address => bool) public accountExist;\n  address[] public accountList;\n\n\t/**\n\t* @dev OceanToken constructor\n\t*      Runs only on initial contract creation.\n\t* @param _owner refers to the owner of the contract\n\t*/\n\tconstructor(\n\t\taddress _owner\n\t)\n\t\tpublic\n\t\tERC20Detailed('OceanToken', 'OCEAN', 18)\n\t\tERC20Capped(TOTALSUPPLY)\n\t\tOwnable()\n\t{\n\t\t// add owner as minter\n\t\taddMinter(_owner);\n\t\t// renounce msg.sender as minter\n\t\trenounceMinter();\n\t\t// transfer the ownership to the owner\n\t\ttransferOwnership(_owner);\n    // add owner to the account list\n    accountList.push(_owner);\n    accountExist[_owner] = true;\n\t}\n\n    // Pausable Transfer Functions\n    /**\n     * @dev Transfer tokens when not paused\n     **/\n    function transfer(address _to, uint256 _value) public whenNotPaused returns (bool) {\n        // add receiver into the account list if he/she is not in the list\n        if( accountExist[_to] == false ){\n          accountList.push(_to);\n          accountExist[_to] = true;\n        }\n        return super.transfer(_to, _value);\n    }\n\n    /**\n     * @dev transferFrom function to tansfer tokens when token is not paused\n     **/\n    function transferFrom(address _from, address _to, uint256 _value) public whenNotPaused returns (bool) {\n        // add receiver into the account list if he/she is not in the list\n        if( accountExist[_to] == false ){\n          accountList.push(_to);\n          accountExist[_to] = true;\n        }\n        return super.transferFrom(_from, _to, _value);\n    }\n\n    // retrieve the list of token holders (each time retrieve partial from the list to avoid out-of-gas error)\n    function getAccountList(uint256 begin, uint256 end) public view onlyOwner returns (address[] memory) {\n        // check input parameters are in the range\n        require( (begin >= 0 && end < accountList.length), 'input parameter is not valide');\n        address[] memory v = new address[](end.sub(begin).add(1));\n        for (uint256 i = begin; i < end; i++) {\n            // skip accounts whose balance is zero\n            if(super.balanceOf(accountList[i]) > 0){\n              v[i] = accountList[i];\n            }\n        }\n        return v;\n    }\n\n    // kill the contract and destroy all tokens\n  \tfunction kill()\n  \t\tpublic\n  \t\tonlyOwner\n  \t{\n  \t\tselfdestruct(address(uint160(owner())));\n  \t}\n\n  \tfunction()\n  \t\texternal payable\n  \t{\n  \t\trevert();\n  \t}\n}\n",
  "sourcePath": "/Users/fancy/Documents/Ocean Protocol/research/16-research-repo/research/5-token-migration/token-contract/contracts/OceanToken.sol",
  "compiler": {
    "name": "solc",
    "version": "0.5.3+commit.10d17f24.Emscripten.clang"
  },
  "schemaVersion": "3.0.1",
  "updatedAt": "2019-03-21T22:11:35.388Z",
  "devdoc": {
    "author": "Ocean Protocol Team",
    "details": "Implementation of the Ocean Token.",
    "methods": {
      "allowance(address,address)": {
        "details": "Function to check the amount of tokens that an owner allowed to a spender.",
        "params": {
          "owner": "address The address which owns the funds.",
          "spender": "address The address which will spend the funds."
        },
        "return": "A uint256 specifying the amount of tokens still available for the spender."
      },
      "balanceOf(address)": {
        "details": "Gets the balance of the specified address.",
        "params": {
          "owner": "The address to query the balance of."
        },
        "return": "An uint256 representing the amount owned by the passed address."
      },
      "cap()": {
        "return": "the cap for the token minting."
      },
      "constructor": {
        "details": "OceanToken constructor     Runs only on initial contract creation.",
        "params": {
          "_owner": "refers to the owner of the contract"
        }
      },
      "decimals()": {
        "return": "the number of decimals of the token."
      },
      "isOwner()": {
        "return": "true if `msg.sender` is the owner of the contract."
      },
      "mint(address,uint256)": {
        "details": "Function to mint tokens",
        "params": {
          "to": "The address that will receive the minted tokens.",
          "value": "The amount of tokens to mint."
        },
        "return": "A boolean that indicates if the operation was successful."
      },
      "name()": {
        "return": "the name of the token."
      },
      "owner()": {
        "return": "the address of the owner."
      },
      "pause()": {
        "details": "called by the owner to pause, triggers stopped state"
      },
      "paused()": {
        "return": "true if the contract is paused, false otherwise."
      },
      "renounceOwnership()": {
        "details": "Allows the current owner to relinquish control of the contract."
      },
      "symbol()": {
        "return": "the symbol of the token."
      },
      "totalSupply()": {
        "details": "Total number of tokens in existence"
      },
      "transfer(address,uint256)": {
        "details": "Transfer tokens when not paused*"
      },
      "transferFrom(address,address,uint256)": {
        "details": "transferFrom function to tansfer tokens when token is not paused*"
      },
      "transferOwnership(address)": {
        "details": "Allows the current owner to transfer control of the contract to a newOwner.",
        "params": {
          "newOwner": "The address to transfer ownership to."
        }
      },
      "unpause()": {
        "details": "called by the owner to unpause, returns to normal state"
      }
    },
    "title": "Ocean Protocol ERC20 Token Contract"
  },
  "userdoc": {
    "methods": {
      "renounceOwnership()": {
        "notice": "Renouncing to ownership will leave the contract without an owner. It will not be possible to call the functions with the `onlyOwner` modifier anymore."
      }
    }
  }
}