{
  "contractName": "Broker",
  "abi": [
    {
      "constant": true,
      "inputs": [],
      "name": "bonding",
      "outputs": [
        {
          "name": "",
          "type": "address"
        }
      ],
      "payable": false,
      "stateMutability": "view",
      "type": "function"
    },
    {
      "constant": true,
      "inputs": [],
      "name": "shortSeller",
      "outputs": [
        {
          "name": "",
          "type": "address"
        }
      ],
      "payable": false,
      "stateMutability": "view",
      "type": "function"
    },
    {
      "constant": true,
      "inputs": [],
      "name": "mToken",
      "outputs": [
        {
          "name": "",
          "type": "address"
        }
      ],
      "payable": false,
      "stateMutability": "view",
      "type": "function"
    },
    {
      "constant": true,
      "inputs": [],
      "name": "bondedToken",
      "outputs": [
        {
          "name": "",
          "type": "address"
        }
      ],
      "payable": false,
      "stateMutability": "view",
      "type": "function"
    },
    {
      "constant": true,
      "inputs": [],
      "name": "scale",
      "outputs": [
        {
          "name": "",
          "type": "uint256"
        }
      ],
      "payable": false,
      "stateMutability": "view",
      "type": "function"
    },
    {
      "inputs": [
        {
          "name": "_tokenAddress",
          "type": "address"
        },
        {
          "name": "_bcAddress",
          "type": "address"
        }
      ],
      "payable": false,
      "stateMutability": "nonpayable",
      "type": "constructor"
    },
    {
      "constant": true,
      "inputs": [],
      "name": "getSaleReturns",
      "outputs": [
        {
          "name": "",
          "type": "uint256"
        }
      ],
      "payable": false,
      "stateMutability": "view",
      "type": "function"
    },
    {
      "constant": true,
      "inputs": [],
      "name": "getTP",
      "outputs": [
        {
          "name": "",
          "type": "uint256"
        }
      ],
      "payable": false,
      "stateMutability": "view",
      "type": "function"
    },
    {
      "constant": false,
      "inputs": [
        {
          "name": "amount",
          "type": "uint256"
        }
      ],
      "name": "lenderSendTokens",
      "outputs": [],
      "payable": false,
      "stateMutability": "nonpayable",
      "type": "function"
    },
    {
      "constant": false,
      "inputs": [
        {
          "name": "lender",
          "type": "address"
        },
        {
          "name": "collateral",
          "type": "uint256"
        }
      ],
      "name": "shortSellTokens",
      "outputs": [],
      "payable": false,
      "stateMutability": "nonpayable",
      "type": "function"
    },
    {
      "constant": false,
      "inputs": [
        {
          "name": "num",
          "type": "uint256"
        }
      ],
      "name": "buyTokens",
      "outputs": [],
      "payable": false,
      "stateMutability": "nonpayable",
      "type": "function"
    }
  ],
  "bytecode": "0x608060405234801561001057600080fd5b50604051604080610bab833981016040528051602090910151600160a060020a03821615156100a057604080517f08c379a000000000000000000000000000000000000000000000000000000000815260206004820152601560248201527f546f6b656e2061646472657373206973203078302e0000000000000000000000604482015290519081900360640190fd5b60008054600160a060020a03808516600160a060020a0319928316178355670de0b6b3a76400006001556002805485831693169290921791829055604080517f10fe9ae8000000000000000000000000000000000000000000000000000000008152905192909116926310fe9ae8926004808401936020939083900390910190829087803b15801561013157600080fd5b505af1158015610145573d6000803e3d6000fd5b505050506040513d602081101561015b57600080fd5b505160038054600160a060020a031916600160a060020a0390921691909117905550610a1d90508061018e6000396000f3006080604052600436106100a35763ffffffff7c010000000000000000000000000000000000000000000000000000000060003504166302ddd78181146100a85780632e07a2df146100ce5780633610724e146100f55780637273018f1461010d5780639845755914610122578063a68901d414610153578063bce1c11f14610168578063c3b6f93914610180578063e36a4ec714610195578063f51e181a146101aa575b600080fd5b3480156100b457600080fd5b506100cc600160a060020a03600435166024356101bf565b005b3480156100da57600080fd5b506100e36105ee565b60408051918252519081900360200190f35b34801561010157600080fd5b506100cc600435610604565b34801561011957600080fd5b506100e36108db565b34801561012e57600080fd5b506101376108f1565b60408051600160a060020a039092168252519081900360200190f35b34801561015f57600080fd5b50610137610900565b34801561017457600080fd5b506100cc60043561090f565b34801561018c57600080fd5b506101376109cd565b3480156101a157600080fd5b506101376109dc565b3480156101b657600080fd5b506100e36109eb565b600033600660006101000a815481600160a060020a030219169083600160a060020a031602179055506101006040519081016040528084600160a060020a0316815260200133600160a060020a031681526020016004600086600160a060020a0316600160a060020a0316815260200190815260200160002054815260200160008152602001600081526020016000815260200160008152602001600015158152506005600033600160a060020a0316600160a060020a0316815260200190815260200160002060008201518160000160006101000a815481600160a060020a030219169083600160a060020a0316021790555060208201518160010160006101000a815481600160a060020a030219169083600160a060020a0316021790555060408201518160020155606082015181600301556080820151816004015560a0820151816005015560c0820151816006015560e08201518160070160006101000a81548160ff0219169083151502179055509050506000809054906101000a9004600160a060020a0316600160a060020a03166323b872dd3330856040518463ffffffff167c01000000000000000000000000000000000000000000000000000000000281526004018084600160a060020a0316600160a060020a0316815260200183600160a060020a0316600160a060020a031681526020018281526020019350505050602060405180830381600087803b1580156103df57600080fd5b505af11580156103f3573d6000803e3d6000fd5b505050506040513d602081101561040957600080fd5b5051151561041657600080fd5b503360009081526005602090815260408083206004908101859055600354600254600160a060020a0388811687528386528487205485517fa9059cbb0000000000000000000000000000000000000000000000000000000081529282169483019490945260248201939093529251911693849363a9059cbb936044808201949293918390030190829087803b1580156104ae57600080fd5b505af11580156104c2573d6000803e3d6000fd5b505050506040513d60208110156104d857600080fd5b5050600254600160a060020a0384811660009081526004602081815260408084205481517fc48d54f70000000000000000000000000000000000000000000000000000000081523094810194909452602484015251939094169363c48d54f79360448084019492939192918390030190829087803b15801561055957600080fd5b505af115801561056d573d6000803e3d6000fd5b505050506040513d602081101561058357600080fd5b505133600081815260056020818152604080842060038101879055600701805460ff19166001179055600160a060020a0389168452600482528320549390925290529083018115156105d157fe5b336000908152600560205260409020919004600690910155505050565b3360009081526005602052604090206006015490565b600254604080517fcc3d7af40000000000000000000000000000000000000000000000000000000081526004810184905281516000938493600160a060020a039091169263cc3d7af4926024808301939282900301818787803b15801561066a57600080fd5b505af115801561067e573d6000803e3d6000fd5b505050506040513d604081101561069457600080fd5b50805160209182015160068054600160a060020a031660009081526005909452604090932090920154909350909150821061083d5760008054600254604080517fa9059cbb000000000000000000000000000000000000000000000000000000008152600160a060020a039283166004820152602481018690529051919092169263a9059cbb92604480820193602093909283900390910190829087803b15801561073e57600080fd5b505af1158015610752573d6000803e3d6000fd5b505050506040513d602081101561076857600080fd5b5051151561077557600080fd5b600254600654600160a060020a0390811660009081526005602090815260408083205481517f75ed0e0e000000000000000000000000000000000000000000000000000000008152908516600482015260248101899052905193909416936375ed0e0e9360448083019491928390030190829087803b1580156107f757600080fd5b505af115801561080b573d6000803e3d6000fd5b505050506040513d602081101561082157600080fd5b5050336000908152600560205260409020600301805482900390555b600254604080517f86474132000000000000000000000000000000000000000000000000000000008152336004820152602481018690529051600160a060020a03909216916386474132916044808201926020929091908290030181600087803b1580156108aa57600080fd5b505af11580156108be573d6000803e3d6000fd5b505050506040513d60208110156108d457600080fd5b5050505050565b3360009081526005602052604090206003015490565b600254600160a060020a031681565b600654600160a060020a031681565b600354604080517f23b872dd000000000000000000000000000000000000000000000000000000008152336004820152306024820152604481018490529051600160a060020a039092169182916323b872dd9160648083019260209291908290030181600087803b15801561098357600080fd5b505af1158015610997573d6000803e3d6000fd5b505050506040513d60208110156109ad57600080fd5b505115156109ba57600080fd5b5033600090815260046020526040902055565b600054600160a060020a031681565b600354600160a060020a031681565b600154815600a165627a7a72305820b6f77478da49e59c148322c49c37c322a7cd14bd88b35d3d2a7816bb94ca39e40029",
  "source": "pragma solidity 0.4.25;\n\nimport '../library/Ownable.sol';\nimport \"../bonding/BondingCurve.sol\";\nimport '../token/Token.sol';\n\ncontract Broker {\n\n  using SafeMath for uint256;\n  using SafeMath for uint;\n\n  // global variables\n  Token  public  mToken;\n  uint256     public  scale;\n\n  BondingCurve public bonding;\n  ERC20Token public bondedToken;\n\n  struct Loan {\n    address lender;\n    address borrower;\n    uint256 bondedToken;\n    uint256 reserveToken;\n    uint256 collateral;\n    uint256 interest;\n    uint256 thresholdPrice;\n    bool    open;\n  }\n\n  mapping (address => uint256) mLenders;\n  mapping (address => Loan) mBorrowers;\n  address public shortSeller;\n\n  function getSaleReturns() public view returns (uint256) {\n      return mBorrowers[msg.sender].reserveToken;\n  }\n\n  function getTP() public view returns (uint256) {\n      return mBorrowers[msg.sender].thresholdPrice;\n  }\n  ///////////////////////////////////////////////////////////////////\n  //  initialize function\n  ///////////////////////////////////////////////////////////////////\n  constructor(address _tokenAddress, address _bcAddress) public {\n      require(_tokenAddress != address(0x0), 'Token address is 0x0.');\n      // instantiate Ocean token contract\n      mToken = Token(_tokenAddress);\n      // initialize variables\n      scale = 10 ** 18;\n      // instance\n      bonding = BondingCurve(_bcAddress);\n      bondedToken = ERC20Token(bonding.getTokenAddress());\n  }\n\n  function lenderSendTokens(uint256 amount) public {\n    ERC20Token _token = ERC20Token(bondedToken);\n    require(_token.transferFrom(msg.sender, address(this), amount));\n    mLenders[msg.sender] = amount;\n  }\n\n  function shortSellTokens(address lender, uint256 collateral) public {\n    shortSeller = msg.sender;\n    mBorrowers[msg.sender] = Loan(lender, msg.sender, mLenders[lender], 0, 0, 0, 0, false);\n    // transfer collateral\n    require(mToken.transferFrom(msg.sender, address(this), collateral));\n    // update\n    mBorrowers[msg.sender].collateral = collateral;\n    // sell borrowed tokens\n    ERC20Token _token = ERC20Token(bondedToken);\n    _token.transfer(address(bonding), mLenders[lender]);\n    mBorrowers[msg.sender].reserveToken = bonding.brokerSell(address(this), mLenders[lender]);\n    mBorrowers[msg.sender].open = true;\n    // thresholdPrice\n    mBorrowers[msg.sender].thresholdPrice =  (mBorrowers[msg.sender].reserveToken + collateral) / mLenders[lender];\n  }\n\n\n  function buyTokens(uint256 num) {\n    (uint256 endPrice, uint256 cost) = bonding.queryAfterBuyPrice(num);\n    if(endPrice >= mBorrowers[shortSeller].thresholdPrice) {\n          // cover short position\n          require(mToken.transfer(address(bonding), cost));\n          bonding.brokerCoverShort(mBorrowers[shortSeller].lender, num);\n          mBorrowers[msg.sender].reserveToken -= cost;\n    }\n\n    // buy after\n    bonding.brokerBuy(msg.sender, num);\n  }\n\n}\n",
  "sourcePath": "/Users/fancy/Documents/Ocean Protocol/research/16-research-repo/research/2-signaling-mechanism/2-shot-sell-bc/prototype/contracts/broker/Broker.sol",
  "compiler": {
    "name": "solc",
    "version": "0.4.25+commit.59dbf8f1.Emscripten.clang"
  },
  "schemaVersion": "3.0.1",
  "updatedAt": "2019-02-12T01:12:07.655Z",
  "devdoc": {
    "methods": {}
  },
  "userdoc": {
    "methods": {}
  }
}