{
  "contractName": "ERC20Token",
  "abi": [
    {
      "constant": false,
      "inputs": [
        {
          "name": "spender",
          "type": "address"
        },
        {
          "name": "value",
          "type": "uint256"
        }
      ],
      "name": "approve",
      "outputs": [
        {
          "name": "",
          "type": "bool"
        }
      ],
      "payable": false,
      "stateMutability": "nonpayable",
      "type": "function"
    },
    {
      "constant": true,
      "inputs": [],
      "name": "totalSupply",
      "outputs": [
        {
          "name": "",
          "type": "uint256"
        }
      ],
      "payable": false,
      "stateMutability": "view",
      "type": "function"
    },
    {
      "constant": false,
      "inputs": [
        {
          "name": "from",
          "type": "address"
        },
        {
          "name": "to",
          "type": "address"
        },
        {
          "name": "value",
          "type": "uint256"
        }
      ],
      "name": "transferFrom",
      "outputs": [
        {
          "name": "",
          "type": "bool"
        }
      ],
      "payable": false,
      "stateMutability": "nonpayable",
      "type": "function"
    },
    {
      "constant": false,
      "inputs": [
        {
          "name": "spender",
          "type": "address"
        },
        {
          "name": "addedValue",
          "type": "uint256"
        }
      ],
      "name": "increaseAllowance",
      "outputs": [
        {
          "name": "",
          "type": "bool"
        }
      ],
      "payable": false,
      "stateMutability": "nonpayable",
      "type": "function"
    },
    {
      "constant": true,
      "inputs": [
        {
          "name": "owner",
          "type": "address"
        }
      ],
      "name": "balanceOf",
      "outputs": [
        {
          "name": "",
          "type": "uint256"
        }
      ],
      "payable": false,
      "stateMutability": "view",
      "type": "function"
    },
    {
      "constant": false,
      "inputs": [
        {
          "name": "spender",
          "type": "address"
        },
        {
          "name": "subtractedValue",
          "type": "uint256"
        }
      ],
      "name": "decreaseAllowance",
      "outputs": [
        {
          "name": "",
          "type": "bool"
        }
      ],
      "payable": false,
      "stateMutability": "nonpayable",
      "type": "function"
    },
    {
      "constant": false,
      "inputs": [
        {
          "name": "to",
          "type": "address"
        },
        {
          "name": "value",
          "type": "uint256"
        }
      ],
      "name": "transfer",
      "outputs": [
        {
          "name": "",
          "type": "bool"
        }
      ],
      "payable": false,
      "stateMutability": "nonpayable",
      "type": "function"
    },
    {
      "constant": true,
      "inputs": [
        {
          "name": "owner",
          "type": "address"
        },
        {
          "name": "spender",
          "type": "address"
        }
      ],
      "name": "allowance",
      "outputs": [
        {
          "name": "",
          "type": "uint256"
        }
      ],
      "payable": false,
      "stateMutability": "view",
      "type": "function"
    },
    {
      "inputs": [
        {
          "name": "name",
          "type": "string"
        },
        {
          "name": "symbol",
          "type": "string"
        }
      ],
      "payable": false,
      "stateMutability": "nonpayable",
      "type": "constructor"
    },
    {
      "anonymous": false,
      "inputs": [
        {
          "indexed": true,
          "name": "from",
          "type": "address"
        },
        {
          "indexed": true,
          "name": "to",
          "type": "address"
        },
        {
          "indexed": false,
          "name": "value",
          "type": "uint256"
        }
      ],
      "name": "Transfer",
      "type": "event"
    },
    {
      "anonymous": false,
      "inputs": [
        {
          "indexed": true,
          "name": "owner",
          "type": "address"
        },
        {
          "indexed": true,
          "name": "spender",
          "type": "address"
        },
        {
          "indexed": false,
          "name": "value",
          "type": "uint256"
        }
      ],
      "name": "Approval",
      "type": "event"
    },
    {
      "constant": false,
      "inputs": [
        {
          "name": "to",
          "type": "address"
        },
        {
          "name": "value",
          "type": "uint256"
        }
      ],
      "name": "mint",
      "outputs": [
        {
          "name": "",
          "type": "bool"
        }
      ],
      "payable": false,
      "stateMutability": "nonpayable",
      "type": "function"
    },
    {
      "constant": false,
      "inputs": [
        {
          "name": "value",
          "type": "uint256"
        }
      ],
      "name": "burn",
      "outputs": [],
      "payable": false,
      "stateMutability": "nonpayable",
      "type": "function"
    },
    {
      "constant": false,
      "inputs": [
        {
          "name": "from",
          "type": "address"
        },
        {
          "name": "value",
          "type": "uint256"
        }
      ],
      "name": "burnFrom",
      "outputs": [],
      "payable": false,
      "stateMutability": "nonpayable",
      "type": "function"
    }
  ],
  "bytecode": "0x608060405234801561001057600080fd5b5060405161094e38038061094e8339810160405280516020808301519183018051909392909201916100489160039190850190610071565b50805161005c906004906020840190610071565b50506005805460ff191660121790555061010c565b828054600181600116156101000203166002900490600052602060002090601f016020900481019282601f106100b257805160ff19168380011785556100df565b828001600101855582156100df579182015b828111156100df5782518255916020019190600101906100c4565b506100eb9291506100ef565b5090565b61010991905b808211156100eb57600081556001016100f5565b90565b6108338061011b6000396000f3006080604052600436106100ae5763ffffffff7c0100000000000000000000000000000000000000000000000000000000600035041663095ea7b381146100b357806318160ddd146100eb57806323b872dd14610112578063395093511461013c57806340c10f191461016057806342966c681461018457806370a082311461019e57806379cc6790146101bf578063a457c2d7146101e3578063a9059cbb14610207578063dd62ed3e1461022b575b600080fd5b3480156100bf57600080fd5b506100d7600160a060020a0360043516602435610252565b604080519115158252519081900360200190f35b3480156100f757600080fd5b506101006102be565b60408051918252519081900360200190f35b34801561011e57600080fd5b506100d7600160a060020a03600435811690602435166044356102c4565b34801561014857600080fd5b506100d7600160a060020a036004351660243561037b565b34801561016c57600080fd5b506100d7600160a060020a0360043516602435610419565b34801561019057600080fd5b5061019c60043561042e565b005b3480156101aa57600080fd5b50610100600160a060020a036004351661043b565b3480156101cb57600080fd5b5061019c600160a060020a0360043516602435610456565b3480156101ef57600080fd5b506100d7600160a060020a0360043516602435610464565b34801561021357600080fd5b506100d7600160a060020a03600435166024356104af565b34801561023757600080fd5b50610100600160a060020a03600435811690602435166104bc565b6000600160a060020a038316151561026957600080fd5b336000818152600160209081526040808320600160a060020a03881680855290835292819020869055805186815290519293926000805160206107e8833981519152929181900390910190a350600192915050565b60025490565b600160a060020a03831660009081526001602090815260408083203384529091528120546102f8908363ffffffff6104e716565b600160a060020a03851660009081526001602090815260408083203384529091529020556103278484846104fe565b600160a060020a0384166000818152600160209081526040808320338085529083529281902054815190815290519293926000805160206107e8833981519152929181900390910190a35060019392505050565b6000600160a060020a038316151561039257600080fd5b336000908152600160209081526040808320600160a060020a03871684529091529020546103c6908363ffffffff6105cb16565b336000818152600160209081526040808320600160a060020a0389168085529083529281902085905580519485525191936000805160206107e8833981519152929081900390910190a350600192915050565b600061042583836105e4565b50600192915050565b610438338261068e565b50565b600160a060020a031660009081526020819052604090205490565b6104608282610737565b5050565b6000600160a060020a038316151561047b57600080fd5b336000908152600160209081526040808320600160a060020a03871684529091529020546103c6908363ffffffff6104e716565b60006104253384846104fe565b600160a060020a03918216600090815260016020908152604080832093909416825291909152205490565b600080838311156104f757600080fd5b5050900390565b600160a060020a038216151561051357600080fd5b600160a060020a03831660009081526020819052604090205461053c908263ffffffff6104e716565b600160a060020a038085166000908152602081905260408082209390935590841681522054610571908263ffffffff6105cb16565b600160a060020a038084166000818152602081815260409182902094909455805185815290519193928716927fddf252ad1be2c89b69c2b068fc378daa952ba7f163c4a11628f55a4df523b3ef92918290030190a3505050565b6000828201838110156105dd57600080fd5b9392505050565b600160a060020a03821615156105f957600080fd5b60025461060c908263ffffffff6105cb16565b600255600160a060020a038216600090815260208190526040902054610638908263ffffffff6105cb16565b600160a060020a0383166000818152602081815260408083209490945583518581529351929391927fddf252ad1be2c89b69c2b068fc378daa952ba7f163c4a11628f55a4df523b3ef9281900390910190a35050565b600160a060020a03821615156106a357600080fd5b6002546106b6908263ffffffff6104e716565b600255600160a060020a0382166000908152602081905260409020546106e2908263ffffffff6104e716565b600160a060020a038316600081815260208181526040808320949094558351858152935191937fddf252ad1be2c89b69c2b068fc378daa952ba7f163c4a11628f55a4df523b3ef929081900390910190a35050565b600160a060020a038216600090815260016020908152604080832033845290915290205461076b908263ffffffff6104e716565b600160a060020a0383166000908152600160209081526040808320338452909152902055610799828261068e565b600160a060020a0382166000818152600160209081526040808320338085529083529281902054815190815290519293926000805160206107e8833981519152929181900390910190a3505056008c5be1e5ebec7d5bd14f71427d1e84f3dd0314c0f7b2291e5b200ac8c7c3b925a165627a7a7230582021542b262b4393a6a8601c43cdfa2b5474f476c6f5d385270a7de015d8c531140029",
  "source": "pragma solidity 0.4.25;\n\nimport '../token/Token.sol';\n\n/**\n * @title linear Bonding Curve\n * @dev token holders can stake on assets through bonding curves and get bonded tokens.\n */\n\ncontract BondingCurve {\n\n    using SafeMath for uint256;\n    using SafeMath for uint;\n\n    // global variables\n    Token  public  mToken;\n    uint256     public  scale;\n\n    uint256  totalSupply = 0;\n    uint256  poolBalance = 0;\n    ERC20Token bondedToken;\n\n    mapping (address => uint256) balances;    // num of ocean tokens for each token holder\n\n    event buyBondedTokens(address indexed _requester, uint256 _ocn, uint256 _tokens);\n    event sellBondedTokens(address indexed _requester, uint256 _ocn, uint256 _tokens);\n\n    function getTokenAddress() view public returns (address){\n      return address(bondedToken);\n    }\n\n    function getPrice() view public returns (uint256) {\n        return totalSupply;\n    }\n\n    function getTokenBalance() view public returns (uint256) {\n        return bondedToken.balanceOf(msg.sender);\n    }\n\n    ///////////////////////////////////////////////////////////////////\n    //  initialize function\n    ///////////////////////////////////////////////////////////////////\n    constructor(address _tokenAddress) public {\n        require(_tokenAddress != address(0x0), 'Token address is 0x0.');\n        // instantiate Ocean token contract\n        mToken = Token(_tokenAddress);\n        // initialize variables\n        scale = 10 ** 18;\n        bondedToken = new ERC20Token(\"BondToken\", \"BT\");\n    }\n\n    // Testing: request initial fund transfer\n    function requestTokens(uint256 amount) public returns (uint256) {\n        require(msg.sender != 0x0);\n        require(mToken.transfer(msg.sender, amount));\n        return amount;\n    }\n\n    ///////////////////////////////////////////////////////////////////\n    // Bonding Curve Module\n    ///////////////////////////////////////////////////////////////////\n    function queryAfterBuyPrice(uint256 numTokens) public returns (uint256 price, uint256 cost) {\n        price = totalSupply + numTokens;\n        cost = (price.div(scale) ** 2 - totalSupply.div(scale) ** 2).div(2).mul(scale);\n    }\n\n    function brokerCoverShort(address lender, uint256 numTokens) public returns(uint256 cost) {\n        uint256 newSupply = totalSupply + numTokens;\n        // calculate the amount bonded tokens to be minted:\n        cost = (newSupply.div(scale) ** 2 - totalSupply.div(scale) ** 2).div(2).mul(scale);\n\n        // mint new bonded tokens\n        bondedToken.mint(lender, numTokens);\n        totalSupply += numTokens;\n        poolBalance += cost;\n\n        emit buyBondedTokens(lender, cost, numTokens);\n        return cost;\n    }\n\n    function brokerBuy(address buyer, uint256 numTokens) public returns(uint256 cost) {\n        uint256 newSupply = totalSupply + numTokens;\n        // calculate the amount bonded tokens to be minted:\n        cost = (newSupply.div(scale) ** 2 - totalSupply.div(scale) ** 2).div(2).mul(scale);\n\n        // transfer reserved tokens into contract for purchase\n        require(mToken.transferFrom(buyer, address(this), cost));\n\n        // mint new bonded tokens\n        bondedToken.mint(buyer, numTokens);\n        totalSupply += numTokens;\n        poolBalance += cost;\n\n        emit buyBondedTokens(buyer, cost, numTokens);\n        return cost;\n    }\n\n    /**\n     * @dev Buy 'numTokens' bonded tokens\n     */\n    function buy(uint256 numTokens) public returns(bool success) {\n        uint256 newSupply = totalSupply + numTokens;\n        // calculate the amount bonded tokens to be minted:\n        uint256 cost = (newSupply.div(scale) ** 2 - totalSupply.div(scale) ** 2).div(2).mul(scale);\n\n        // transfer reserved tokens into contract for purchase\n        require(mToken.transferFrom(msg.sender, address(this), cost));\n\n        // mint new bonded tokens\n        bondedToken.mint(msg.sender, numTokens);\n        totalSupply += numTokens;\n        poolBalance += cost;\n\n        emit buyBondedTokens(msg.sender, cost, numTokens);\n        return true;\n    }\n\n    /**\n     * @dev Sell tokens\n     * @param sellAmount Amount of tokens to withdraw\n     */\n    function sell(uint256 sellAmount) public returns(uint256 cost) {\n        ERC20Token _token = bondedToken;\n        require(sellAmount > 0 && _token.balanceOf(msg.sender) >= sellAmount, 'msg.sender has no enough balance.');\n\n        // calculate amount of Ocean tokens to withdraw\n        uint256 newSupply = totalSupply - sellAmount;\n        cost = (totalSupply.div(scale) ** 2 - newSupply.div(scale) ** 2).div(2).mul(scale);\n        require(mToken.balanceOf(address(this)) >= cost, 'contract has no enough Ocean token balance.');\n\n        // burn bonded tokens\n        bondedToken.burnFrom(msg.sender, sellAmount);\n\n        // release Ocean tokens\n        require(mToken.transfer(msg.sender, cost));\n        totalSupply -= sellAmount;\n        poolBalance -= cost;\n\n        emit sellBondedTokens(msg.sender, cost, sellAmount);\n        return cost;\n    }\n\n\n    function brokerSell(address seller, uint256 sellAmount) public returns(uint256 cost) {\n        ERC20Token _token = bondedToken;\n        //require(sellAmount > 0 && _token.balanceOf(seller) >= sellAmount, 'msg.sender has no enough balance.');\n\n        // calculate amount of Ocean tokens to withdraw\n        uint256 newSupply = totalSupply - sellAmount;\n        cost = (totalSupply.div(scale) ** 2 - newSupply.div(scale) ** 2).div(2).mul(scale);\n        require(mToken.balanceOf(address(this)) >= cost, 'contract has no enough Ocean token balance.');\n\n        // burn bonded tokens\n        bondedToken.burn(sellAmount);\n\n        // release Ocean tokens\n        require(mToken.transfer(seller, cost));\n        totalSupply -= sellAmount;\n        poolBalance -= cost;\n\n        emit sellBondedTokens(seller, cost, sellAmount);\n        return cost;\n    }\n\n\n}\n\n\ncontract ERC20Token is ERC20 {\n\n    string  private _name;\n    string  private _symbol;\n    uint8   private _decimals;\n\n    constructor (string name, string symbol) public {\n        _name = name;\n        _symbol = symbol;\n        _decimals = 18;\n    }\n\n    /**\n     * @dev Function to mint tokens\n     * @param to The address that will receive the minted tokens.\n     * @param value The amount of tokens to mint.\n     * @return A boolean that indicates if the operation was successful.\n     */\n    function mint(address to, uint256 value) public  returns (bool) {\n        _mint(to, value);\n        return true;\n    }\n\n    /**\n     * @dev Burns a specific amount of tokens.\n     * @param value The amount of token to be burned.\n     */\n    function burn(uint256 value) public  {\n        _burn(msg.sender, value);\n    }\n\n    /**\n     * @dev Burns a specific amount of tokens from the target address and decrements allowance\n     * @param from address The address which you want to send tokens from\n     * @param value uint256 The amount of token to be burned\n     */\n    function burnFrom(address from, uint256 value) public {\n        _burnFrom(from, value);\n    }\n\n}\n",
  "sourcePath": "/Users/fancy/Documents/Ocean Protocol/research/16-research-repo/research/2-signaling-mechanism/2-shot-sell-bc/prototype/contracts/bonding/BondingCurve.sol",
  "compiler": {
    "name": "solc",
    "version": "0.4.25+commit.59dbf8f1.Emscripten.clang"
  },
  "schemaVersion": "3.0.1",
  "updatedAt": "2019-02-12T01:12:07.660Z",
  "devdoc": {
    "methods": {
      "allowance(address,address)": {
        "details": "Function to check the amount of tokens that an owner allowed to a spender.",
        "params": {
          "owner": "address The address which owns the funds.",
          "spender": "address The address which will spend the funds."
        },
        "return": "A uint256 specifying the amount of tokens still available for the spender."
      },
      "approve(address,uint256)": {
        "details": "Approve the passed address to spend the specified amount of tokens on behalf of msg.sender. Beware that changing an allowance with this method brings the risk that someone may use both the old and the new allowance by unfortunate transaction ordering. One possible solution to mitigate this race condition is to first reduce the spender's allowance to 0 and set the desired value afterwards: https://github.com/ethereum/EIPs/issues/20#issuecomment-263524729",
        "params": {
          "spender": "The address which will spend the funds.",
          "value": "The amount of tokens to be spent."
        }
      },
      "balanceOf(address)": {
        "details": "Gets the balance of the specified address.",
        "params": {
          "owner": "The address to query the balance of."
        },
        "return": "An uint256 representing the amount owned by the passed address."
      },
      "burn(uint256)": {
        "details": "Burns a specific amount of tokens.",
        "params": {
          "value": "The amount of token to be burned."
        }
      },
      "burnFrom(address,uint256)": {
        "details": "Burns a specific amount of tokens from the target address and decrements allowance",
        "params": {
          "from": "address The address which you want to send tokens from",
          "value": "uint256 The amount of token to be burned"
        }
      },
      "decreaseAllowance(address,uint256)": {
        "details": "Decrease the amount of tokens that an owner allowed to a spender. approve should be called when allowed_[_spender] == 0. To decrement allowed value is better to use this function to avoid 2 calls (and wait until the first transaction is mined) From MonolithDAO Token.sol Emits an Approval event.",
        "params": {
          "spender": "The address which will spend the funds.",
          "subtractedValue": "The amount of tokens to decrease the allowance by."
        }
      },
      "increaseAllowance(address,uint256)": {
        "details": "Increase the amount of tokens that an owner allowed to a spender. approve should be called when allowed_[_spender] == 0. To increment allowed value is better to use this function to avoid 2 calls (and wait until the first transaction is mined) From MonolithDAO Token.sol Emits an Approval event.",
        "params": {
          "addedValue": "The amount of tokens to increase the allowance by.",
          "spender": "The address which will spend the funds."
        }
      },
      "mint(address,uint256)": {
        "details": "Function to mint tokens",
        "params": {
          "to": "The address that will receive the minted tokens.",
          "value": "The amount of tokens to mint."
        },
        "return": "A boolean that indicates if the operation was successful."
      },
      "totalSupply()": {
        "details": "Total number of tokens in existence"
      },
      "transfer(address,uint256)": {
        "details": "Transfer token for a specified address",
        "params": {
          "to": "The address to transfer to.",
          "value": "The amount to be transferred."
        }
      },
      "transferFrom(address,address,uint256)": {
        "details": "Transfer tokens from one address to another. Note that while this function emits an Approval event, this is not required as per the specification, and other compliant implementations may not emit the event.",
        "params": {
          "from": "address The address which you want to send tokens from",
          "to": "address The address which you want to transfer to",
          "value": "uint256 the amount of tokens to be transferred"
        }
      }
    }
  },
  "userdoc": {
    "methods": {}
  }
}