{
  "contractName": "OceanMarket",
  "abi": [
    {
      "inputs": [
        {
          "internalType": "address",
          "name": "_uniswapFactory",
          "type": "address"
        },
        {
          "internalType": "address",
          "name": "_token",
          "type": "address"
        }
      ],
      "payable": false,
      "stateMutability": "nonpayable",
      "type": "constructor"
    },
    {
      "payable": true,
      "stateMutability": "payable",
      "type": "fallback"
    },
    {
      "constant": true,
      "inputs": [],
      "name": "PPM",
      "outputs": [
        {
          "internalType": "uint256",
          "name": "",
          "type": "uint256"
        }
      ],
      "payable": false,
      "stateMutability": "view",
      "type": "function"
    },
    {
      "constant": true,
      "inputs": [],
      "name": "feePool",
      "outputs": [
        {
          "internalType": "uint256",
          "name": "",
          "type": "uint256"
        }
      ],
      "payable": false,
      "stateMutability": "view",
      "type": "function"
    },
    {
      "constant": true,
      "inputs": [],
      "name": "oceanFactory",
      "outputs": [
        {
          "internalType": "contract OceanFactory",
          "name": "",
          "type": "address"
        }
      ],
      "payable": false,
      "stateMutability": "view",
      "type": "function"
    },
    {
      "constant": true,
      "inputs": [],
      "name": "token",
      "outputs": [
        {
          "internalType": "contract IERC20",
          "name": "",
          "type": "address"
        }
      ],
      "payable": false,
      "stateMutability": "view",
      "type": "function"
    },
    {
      "constant": true,
      "inputs": [],
      "name": "uniswapExchange",
      "outputs": [
        {
          "internalType": "contract IUniswapExchange",
          "name": "",
          "type": "address"
        }
      ],
      "payable": false,
      "stateMutability": "view",
      "type": "function"
    },
    {
      "constant": true,
      "inputs": [],
      "name": "uniswapFactory",
      "outputs": [
        {
          "internalType": "contract IUniswapFactory",
          "name": "",
          "type": "address"
        }
      ],
      "payable": false,
      "stateMutability": "view",
      "type": "function"
    },
    {
      "constant": false,
      "inputs": [
        {
          "internalType": "uint256",
          "name": "amount",
          "type": "uint256"
        }
      ],
      "name": "escrow",
      "outputs": [],
      "payable": true,
      "stateMutability": "payable",
      "type": "function"
    },
    {
      "constant": false,
      "inputs": [
        {
          "internalType": "uint256",
          "name": "amount",
          "type": "uint256"
        }
      ],
      "name": "feelessEscrow",
      "outputs": [],
      "payable": false,
      "stateMutability": "nonpayable",
      "type": "function"
    },
    {
      "constant": false,
      "inputs": [],
      "name": "withdraw",
      "outputs": [],
      "payable": false,
      "stateMutability": "nonpayable",
      "type": "function"
    }
  ],
  "bytecode": "0x608060405234801561001057600080fd5b506040516112b53803806112b58339818101604052604081101561003357600080fd5b810190808051906020019092919080519060200190929190505050816000806101000a81548173ffffffffffffffffffffffffffffffffffffffff021916908373ffffffffffffffffffffffffffffffffffffffff1602179055506000809054906101000a900473ffffffffffffffffffffffffffffffffffffffff1673ffffffffffffffffffffffffffffffffffffffff166306f2bf62826040518263ffffffff1660e01b8152600401808273ffffffffffffffffffffffffffffffffffffffff1673ffffffffffffffffffffffffffffffffffffffff16815260200191505060206040518083038186803b15801561012c57600080fd5b505afa158015610140573d6000803e3d6000fd5b505050506040513d602081101561015657600080fd5b8101908080519060200190929190505050600160006101000a81548173ffffffffffffffffffffffffffffffffffffffff021916908373ffffffffffffffffffffffffffffffffffffffff16021790555080600260006101000a81548173ffffffffffffffffffffffffffffffffffffffff021916908373ffffffffffffffffffffffffffffffffffffffff16021790555033600360006101000a81548173ffffffffffffffffffffffffffffffffffffffff021916908373ffffffffffffffffffffffffffffffffffffffff160217905550600260009054906101000a900473ffffffffffffffffffffffffffffffffffffffff1673ffffffffffffffffffffffffffffffffffffffff1663095ea7b3600160009054906101000a900473ffffffffffffffffffffffffffffffffffffffff16600260009054906101000a900473ffffffffffffffffffffffffffffffffffffffff1673ffffffffffffffffffffffffffffffffffffffff166318160ddd6040518163ffffffff1660e01b815260040160206040518083038186803b1580156102f257600080fd5b505afa158015610306573d6000803e3d6000fd5b505050506040513d602081101561031c57600080fd5b81019080805190602001909291905050506040518363ffffffff1660e01b8152600401808373ffffffffffffffffffffffffffffffffffffffff1673ffffffffffffffffffffffffffffffffffffffff16815260200182815260200192505050602060405180830381600087803b15801561039657600080fd5b505af11580156103aa573d6000803e3d6000fd5b505050506040513d60208110156103c057600080fd5b8101908080519060200190929190505050505050610ed2806103e36000396000f3fe6080604052600436106100865760003560e01c80637983b97e116100595780637983b97e1461015c5780638bdb2afa146101b3578063ae2e933b1461020a578063d68ff19114610235578063fc0c546a1461026357610086565b8063034027d2146100885780630d720bbc146100c35780633ccfd60b146100ee57806362b856b514610105575b005b34801561009457600080fd5b506100c1600480360360208110156100ab57600080fd5b81019080803590602001909291905050506102ba565b005b3480156100cf57600080fd5b506100d8610532565b6040518082815260200191505060405180910390f35b3480156100fa57600080fd5b50610103610539565b005b34801561011157600080fd5b5061011a61078d565b604051808273ffffffffffffffffffffffffffffffffffffffff1673ffffffffffffffffffffffffffffffffffffffff16815260200191505060405180910390f35b34801561016857600080fd5b506101716107b3565b604051808273ffffffffffffffffffffffffffffffffffffffff1673ffffffffffffffffffffffffffffffffffffffff16815260200191505060405180910390f35b3480156101bf57600080fd5b506101c86107d9565b604051808273ffffffffffffffffffffffffffffffffffffffff1673ffffffffffffffffffffffffffffffffffffffff16815260200191505060405180910390f35b34801561021657600080fd5b5061021f6107fe565b6040518082815260200191505060405180910390f35b6102616004803603602081101561024b57600080fd5b8101908080359060200190929190505050610804565b005b34801561026f57600080fd5b50610278610b0a565b604051808273ffffffffffffffffffffffffffffffffffffffff1673ffffffffffffffffffffffffffffffffffffffff16815260200191505060405180910390f35b600360009054906101000a900473ffffffffffffffffffffffffffffffffffffffff1673ffffffffffffffffffffffffffffffffffffffff1663b97f1d13306040518263ffffffff1660e01b8152600401808273ffffffffffffffffffffffffffffffffffffffff1673ffffffffffffffffffffffffffffffffffffffff16815260200191505060206040518083038186803b15801561035957600080fd5b505afa15801561036d573d6000803e3d6000fd5b505050506040513d602081101561038357600080fd5b8101908080519060200190929190505050610406576040517f08c379a00000000000000000000000000000000000000000000000000000000081526004018080602001828103825260208152602001807f6572723a2073686f756c6420626520616e206f6365616e2065786368616e676581525060200191505060405180910390fd5b600260009054906101000a900473ffffffffffffffffffffffffffffffffffffffff1673ffffffffffffffffffffffffffffffffffffffff1663a9059cbb30836040518363ffffffff1660e01b8152600401808373ffffffffffffffffffffffffffffffffffffffff1673ffffffffffffffffffffffffffffffffffffffff16815260200182815260200192505050602060405180830381600087803b1580156104af57600080fd5b505af11580156104c3573d6000803e3d6000fd5b505050506040513d60208110156104d957600080fd5b81019080805190602001909291905050505080600560003373ffffffffffffffffffffffffffffffffffffffff1673ffffffffffffffffffffffffffffffffffffffff1681526020019081526020016000208190555050565b620f424081565b6000600560003373ffffffffffffffffffffffffffffffffffffffff1673ffffffffffffffffffffffffffffffffffffffff16815260200190815260200160002054116105ee576040517f08c379a000000000000000000000000000000000000000000000000000000000815260040180806020018281038252601f8152602001807f6572723a2073686f756c64206861766520657363726f772062616c616e63650081525060200191505060405180910390fd5b600260009054906101000a900473ffffffffffffffffffffffffffffffffffffffff1673ffffffffffffffffffffffffffffffffffffffff166323b872dd3033600560003373ffffffffffffffffffffffffffffffffffffffff1673ffffffffffffffffffffffffffffffffffffffff168152602001908152602001600020546040518463ffffffff1660e01b8152600401808473ffffffffffffffffffffffffffffffffffffffff1673ffffffffffffffffffffffffffffffffffffffff1681526020018373ffffffffffffffffffffffffffffffffffffffff1673ffffffffffffffffffffffffffffffffffffffff1681526020018281526020019350505050602060405180830381600087803b15801561070a57600080fd5b505af115801561071e573d6000803e3d6000fd5b505050506040513d602081101561073457600080fd5b8101908080519060200190929190505050506000600560003373ffffffffffffffffffffffffffffffffffffffff1673ffffffffffffffffffffffffffffffffffffffff16815260200190815260200160002081905550565b600160009054906101000a900473ffffffffffffffffffffffffffffffffffffffff1681565b600360009054906101000a900473ffffffffffffffffffffffffffffffffffffffff1681565b6000809054906101000a900473ffffffffffffffffffffffffffffffffffffffff1681565b60045481565b600360009054906101000a900473ffffffffffffffffffffffffffffffffffffffff1673ffffffffffffffffffffffffffffffffffffffff1663b97f1d13306040518263ffffffff1660e01b8152600401808273ffffffffffffffffffffffffffffffffffffffff1673ffffffffffffffffffffffffffffffffffffffff16815260200191505060206040518083038186803b1580156108a357600080fd5b505afa1580156108b7573d6000803e3d6000fd5b505050506040513d60208110156108cd57600080fd5b810190808051906020019092919050505015610934576040517f08c379a0000000000000000000000000000000000000000000000000000000008152600401808060200182810382526024815260200180610e596024913960400191505060405180910390fd5b600260009054906101000a900473ffffffffffffffffffffffffffffffffffffffff1673ffffffffffffffffffffffffffffffffffffffff166323b872dd3330846040518463ffffffff1660e01b8152600401808473ffffffffffffffffffffffffffffffffffffffff1673ffffffffffffffffffffffffffffffffffffffff1681526020018373ffffffffffffffffffffffffffffffffffffffff1673ffffffffffffffffffffffffffffffffffffffff1681526020018281526020019350505050602060405180830381600087803b158015610a1157600080fd5b505af1158015610a25573d6000803e3d6000fd5b505050506040513d6020811015610a3b57600080fd5b8101908080519060200190929190505050506000610a8c610a7d620f4240610a6f620e7ef086610b3090919063ffffffff16565b610bb690919063ffffffff16565b83610c0090919063ffffffff16565b9050610aa381600454610c4a90919063ffffffff16565b600481905550610abc8183610c0090919063ffffffff16565b600560003373ffffffffffffffffffffffffffffffffffffffff1673ffffffffffffffffffffffffffffffffffffffff16815260200190815260200160002081905550816004819055505050565b600260009054906101000a900473ffffffffffffffffffffffffffffffffffffffff1681565b600080831415610b435760009050610bb0565b6000828402905082848281610b5457fe5b0414610bab576040517f08c379a0000000000000000000000000000000000000000000000000000000008152600401808060200182810382526021815260200180610e7d6021913960400191505060405180910390fd5b809150505b92915050565b6000610bf883836040518060400160405280601a81526020017f536166654d6174683a206469766973696f6e206279207a65726f000000000000815250610cd2565b905092915050565b6000610c4283836040518060400160405280601e81526020017f536166654d6174683a207375627472616374696f6e206f766572666c6f770000815250610d98565b905092915050565b600080828401905083811015610cc8576040517f08c379a000000000000000000000000000000000000000000000000000000000815260040180806020018281038252601b8152602001807f536166654d6174683a206164646974696f6e206f766572666c6f77000000000081525060200191505060405180910390fd5b8091505092915050565b60008083118290610d7e576040517f08c379a00000000000000000000000000000000000000000000000000000000081526004018080602001828103825283818151815260200191508051906020019080838360005b83811015610d43578082015181840152602081019050610d28565b50505050905090810190601f168015610d705780820380516001836020036101000a031916815260200191505b509250505060405180910390fd5b506000838581610d8a57fe5b049050809150509392505050565b6000838311158290610e45576040517f08c379a00000000000000000000000000000000000000000000000000000000081526004018080602001828103825283818151815260200191508051906020019080838360005b83811015610e0a578082015181840152602081019050610def565b50505050905090810190601f168015610e375780820380516001836020036101000a031916815260200191505b509250505060405180910390fd5b506000838503905080915050939250505056fe6572723a2073686f756c64206e6f7420626520616e206f6365616e2065786368616e6765536166654d6174683a206d756c7469706c69636174696f6e206f766572666c6f77a265627a7a7231582001ebe7f3cdedb65a7772f766d9674900b6262da066e7bc7d9316cfc08b55ba7f64736f6c63430005100032",
  "source": "pragma solidity >=0.5.0 <0.6.0;\n\nimport './OceanFactory.sol';\nimport './uniswap_interfaces/IERC20.sol';\nimport './uniswap_interfaces/IUniswapFactory.sol';\nimport './uniswap_interfaces/IUniswapExchange.sol';\nimport '@openzeppelin/contracts/math/SafeMath.sol';\n\ncontract OceanMarket {\n\n\tusing SafeMath for uint256;\n\n\tIUniswapFactory  public uniswapFactory;\n\tIUniswapExchange public uniswapExchange;\n\tIERC20           public token;\n\tOceanFactory     public oceanFactory;\n\tuint256\t\t\t public feePool;\n\tuint256\t\t\t public constant PPM = 1000000;  \n\n\tmapping (address => uint256) escrowBalances;\n\n\tconstructor(address _uniswapFactory, address _token) public {\n\t\tuniswapFactory \t= IUniswapFactory(_uniswapFactory);\n\t\tuniswapExchange = IUniswapExchange(uniswapFactory.getExchange(_token)); \t \n\t\ttoken \t\t   \t= IERC20(_token);\n\t\toceanFactory   \t= OceanFactory(msg.sender);\n\n\t\ttoken.approve(address(uniswapExchange), token.totalSupply());\n\t}\n\n\tfunction escrow(uint256 amount) public payable {\n\t\trequire(!oceanFactory.isOceanMarket(address(this)), \n\t\t\t\"err: should not be an ocean exchange\");\n\t\ttoken.transferFrom(msg.sender, address(this), amount);\n\t\tuint256 fee = amount.sub((amount.mul(950000)).div(PPM));\n\t\tfeePool = feePool.add(fee);\n\t\tescrowBalances[msg.sender] = amount.sub(fee);\n\t\tfeePool = amount;\n\t\tif (feePool > 1000000) {\n\t\t\t_swapToOcean;\n\t\t}\n\t}\n\n\tfunction feelessEscrow(uint256 amount) public {\n\t\trequire(oceanFactory.isOceanMarket(address(this)), \n\t\t\t\"err: should be an ocean exchange\");\n\t\ttoken.transfer(address(this), amount);\n\t\tescrowBalances[msg.sender] = amount;\t\t\n\t}\n\n\tfunction _swapToOcean() private {\n\t\tuint256 swapAmount = ((feePool.mul(PPM)).div(2)).div(PPM);\n\t\t// uniswapExchange.tokenToTokenSwapInput(swapAmount, 1, 1, block.timestamp.add(100000), oceanToken);\n\t}\n\n\tfunction withdraw() public {\n\t\trequire(escrowBalances[msg.sender] > 0,\n\t\t\t\"err: should have escrow balance\");\n\t\ttoken.transferFrom(address(this), msg.sender, escrowBalances[msg.sender]);\n\t\tescrowBalances[msg.sender] = 0;\t\n\t}\n\n\t// fallback function\n\tfunction() external payable{\t\n\t\n\t}\n}\n",
  "sourcePath": "/home/x332/Projects/oceanprotocol/contracts-test-poc/contracts/OceanMarket.sol",
  "compiler": {
    "name": "solc",
    "version": "0.5.16+commit.9c3226ce.Emscripten.clang"
  },
  "schemaVersion": "3.0.23",
  "updatedAt": "2020-03-04T10:58:37.220Z",
  "devdoc": {
    "methods": {}
  },
  "userdoc": {
    "methods": {}
  }
}