{
  "contractName": "OceanToken",
  "abi": [
    {
      "inputs": [],
      "payable": false,
      "stateMutability": "nonpayable",
      "type": "constructor"
    },
    {
      "anonymous": false,
      "inputs": [
        {
          "indexed": true,
          "internalType": "address",
          "name": "owner",
          "type": "address"
        },
        {
          "indexed": true,
          "internalType": "address",
          "name": "spender",
          "type": "address"
        },
        {
          "indexed": false,
          "internalType": "uint256",
          "name": "value",
          "type": "uint256"
        }
      ],
      "name": "Approval",
      "type": "event"
    },
    {
      "anonymous": false,
      "inputs": [
        {
          "indexed": true,
          "internalType": "address",
          "name": "account",
          "type": "address"
        }
      ],
      "name": "MinterAdded",
      "type": "event"
    },
    {
      "anonymous": false,
      "inputs": [
        {
          "indexed": true,
          "internalType": "address",
          "name": "account",
          "type": "address"
        }
      ],
      "name": "MinterRemoved",
      "type": "event"
    },
    {
      "anonymous": false,
      "inputs": [
        {
          "indexed": true,
          "internalType": "address",
          "name": "previousOwner",
          "type": "address"
        },
        {
          "indexed": true,
          "internalType": "address",
          "name": "newOwner",
          "type": "address"
        }
      ],
      "name": "OwnershipTransferred",
      "type": "event"
    },
    {
      "anonymous": false,
      "inputs": [
        {
          "indexed": false,
          "internalType": "address",
          "name": "account",
          "type": "address"
        }
      ],
      "name": "Paused",
      "type": "event"
    },
    {
      "anonymous": false,
      "inputs": [
        {
          "indexed": true,
          "internalType": "address",
          "name": "account",
          "type": "address"
        }
      ],
      "name": "PauserAdded",
      "type": "event"
    },
    {
      "anonymous": false,
      "inputs": [
        {
          "indexed": true,
          "internalType": "address",
          "name": "account",
          "type": "address"
        }
      ],
      "name": "PauserRemoved",
      "type": "event"
    },
    {
      "anonymous": false,
      "inputs": [
        {
          "indexed": true,
          "internalType": "address",
          "name": "from",
          "type": "address"
        },
        {
          "indexed": true,
          "internalType": "address",
          "name": "to",
          "type": "address"
        },
        {
          "indexed": false,
          "internalType": "uint256",
          "name": "value",
          "type": "uint256"
        }
      ],
      "name": "Transfer",
      "type": "event"
    },
    {
      "anonymous": false,
      "inputs": [
        {
          "indexed": false,
          "internalType": "address",
          "name": "account",
          "type": "address"
        }
      ],
      "name": "Unpaused",
      "type": "event"
    },
    {
      "payable": true,
      "stateMutability": "payable",
      "type": "fallback"
    },
    {
      "constant": false,
      "inputs": [
        {
          "internalType": "address",
          "name": "account",
          "type": "address"
        }
      ],
      "name": "addMinter",
      "outputs": [],
      "payable": false,
      "stateMutability": "nonpayable",
      "type": "function"
    },
    {
      "constant": false,
      "inputs": [
        {
          "internalType": "address",
          "name": "account",
          "type": "address"
        }
      ],
      "name": "addPauser",
      "outputs": [],
      "payable": false,
      "stateMutability": "nonpayable",
      "type": "function"
    },
    {
      "constant": true,
      "inputs": [
        {
          "internalType": "address",
          "name": "owner",
          "type": "address"
        },
        {
          "internalType": "address",
          "name": "spender",
          "type": "address"
        }
      ],
      "name": "allowance",
      "outputs": [
        {
          "internalType": "uint256",
          "name": "",
          "type": "uint256"
        }
      ],
      "payable": false,
      "stateMutability": "view",
      "type": "function"
    },
    {
      "constant": false,
      "inputs": [
        {
          "internalType": "address",
          "name": "spender",
          "type": "address"
        },
        {
          "internalType": "uint256",
          "name": "value",
          "type": "uint256"
        }
      ],
      "name": "approve",
      "outputs": [
        {
          "internalType": "bool",
          "name": "",
          "type": "bool"
        }
      ],
      "payable": false,
      "stateMutability": "nonpayable",
      "type": "function"
    },
    {
      "constant": true,
      "inputs": [
        {
          "internalType": "address",
          "name": "account",
          "type": "address"
        }
      ],
      "name": "balanceOf",
      "outputs": [
        {
          "internalType": "uint256",
          "name": "",
          "type": "uint256"
        }
      ],
      "payable": false,
      "stateMutability": "view",
      "type": "function"
    },
    {
      "constant": true,
      "inputs": [],
      "name": "cap",
      "outputs": [
        {
          "internalType": "uint256",
          "name": "",
          "type": "uint256"
        }
      ],
      "payable": false,
      "stateMutability": "view",
      "type": "function"
    },
    {
      "constant": true,
      "inputs": [],
      "name": "decimals",
      "outputs": [
        {
          "internalType": "uint8",
          "name": "",
          "type": "uint8"
        }
      ],
      "payable": false,
      "stateMutability": "view",
      "type": "function"
    },
    {
      "constant": false,
      "inputs": [
        {
          "internalType": "address",
          "name": "spender",
          "type": "address"
        },
        {
          "internalType": "uint256",
          "name": "subtractedValue",
          "type": "uint256"
        }
      ],
      "name": "decreaseAllowance",
      "outputs": [
        {
          "internalType": "bool",
          "name": "",
          "type": "bool"
        }
      ],
      "payable": false,
      "stateMutability": "nonpayable",
      "type": "function"
    },
    {
      "constant": false,
      "inputs": [
        {
          "internalType": "address",
          "name": "spender",
          "type": "address"
        },
        {
          "internalType": "uint256",
          "name": "addedValue",
          "type": "uint256"
        }
      ],
      "name": "increaseAllowance",
      "outputs": [
        {
          "internalType": "bool",
          "name": "",
          "type": "bool"
        }
      ],
      "payable": false,
      "stateMutability": "nonpayable",
      "type": "function"
    },
    {
      "constant": true,
      "inputs": [
        {
          "internalType": "address",
          "name": "account",
          "type": "address"
        }
      ],
      "name": "isMinter",
      "outputs": [
        {
          "internalType": "bool",
          "name": "",
          "type": "bool"
        }
      ],
      "payable": false,
      "stateMutability": "view",
      "type": "function"
    },
    {
      "constant": true,
      "inputs": [],
      "name": "isOwner",
      "outputs": [
        {
          "internalType": "bool",
          "name": "",
          "type": "bool"
        }
      ],
      "payable": false,
      "stateMutability": "view",
      "type": "function"
    },
    {
      "constant": true,
      "inputs": [
        {
          "internalType": "address",
          "name": "account",
          "type": "address"
        }
      ],
      "name": "isPauser",
      "outputs": [
        {
          "internalType": "bool",
          "name": "",
          "type": "bool"
        }
      ],
      "payable": false,
      "stateMutability": "view",
      "type": "function"
    },
    {
      "constant": false,
      "inputs": [
        {
          "internalType": "address",
          "name": "account",
          "type": "address"
        },
        {
          "internalType": "uint256",
          "name": "amount",
          "type": "uint256"
        }
      ],
      "name": "mint",
      "outputs": [
        {
          "internalType": "bool",
          "name": "",
          "type": "bool"
        }
      ],
      "payable": false,
      "stateMutability": "nonpayable",
      "type": "function"
    },
    {
      "constant": true,
      "inputs": [],
      "name": "name",
      "outputs": [
        {
          "internalType": "string",
          "name": "",
          "type": "string"
        }
      ],
      "payable": false,
      "stateMutability": "view",
      "type": "function"
    },
    {
      "constant": true,
      "inputs": [],
      "name": "owner",
      "outputs": [
        {
          "internalType": "address",
          "name": "",
          "type": "address"
        }
      ],
      "payable": false,
      "stateMutability": "view",
      "type": "function"
    },
    {
      "constant": false,
      "inputs": [],
      "name": "pause",
      "outputs": [],
      "payable": false,
      "stateMutability": "nonpayable",
      "type": "function"
    },
    {
      "constant": true,
      "inputs": [],
      "name": "paused",
      "outputs": [
        {
          "internalType": "bool",
          "name": "",
          "type": "bool"
        }
      ],
      "payable": false,
      "stateMutability": "view",
      "type": "function"
    },
    {
      "constant": false,
      "inputs": [],
      "name": "renounceMinter",
      "outputs": [],
      "payable": false,
      "stateMutability": "nonpayable",
      "type": "function"
    },
    {
      "constant": false,
      "inputs": [],
      "name": "renounceOwnership",
      "outputs": [],
      "payable": false,
      "stateMutability": "nonpayable",
      "type": "function"
    },
    {
      "constant": false,
      "inputs": [],
      "name": "renouncePauser",
      "outputs": [],
      "payable": false,
      "stateMutability": "nonpayable",
      "type": "function"
    },
    {
      "constant": true,
      "inputs": [],
      "name": "symbol",
      "outputs": [
        {
          "internalType": "string",
          "name": "",
          "type": "string"
        }
      ],
      "payable": false,
      "stateMutability": "view",
      "type": "function"
    },
    {
      "constant": true,
      "inputs": [],
      "name": "totalSupply",
      "outputs": [
        {
          "internalType": "uint256",
          "name": "",
          "type": "uint256"
        }
      ],
      "payable": false,
      "stateMutability": "view",
      "type": "function"
    },
    {
      "constant": false,
      "inputs": [
        {
          "internalType": "address",
          "name": "newOwner",
          "type": "address"
        }
      ],
      "name": "transferOwnership",
      "outputs": [],
      "payable": false,
      "stateMutability": "nonpayable",
      "type": "function"
    },
    {
      "constant": false,
      "inputs": [],
      "name": "unpause",
      "outputs": [],
      "payable": false,
      "stateMutability": "nonpayable",
      "type": "function"
    },
    {
      "constant": false,
      "inputs": [
        {
          "internalType": "address",
          "name": "_to",
          "type": "address"
        },
        {
          "internalType": "uint256",
          "name": "_value",
          "type": "uint256"
        }
      ],
      "name": "transfer",
      "outputs": [
        {
          "internalType": "bool",
          "name": "",
          "type": "bool"
        }
      ],
      "payable": false,
      "stateMutability": "nonpayable",
      "type": "function"
    },
    {
      "constant": false,
      "inputs": [
        {
          "internalType": "address",
          "name": "_from",
          "type": "address"
        },
        {
          "internalType": "address",
          "name": "_to",
          "type": "address"
        },
        {
          "internalType": "uint256",
          "name": "_value",
          "type": "uint256"
        }
      ],
      "name": "transferFrom",
      "outputs": [
        {
          "internalType": "bool",
          "name": "",
          "type": "bool"
        }
      ],
      "payable": false,
      "stateMutability": "nonpayable",
      "type": "function"
    },
    {
      "constant": true,
      "inputs": [
        {
          "internalType": "uint256",
          "name": "_start",
          "type": "uint256"
        },
        {
          "internalType": "uint256",
          "name": "_end",
          "type": "uint256"
        }
      ],
      "name": "getAccounts",
      "outputs": [
        {
          "internalType": "address[]",
          "name": "",
          "type": "address[]"
        },
        {
          "internalType": "uint256[]",
          "name": "",
          "type": "uint256[]"
        }
      ],
      "payable": false,
      "stateMutability": "view",
      "type": "function"
    },
    {
      "constant": true,
      "inputs": [],
      "name": "getAccountsLength",
      "outputs": [
        {
          "internalType": "uint256",
          "name": "",
          "type": "uint256"
        }
      ],
      "payable": false,
      "stateMutability": "view",
      "type": "function"
    },
    {
      "constant": false,
      "inputs": [],
      "name": "kill",
      "outputs": [],
      "payable": false,
      "stateMutability": "nonpayable",
      "type": "function"
    }
  ],
  "bytecode": "0x608060405262000029601260ff16600a0a6353724e006200032e60201b62002d561790919060201c565b600b5560006040519080825280602002602001820160405280156200005d5781602001602082028038833980820191505090505b50600c90805190602001906200007592919062000bb5565b503480156200008357600080fd5b50600b546040518060400160405280600a81526020017f4f6365616e546f6b656e000000000000000000000000000000000000000000008152506040518060400160405280600581526020017f4f4345414e0000000000000000000000000000000000000000000000000000008152506012600062000107620003b960201b60201c565b9050806000806101000a81548173ffffffffffffffffffffffffffffffffffffffff021916908373ffffffffffffffffffffffffffffffffffffffff1602179055508073ffffffffffffffffffffffffffffffffffffffff16600073ffffffffffffffffffffffffffffffffffffffff167f8be0079c531659141344cd1fd0a4f28419497f9722a3daafe3b4186f6b6457e060405160405180910390a350620001c5620001b9620003b960201b60201c565b620003c160201b60201c565b6000600560006101000a81548160ff0219169083151502179055508260069080519060200190620001f892919062000c44565b5081600790805190602001906200021192919062000c44565b5080600860006101000a81548160ff021916908360ff1602179055505050506200025062000244620003b960201b60201c565b6200042260201b60201c565b60008111620002c7576040517f08c379a00000000000000000000000000000000000000000000000000000000081526004018080602001828103825260158152602001807f45524332304361707065643a206361702069732030000000000000000000000081525060200191505060405180910390fd5b80600a81905550506000339050620002e5816200048360201b60201c565b620002f56200050e60201b60201c565b62000306816200053060201b60201c565b62000316620005bb60201b60201c565b6200032781620005dd60201b60201c565b5062000d39565b600080831415620003435760009050620003b3565b60008284029050828482816200035557fe5b0414620003ae576040517f08c379a000000000000000000000000000000000000000000000000000000000815260040180806020018281038252602181526020018062003dec6021913960400191505060405180910390fd5b809150505b92915050565b600033905090565b620003dc8160046200067460201b620028e31790919060201c565b8073ffffffffffffffffffffffffffffffffffffffff167f6719d08c1888103bea251a4ed56406bd0c3e69723c8a1686e017e7bbe159b6f860405160405180910390a250565b6200043d8160096200067460201b620028e31790919060201c565b8073ffffffffffffffffffffffffffffffffffffffff167f6ae172837ea30b801fbfcdd4108aa1d5bf8ff775444fd70256b44e6bf3dfc3f660405160405180910390a250565b620004a362000497620003b960201b60201c565b6200075860201b60201c565b620004fa576040517f08c379a000000000000000000000000000000000000000000000000000000000815260040180806020018281038252603081526020018062003d456030913960400191505060405180910390fd5b6200050b81620003c160201b60201c565b50565b6200052e62000522620003b960201b60201c565b6200077c60201b60201c565b565b6200055062000544620003b960201b60201c565b620007dd60201b60201c565b620005a7576040517f08c379a000000000000000000000000000000000000000000000000000000000815260040180806020018281038252603081526020018062003d9b6030913960400191505060405180910390fd5b620005b8816200042260201b60201c565b50565b620005db620005cf620003b960201b60201c565b6200080160201b60201c565b565b620005ed6200086260201b60201c565b62000660576040517f08c379a00000000000000000000000000000000000000000000000000000000081526004018080602001828103825260208152602001807f4f776e61626c653a2063616c6c6572206973206e6f7420746865206f776e657281525060200191505060405180910390fd5b6200067181620008c860201b60201c565b50565b62000686828262000a0e60201b60201c565b15620006fa576040517f08c379a000000000000000000000000000000000000000000000000000000000815260040180806020018281038252601f8152602001807f526f6c65733a206163636f756e7420616c72656164792068617320726f6c650081525060200191505060405180910390fd5b60018260000160008373ffffffffffffffffffffffffffffffffffffffff1673ffffffffffffffffffffffffffffffffffffffff16815260200190815260200160002060006101000a81548160ff0219169083151502179055505050565b60006200077582600462000a0e60201b62001cb01790919060201c565b9050919050565b6200079781600462000aee60201b620028261790919060201c565b8073ffffffffffffffffffffffffffffffffffffffff167fcd265ebaf09df2871cc7bd4133404a235ba12eff2041bb89d9c714a2621c7c7e60405160405180910390a250565b6000620007fa82600962000a0e60201b62001cb01790919060201c565b9050919050565b6200081c81600962000aee60201b620028261790919060201c565b8073ffffffffffffffffffffffffffffffffffffffff167fe94479a9f7e1952cc78f2d6baab678adc1b772d936c6583def489e524cb6669260405160405180910390a250565b60008060009054906101000a900473ffffffffffffffffffffffffffffffffffffffff1673ffffffffffffffffffffffffffffffffffffffff16620008ac620003b960201b60201c565b73ffffffffffffffffffffffffffffffffffffffff1614905090565b600073ffffffffffffffffffffffffffffffffffffffff168173ffffffffffffffffffffffffffffffffffffffff16141562000950576040517f08c379a000000000000000000000000000000000000000000000000000000000815260040180806020018281038252602681526020018062003d756026913960400191505060405180910390fd5b8073ffffffffffffffffffffffffffffffffffffffff166000809054906101000a900473ffffffffffffffffffffffffffffffffffffffff1673ffffffffffffffffffffffffffffffffffffffff167f8be0079c531659141344cd1fd0a4f28419497f9722a3daafe3b4186f6b6457e060405160405180910390a3806000806101000a81548173ffffffffffffffffffffffffffffffffffffffff021916908373ffffffffffffffffffffffffffffffffffffffff16021790555050565b60008073ffffffffffffffffffffffffffffffffffffffff168273ffffffffffffffffffffffffffffffffffffffff16141562000a97576040517f08c379a000000000000000000000000000000000000000000000000000000000815260040180806020018281038252602281526020018062003e0d6022913960400191505060405180910390fd5b8260000160008373ffffffffffffffffffffffffffffffffffffffff1673ffffffffffffffffffffffffffffffffffffffff16815260200190815260200160002060009054906101000a900460ff16905092915050565b62000b00828262000a0e60201b60201c565b62000b57576040517f08c379a000000000000000000000000000000000000000000000000000000000815260040180806020018281038252602181526020018062003dcb6021913960400191505060405180910390fd5b60008260000160008373ffffffffffffffffffffffffffffffffffffffff1673ffffffffffffffffffffffffffffffffffffffff16815260200190815260200160002060006101000a81548160ff0219169083151502179055505050565b82805482825590600052602060002090810192821562000c31579160200282015b8281111562000c305782518260006101000a81548173ffffffffffffffffffffffffffffffffffffffff021916908373ffffffffffffffffffffffffffffffffffffffff1602179055509160200191906001019062000bd6565b5b50905062000c40919062000ccb565b5090565b828054600181600116156101000203166002900490600052602060002090601f016020900481019282601f1062000c8757805160ff191683800117855562000cb8565b8280016001018555821562000cb8579182015b8281111562000cb757825182559160200191906001019062000c9a565b5b50905062000cc7919062000d11565b5090565b62000d0e91905b8082111562000d0a57600081816101000a81549073ffffffffffffffffffffffffffffffffffffffff02191690555060010162000cd2565b5090565b90565b62000d3691905b8082111562000d3257600081600090555060010162000d18565b5090565b90565b612ffc8062000d496000396000f3fe6080604052600436106101c25760003560e01c806370a08231116100f7578063983b2d5611610095578063aa271e1a11610064578063aa271e1a14610983578063dd62ed3e146109ec578063e68a7c3b14610a71578063f2fde38b14610b53576101c2565b8063983b2d56146108355780639865027514610886578063a457c2d71461089d578063a9059cbb14610910576101c2565b80638456cb59116100d15780638456cb59146107085780638da5cb5b1461071f5780638f32d59b1461077657806395d89b41146107a5576101c2565b806370a082311461063b578063715018a6146106a057806382dc1ec4146106b7576101c2565b8063395093511161016457806341c0e1b51161013e57806341c0e1b51461057557806346fbf68e1461058c5780635c975abb146105f55780636ef8d66d14610624576101c2565b806339509351146104785780633f4ba83a146104eb57806340c10f1914610502576101c2565b806318160ddd116101a057806318160ddd1461035e57806323b872dd14610389578063313ce5671461041c578063355274ea1461044d576101c2565b806306fdde0314610230578063095ea7b3146102c057806314f326a114610333575b6040517f08c379a00000000000000000000000000000000000000000000000000000000081526004018080602001828103825260168152602001807f496e76616c6964206574686572207472616e736665720000000000000000000081525060200191505060405180910390fd5b34801561023c57600080fd5b50610245610ba4565b6040518080602001828103825283818151815260200191508051906020019080838360005b8381101561028557808201518184015260208101905061026a565b50505050905090810190601f1680156102b25780820380516001836020036101000a031916815260200191505b509250505060405180910390f35b3480156102cc57600080fd5b50610319600480360360408110156102e357600080fd5b81019080803573ffffffffffffffffffffffffffffffffffffffff16906020019092919080359060200190929190505050610c46565b604051808215151515815260200191505060405180910390f35b34801561033f57600080fd5b50610348610cdd565b6040518082815260200191505060405180910390f35b34801561036a57600080fd5b50610373610d64565b6040518082815260200191505060405180910390f35b34801561039557600080fd5b50610402600480360360608110156103ac57600080fd5b81019080803573ffffffffffffffffffffffffffffffffffffffff169060200190929190803573ffffffffffffffffffffffffffffffffffffffff16906020019092919080359060200190929190505050610d6e565b604051808215151515815260200191505060405180910390f35b34801561042857600080fd5b50610431610d9a565b604051808260ff1660ff16815260200191505060405180910390f35b34801561045957600080fd5b50610462610db1565b6040518082815260200191505060405180910390f35b34801561048457600080fd5b506104d16004803603604081101561049b57600080fd5b81019080803573ffffffffffffffffffffffffffffffffffffffff16906020019092919080359060200190929190505050610dbb565b604051808215151515815260200191505060405180910390f35b3480156104f757600080fd5b50610500610e52565b005b34801561050e57600080fd5b5061055b6004803603604081101561052557600080fd5b81019080803573ffffffffffffffffffffffffffffffffffffffff16906020019092919080359060200190929190505050610fc0565b604051808215151515815260200191505060405180910390f35b34801561058157600080fd5b5061058a61103b565b005b34801561059857600080fd5b506105db600480360360208110156105af57600080fd5b81019080803573ffffffffffffffffffffffffffffffffffffffff1690602001909291905050506110d5565b604051808215151515815260200191505060405180910390f35b34801561060157600080fd5b5061060a6110f2565b604051808215151515815260200191505060405180910390f35b34801561063057600080fd5b50610639611109565b005b34801561064757600080fd5b5061068a6004803603602081101561065e57600080fd5b81019080803573ffffffffffffffffffffffffffffffffffffffff16906020019092919050505061111b565b6040518082815260200191505060405180910390f35b3480156106ac57600080fd5b506106b5611164565b005b3480156106c357600080fd5b50610706600480360360208110156106da57600080fd5b81019080803573ffffffffffffffffffffffffffffffffffffffff16906020019092919050505061129d565b005b34801561071457600080fd5b5061071d61130e565b005b34801561072b57600080fd5b5061073461147d565b604051808273ffffffffffffffffffffffffffffffffffffffff1673ffffffffffffffffffffffffffffffffffffffff16815260200191505060405180910390f35b34801561078257600080fd5b5061078b6114a6565b604051808215151515815260200191505060405180910390f35b3480156107b157600080fd5b506107ba611504565b6040518080602001828103825283818151815260200191508051906020019080838360005b838110156107fa5780820151818401526020810190506107df565b50505050905090810190601f1680156108275780820380516001836020036101000a031916815260200191505b509250505060405180910390f35b34801561084157600080fd5b506108846004803603602081101561085857600080fd5b81019080803573ffffffffffffffffffffffffffffffffffffffff1690602001909291905050506115a6565b005b34801561089257600080fd5b5061089b611617565b005b3480156108a957600080fd5b506108f6600480360360408110156108c057600080fd5b81019080803573ffffffffffffffffffffffffffffffffffffffff16906020019092919080359060200190929190505050611629565b604051808215151515815260200191505060405180910390f35b34801561091c57600080fd5b506109696004803603604081101561093357600080fd5b81019080803573ffffffffffffffffffffffffffffffffffffffff169060200190929190803590602001909291905050506116c0565b604051808215151515815260200191505060405180910390f35b34801561098f57600080fd5b506109d2600480360360208110156109a657600080fd5b81019080803573ffffffffffffffffffffffffffffffffffffffff1690602001909291905050506116ea565b604051808215151515815260200191505060405180910390f35b3480156109f857600080fd5b50610a5b60048036036040811015610a0f57600080fd5b81019080803573ffffffffffffffffffffffffffffffffffffffff169060200190929190803573ffffffffffffffffffffffffffffffffffffffff169060200190929190505050611707565b6040518082815260200191505060405180910390f35b348015610a7d57600080fd5b50610ab460048036036040811015610a9457600080fd5b81019080803590602001909291908035906020019092919050505061178e565b604051808060200180602001838103835285818151815260200191508051906020019060200280838360005b83811015610afb578082015181840152602081019050610ae0565b50505050905001838103825284818151815260200191508051906020019060200280838360005b83811015610b3d578082015181840152602081019050610b22565b5050505090500194505050505060405180910390f35b348015610b5f57600080fd5b50610ba260048036036020811015610b7657600080fd5b81019080803573ffffffffffffffffffffffffffffffffffffffff169060200190929190505050611a03565b005b606060068054600181600116156101000203166002900480601f016020809104026020016040519081016040528092919081815260200182805460018160011615610100020316600290048015610c3c5780601f10610c1157610100808354040283529160200191610c3c565b820191906000526020600020905b815481529060010190602001808311610c1f57829003601f168201915b5050505050905090565b6000600560009054906101000a900460ff1615610ccb576040517f08c379a00000000000000000000000000000000000000000000000000000000081526004018080602001828103825260108152602001807f5061757361626c653a207061757365640000000000000000000000000000000081525060200191505060405180910390fd5b610cd58383611a89565b905092915050565b6000610ce76114a6565b610d59576040517f08c379a00000000000000000000000000000000000000000000000000000000081526004018080602001828103825260208152602001807f4f776e61626c653a2063616c6c6572206973206e6f7420746865206f776e657281525060200191505060405180910390fd5b600c80549050905090565b6000600354905090565b600080610d7c858585611aa7565b90508015610d8f57610d8e8585611b40565b5b809150509392505050565b6000600860009054906101000a900460ff16905090565b6000600a54905090565b6000600560009054906101000a900460ff1615610e40576040517f08c379a00000000000000000000000000000000000000000000000000000000081526004018080602001828103825260108152602001807f5061757361626c653a207061757365640000000000000000000000000000000081525060200191505060405180910390fd5b610e4a8383611b56565b905092915050565b610e62610e5d611c09565b6110d5565b610eb7576040517f08c379a0000000000000000000000000000000000000000000000000000000008152600401808060200182810382526030815260200180612e006030913960400191505060405180910390fd5b600560009054906101000a900460ff16610f39576040517f08c379a00000000000000000000000000000000000000000000000000000000081526004018080602001828103825260148152602001807f5061757361626c653a206e6f742070617573656400000000000000000000000081525060200191505060405180910390fd5b6000600560006101000a81548160ff0219169083151502179055507f5db9ee0a495bf2e6ff9c91a7834c1ba4fdd244a5e8aa4e537bd38aeae4b073aa610f7d611c09565b604051808273ffffffffffffffffffffffffffffffffffffffff1673ffffffffffffffffffffffffffffffffffffffff16815260200191505060405180910390a1565b6000610fd2610fcd611c09565b6116ea565b611027576040517f08c379a0000000000000000000000000000000000000000000000000000000008152600401808060200182810382526030815260200180612e9e6030913960400191505060405180910390fd5b6110318383611c11565b6001905092915050565b6110436114a6565b6110b5576040517f08c379a00000000000000000000000000000000000000000000000000000000081526004018080602001828103825260208152602001807f4f776e61626c653a2063616c6c6572206973206e6f7420746865206f776e657281525060200191505060405180910390fd5b6110bd61147d565b73ffffffffffffffffffffffffffffffffffffffff16ff5b60006110eb826004611cb090919063ffffffff16565b9050919050565b6000600560009054906101000a900460ff16905090565b611119611114611c09565b611d8e565b565b6000600160008373ffffffffffffffffffffffffffffffffffffffff1673ffffffffffffffffffffffffffffffffffffffff168152602001908152602001600020549050919050565b61116c6114a6565b6111de576040517f08c379a00000000000000000000000000000000000000000000000000000000081526004018080602001828103825260208152602001807f4f776e61626c653a2063616c6c6572206973206e6f7420746865206f776e657281525060200191505060405180910390fd5b600073ffffffffffffffffffffffffffffffffffffffff166000809054906101000a900473ffffffffffffffffffffffffffffffffffffffff1673ffffffffffffffffffffffffffffffffffffffff167f8be0079c531659141344cd1fd0a4f28419497f9722a3daafe3b4186f6b6457e060405160405180910390a360008060006101000a81548173ffffffffffffffffffffffffffffffffffffffff021916908373ffffffffffffffffffffffffffffffffffffffff160217905550565b6112ad6112a8611c09565b6110d5565b611302576040517f08c379a0000000000000000000000000000000000000000000000000000000008152600401808060200182810382526030815260200180612e006030913960400191505060405180910390fd5b61130b81611de8565b50565b61131e611319611c09565b6110d5565b611373576040517f08c379a0000000000000000000000000000000000000000000000000000000008152600401808060200182810382526030815260200180612e006030913960400191505060405180910390fd5b600560009054906101000a900460ff16156113f6576040517f08c379a00000000000000000000000000000000000000000000000000000000081526004018080602001828103825260108152602001807f5061757361626c653a207061757365640000000000000000000000000000000081525060200191505060405180910390fd5b6001600560006101000a81548160ff0219169083151502179055507f62e78cea01bee320cd4e420270b5ea74000d11b0c9f74754ebdbfc544b05a25861143a611c09565b604051808273ffffffffffffffffffffffffffffffffffffffff1673ffffffffffffffffffffffffffffffffffffffff16815260200191505060405180910390a1565b60008060009054906101000a900473ffffffffffffffffffffffffffffffffffffffff16905090565b60008060009054906101000a900473ffffffffffffffffffffffffffffffffffffffff1673ffffffffffffffffffffffffffffffffffffffff166114e8611c09565b73ffffffffffffffffffffffffffffffffffffffff1614905090565b606060078054600181600116156101000203166002900480601f01602080910402602001604051908101604052809291908181526020018280546001816001161561010002031660029004801561159c5780601f106115715761010080835404028352916020019161159c565b820191906000526020600020905b81548152906001019060200180831161157f57829003601f168201915b5050505050905090565b6115b66115b1611c09565b6116ea565b61160b576040517f08c379a0000000000000000000000000000000000000000000000000000000008152600401808060200182810382526030815260200180612e9e6030913960400191505060405180910390fd5b61161481611e42565b50565b611627611622611c09565b611e9c565b565b6000600560009054906101000a900460ff16156116ae576040517f08c379a00000000000000000000000000000000000000000000000000000000081526004018080602001828103825260108152602001807f5061757361626c653a207061757365640000000000000000000000000000000081525060200191505060405180910390fd5b6116b88383611ef6565b905092915050565b6000806116cd8484611fc3565b905080156116e0576116df3385611b40565b5b8091505092915050565b6000611700826009611cb090919063ffffffff16565b9050919050565b6000600260008473ffffffffffffffffffffffffffffffffffffffff1673ffffffffffffffffffffffffffffffffffffffff16815260200190815260200160002060008373ffffffffffffffffffffffffffffffffffffffff1673ffffffffffffffffffffffffffffffffffffffff16815260200190815260200160002054905092915050565b6060806117996114a6565b61180b576040517f08c379a00000000000000000000000000000000000000000000000000000000081526004018080602001828103825260208152602001807f4f776e61626c653a2063616c6c6572206973206e6f7420746865206f776e657281525060200191505060405180910390fd5b82841115801561181f5750600c8054905083105b611891576040517f08c379a00000000000000000000000000000000000000000000000000000000081526004018080602001828103825260198152602001807f417272617920696e646578206f7574206f6620626f756e64730000000000000081525060200191505060405180910390fd5b60006118b960016118ab878761205a90919063ffffffff16565b6120a490919063ffffffff16565b90506060816040519080825280602002602001820160405280156118ec5781602001602082028038833980820191505090505b5090506060826040519080825280602002602001820160405280156119205781602001602082028038833980820191505090505b50905060008790505b8681116119f2576000600c828154811061193f57fe5b9060005260206000200160009054906101000a900473ffffffffffffffffffffffffffffffffffffffff16905060006119778261111b565b905060008111156119e3578084848151811061198f57fe5b602002602001018181525050818584815181106119a857fe5b602002602001019073ffffffffffffffffffffffffffffffffffffffff16908173ffffffffffffffffffffffffffffffffffffffff16815250505b50508080600101915050611929565b508181945094505050509250929050565b611a0b6114a6565b611a7d576040517f08c379a00000000000000000000000000000000000000000000000000000000081526004018080602001828103825260208152602001807f4f776e61626c653a2063616c6c6572206973206e6f7420746865206f776e657281525060200191505060405180910390fd5b611a868161212c565b50565b6000611a9d611a96611c09565b8484612270565b6001905092915050565b6000600560009054906101000a900460ff1615611b2c576040517f08c379a00000000000000000000000000000000000000000000000000000000081526004018080602001828103825260108152602001807f5061757361626c653a207061757365640000000000000000000000000000000081525060200191505060405180910390fd5b611b37848484612467565b90509392505050565b611b4982612540565b611b5281612540565b5050565b6000611bff611b63611c09565b84611bfa8560026000611b74611c09565b73ffffffffffffffffffffffffffffffffffffffff1673ffffffffffffffffffffffffffffffffffffffff16815260200190815260200160002060008973ffffffffffffffffffffffffffffffffffffffff1673ffffffffffffffffffffffffffffffffffffffff168152602001908152602001600020546120a490919063ffffffff16565b612270565b6001905092915050565b600033905090565b600a54611c2e82611c20610d64565b6120a490919063ffffffff16565b1115611ca2576040517f08c379a00000000000000000000000000000000000000000000000000000000081526004018080602001828103825260198152602001807f45524332304361707065643a206361702065786365656465640000000000000081525060200191505060405180910390fd5b611cac8282612669565b5050565b60008073ffffffffffffffffffffffffffffffffffffffff168273ffffffffffffffffffffffffffffffffffffffff161415611d37576040517f08c379a0000000000000000000000000000000000000000000000000000000008152600401808060200182810382526022815260200180612f386022913960400191505060405180910390fd5b8260000160008373ffffffffffffffffffffffffffffffffffffffff1673ffffffffffffffffffffffffffffffffffffffff16815260200190815260200160002060009054906101000a900460ff16905092915050565b611da281600461282690919063ffffffff16565b8073ffffffffffffffffffffffffffffffffffffffff167fcd265ebaf09df2871cc7bd4133404a235ba12eff2041bb89d9c714a2621c7c7e60405160405180910390a250565b611dfc8160046128e390919063ffffffff16565b8073ffffffffffffffffffffffffffffffffffffffff167f6719d08c1888103bea251a4ed56406bd0c3e69723c8a1686e017e7bbe159b6f860405160405180910390a250565b611e568160096128e390919063ffffffff16565b8073ffffffffffffffffffffffffffffffffffffffff167f6ae172837ea30b801fbfcdd4108aa1d5bf8ff775444fd70256b44e6bf3dfc3f660405160405180910390a250565b611eb081600961282690919063ffffffff16565b8073ffffffffffffffffffffffffffffffffffffffff167fe94479a9f7e1952cc78f2d6baab678adc1b772d936c6583def489e524cb6669260405160405180910390a250565b6000611fb9611f03611c09565b84611fb485604051806060016040528060258152602001612fa36025913960026000611f2d611c09565b73ffffffffffffffffffffffffffffffffffffffff1673ffffffffffffffffffffffffffffffffffffffff16815260200190815260200160002060008a73ffffffffffffffffffffffffffffffffffffffff1673ffffffffffffffffffffffffffffffffffffffff168152602001908152602001600020546129be9092919063ffffffff16565b612270565b6001905092915050565b6000600560009054906101000a900460ff1615612048576040517f08c379a00000000000000000000000000000000000000000000000000000000081526004018080602001828103825260108152602001807f5061757361626c653a207061757365640000000000000000000000000000000081525060200191505060405180910390fd5b6120528383612a7e565b905092915050565b600061209c83836040518060400160405280601e81526020017f536166654d6174683a207375627472616374696f6e206f766572666c6f7700008152506129be565b905092915050565b600080828401905083811015612122576040517f08c379a000000000000000000000000000000000000000000000000000000000815260040180806020018281038252601b8152602001807f536166654d6174683a206164646974696f6e206f766572666c6f77000000000081525060200191505060405180910390fd5b8091505092915050565b600073ffffffffffffffffffffffffffffffffffffffff168173ffffffffffffffffffffffffffffffffffffffff1614156121b2576040517f08c379a0000000000000000000000000000000000000000000000000000000008152600401808060200182810382526026815260200180612e306026913960400191505060405180910390fd5b8073ffffffffffffffffffffffffffffffffffffffff166000809054906101000a900473ffffffffffffffffffffffffffffffffffffffff1673ffffffffffffffffffffffffffffffffffffffff167f8be0079c531659141344cd1fd0a4f28419497f9722a3daafe3b4186f6b6457e060405160405180910390a3806000806101000a81548173ffffffffffffffffffffffffffffffffffffffff021916908373ffffffffffffffffffffffffffffffffffffffff16021790555050565b600073ffffffffffffffffffffffffffffffffffffffff168373ffffffffffffffffffffffffffffffffffffffff1614156122f6576040517f08c379a0000000000000000000000000000000000000000000000000000000008152600401808060200182810382526024815260200180612f7f6024913960400191505060405180910390fd5b600073ffffffffffffffffffffffffffffffffffffffff168273ffffffffffffffffffffffffffffffffffffffff16141561237c576040517f08c379a0000000000000000000000000000000000000000000000000000000008152600401808060200182810382526022815260200180612e566022913960400191505060405180910390fd5b80600260008573ffffffffffffffffffffffffffffffffffffffff1673ffffffffffffffffffffffffffffffffffffffff16815260200190815260200160002060008473ffffffffffffffffffffffffffffffffffffffff1673ffffffffffffffffffffffffffffffffffffffff168152602001908152602001600020819055508173ffffffffffffffffffffffffffffffffffffffff168373ffffffffffffffffffffffffffffffffffffffff167f8c5be1e5ebec7d5bd14f71427d1e84f3dd0314c0f7b2291e5b200ac8c7c3b925836040518082815260200191505060405180910390a3505050565b6000612474848484612a9c565b61253584612480611c09565b61253085604051806060016040528060288152602001612f1060289139600260008b73ffffffffffffffffffffffffffffffffffffffff1673ffffffffffffffffffffffffffffffffffffffff16815260200190815260200160002060006124e6611c09565b73ffffffffffffffffffffffffffffffffffffffff1673ffffffffffffffffffffffffffffffffffffffff168152602001908152602001600020546129be9092919063ffffffff16565b612270565b600190509392505050565b600d60008273ffffffffffffffffffffffffffffffffffffffff1673ffffffffffffffffffffffffffffffffffffffff16815260200190815260200160002060009054906101000a900460ff161580156125a2575060006125a08261111b565b115b1561266657600c8190806001815401808255809150509060018203906000526020600020016000909192909190916101000a81548173ffffffffffffffffffffffffffffffffffffffff021916908373ffffffffffffffffffffffffffffffffffffffff160217905550506001600d60008373ffffffffffffffffffffffffffffffffffffffff1673ffffffffffffffffffffffffffffffffffffffff16815260200190815260200160002060006101000a81548160ff0219169083151502179055505b50565b600073ffffffffffffffffffffffffffffffffffffffff168273ffffffffffffffffffffffffffffffffffffffff16141561270c576040517f08c379a000000000000000000000000000000000000000000000000000000000815260040180806020018281038252601f8152602001807f45524332303a206d696e7420746f20746865207a65726f20616464726573730081525060200191505060405180910390fd5b612721816003546120a490919063ffffffff16565b60038190555061277981600160008573ffffffffffffffffffffffffffffffffffffffff1673ffffffffffffffffffffffffffffffffffffffff168152602001908152602001600020546120a490919063ffffffff16565b600160008473ffffffffffffffffffffffffffffffffffffffff1673ffffffffffffffffffffffffffffffffffffffff168152602001908152602001600020819055508173ffffffffffffffffffffffffffffffffffffffff16600073ffffffffffffffffffffffffffffffffffffffff167fddf252ad1be2c89b69c2b068fc378daa952ba7f163c4a11628f55a4df523b3ef836040518082815260200191505060405180910390a35050565b6128308282611cb0565b612885576040517f08c379a0000000000000000000000000000000000000000000000000000000008152600401808060200182810382526021815260200180612ece6021913960400191505060405180910390fd5b60008260000160008373ffffffffffffffffffffffffffffffffffffffff1673ffffffffffffffffffffffffffffffffffffffff16815260200190815260200160002060006101000a81548160ff0219169083151502179055505050565b6128ed8282611cb0565b15612960576040517f08c379a000000000000000000000000000000000000000000000000000000000815260040180806020018281038252601f8152602001807f526f6c65733a206163636f756e7420616c72656164792068617320726f6c650081525060200191505060405180910390fd5b60018260000160008373ffffffffffffffffffffffffffffffffffffffff1673ffffffffffffffffffffffffffffffffffffffff16815260200190815260200160002060006101000a81548160ff0219169083151502179055505050565b6000838311158290612a6b576040517f08c379a00000000000000000000000000000000000000000000000000000000081526004018080602001828103825283818151815260200191508051906020019080838360005b83811015612a30578082015181840152602081019050612a15565b50505050905090810190601f168015612a5d5780820380516001836020036101000a031916815260200191505b509250505060405180910390fd5b5060008385039050809150509392505050565b6000612a92612a8b611c09565b8484612a9c565b6001905092915050565b600073ffffffffffffffffffffffffffffffffffffffff168373ffffffffffffffffffffffffffffffffffffffff161415612b22576040517f08c379a0000000000000000000000000000000000000000000000000000000008152600401808060200182810382526025815260200180612f5a6025913960400191505060405180910390fd5b600073ffffffffffffffffffffffffffffffffffffffff168273ffffffffffffffffffffffffffffffffffffffff161415612ba8576040517f08c379a0000000000000000000000000000000000000000000000000000000008152600401808060200182810382526023815260200180612ddd6023913960400191505060405180910390fd5b612c1481604051806060016040528060268152602001612e7860269139600160008773ffffffffffffffffffffffffffffffffffffffff1673ffffffffffffffffffffffffffffffffffffffff168152602001908152602001600020546129be9092919063ffffffff16565b600160008573ffffffffffffffffffffffffffffffffffffffff1673ffffffffffffffffffffffffffffffffffffffff16815260200190815260200160002081905550612ca981600160008573ffffffffffffffffffffffffffffffffffffffff1673ffffffffffffffffffffffffffffffffffffffff168152602001908152602001600020546120a490919063ffffffff16565b600160008473ffffffffffffffffffffffffffffffffffffffff1673ffffffffffffffffffffffffffffffffffffffff168152602001908152602001600020819055508173ffffffffffffffffffffffffffffffffffffffff168373ffffffffffffffffffffffffffffffffffffffff167fddf252ad1be2c89b69c2b068fc378daa952ba7f163c4a11628f55a4df523b3ef836040518082815260200191505060405180910390a3505050565b600080831415612d695760009050612dd6565b6000828402905082848281612d7a57fe5b0414612dd1576040517f08c379a0000000000000000000000000000000000000000000000000000000008152600401808060200182810382526021815260200180612eef6021913960400191505060405180910390fd5b809150505b9291505056fe45524332303a207472616e7366657220746f20746865207a65726f2061646472657373506175736572526f6c653a2063616c6c657220646f6573206e6f742068617665207468652050617573657220726f6c654f776e61626c653a206e6577206f776e657220697320746865207a65726f206164647265737345524332303a20617070726f766520746f20746865207a65726f206164647265737345524332303a207472616e7366657220616d6f756e7420657863656564732062616c616e63654d696e746572526f6c653a2063616c6c657220646f6573206e6f74206861766520746865204d696e74657220726f6c65526f6c65733a206163636f756e7420646f6573206e6f74206861766520726f6c65536166654d6174683a206d756c7469706c69636174696f6e206f766572666c6f7745524332303a207472616e7366657220616d6f756e74206578636565647320616c6c6f77616e6365526f6c65733a206163636f756e7420697320746865207a65726f206164647265737345524332303a207472616e736665722066726f6d20746865207a65726f206164647265737345524332303a20617070726f76652066726f6d20746865207a65726f206164647265737345524332303a2064656372656173656420616c6c6f77616e63652062656c6f77207a65726fa265627a7a72315820e56bfbc3629bc43b346e090f675ad927a014a65bfb9d1636da397bc99e0b286f64736f6c63430005100032506175736572526f6c653a2063616c6c657220646f6573206e6f742068617665207468652050617573657220726f6c654f776e61626c653a206e6577206f776e657220697320746865207a65726f20616464726573734d696e746572526f6c653a2063616c6c657220646f6573206e6f74206861766520746865204d696e74657220726f6c65526f6c65733a206163636f756e7420646f6573206e6f74206861766520726f6c65536166654d6174683a206d756c7469706c69636174696f6e206f766572666c6f77526f6c65733a206163636f756e7420697320746865207a65726f2061646472657373",
  "source": "pragma solidity >=0.5.0 <0.6.0;\n\nimport '@openzeppelin/contracts/token/ERC20/ERC20Capped.sol';\nimport '@openzeppelin/contracts/token/ERC20/ERC20Detailed.sol';\nimport '@openzeppelin/contracts/token/ERC20/ERC20Pausable.sol';\nimport '@openzeppelin/contracts/ownership/Ownable.sol';\n\n/**\n * @title Ocean Protocol ERC20 Token Contract\n * @author Ocean Protocol Team\n * @dev Implementation of the Ocean Token.\n */\ncontract OceanToken is Ownable, ERC20Pausable, ERC20Detailed, ERC20Capped {\n\n    using SafeMath for uint256;\n\n    uint8 constant DECIMALS = 18;\n    uint256 constant CAP = 1400000000;\n    uint256 TOTALSUPPLY = CAP.mul(uint256(10) ** DECIMALS);\n\n    // keep track token holders\n    address[] private accounts = new address[](0);\n    mapping(address => bool) private tokenHolders;\n\n    /**\n     * @dev OceanToken constructor\n     */\n    constructor()\n    public\n    ERC20Detailed('OceanToken', 'OCEAN', DECIMALS)\n    ERC20Capped(TOTALSUPPLY)\n    Ownable()\n    {\n        address contractOwner = msg.sender;\n\n        addPauser(contractOwner);\n        renouncePauser();\n        addMinter(contractOwner);\n        renounceMinter();\n        transferOwnership(contractOwner);\n    }\n\n    /**\n     * @dev transfer tokens when not paused (pausable transfer function)\n     * @param _to receiver address\n     * @param _value amount of tokens\n     * @return true if receiver is illegible to receive tokens\n     */\n    function transfer(\n        address _to,\n        uint256 _value\n    )\n    public\n    returns (bool)\n    {\n        bool success = super.transfer(_to, _value);\n        if (success) {\n            updateTokenHolders(msg.sender, _to);\n        }\n        return success;\n    }\n\n    /**\n     * @dev transferFrom transfers tokens only when token is not paused\n     * @param _from sender address\n     * @param _to receiver address\n     * @param _value amount of tokens\n     * @return true if receiver is illegible to receive tokens\n     */\n    function transferFrom(\n        address _from,\n        address _to,\n        uint256 _value\n    )\n    public\n    returns (bool)\n    {\n        bool success = super.transferFrom(_from, _to, _value);\n        if (success) {\n            updateTokenHolders(_from, _to);\n        }\n        return success;\n    }\n\n    /**\n     * @dev retrieve the address & token balance of token holders (each time retrieve partial from the list)\n     * @param _start index\n     * @param _end index\n     * @return array of accounts and array of balances\n     */\n    function getAccounts(\n        uint256 _start,\n        uint256 _end\n    )\n    external\n    view\n    onlyOwner\n    returns (address[] memory, uint256[] memory)\n    {\n        require(\n            _start <= _end && _end < accounts.length,\n            'Array index out of bounds'\n        );\n\n        uint256 length = _end.sub(_start).add(1);\n\n        address[] memory _tokenHolders = new address[](length);\n        uint256[] memory _tokenBalances = new uint256[](length);\n\n        for (uint256 i = _start; i <= _end; i++)\n        {\n            address account = accounts[i];\n            uint256 accountBalance = super.balanceOf(account);\n            if (accountBalance > 0)\n            {\n                _tokenBalances[i] = accountBalance;\n                _tokenHolders[i] = account;\n            }\n        }\n\n        return (_tokenHolders, _tokenBalances);\n    }\n\n    /**\n     * @dev get length of account list\n     */\n    function getAccountsLength()\n    external\n    view\n    onlyOwner\n    returns (uint256)\n    {\n        return accounts.length;\n    }\n\n    /**\n     * @dev kill the contract and destroy all tokens\n     */\n    function kill()\n    external\n    onlyOwner\n    {\n        selfdestruct(address(uint160(owner())));\n    }\n\n    /**\n     * @dev fallback function prevents ether transfer to this contract\n     */\n    function()\n    external\n    payable\n    {\n        revert('Invalid ether transfer');\n    }\n\n    /*\n     * @dev tryToAddTokenHolder try to add the account to the token holders structure\n     * @param account address\n     */\n    function tryToAddTokenHolder(\n        address account\n    )\n    private\n    {\n        if (!tokenHolders[account] && super.balanceOf(account) > 0)\n        {\n            accounts.push(account);\n            tokenHolders[account] = true;\n        }\n    }\n\n    /*\n     * @dev updateTokenHolders maintains the accounts array and set the address as a promising token holder\n     * @param sender address\n     * @param receiver address.\n     */\n    function updateTokenHolders(\n        address sender,\n        address receiver\n    )\n    private\n    {\n        tryToAddTokenHolder(sender);\n        tryToAddTokenHolder(receiver);\n    }\n}\n",
  "sourcePath": "/home/x332/Projects/oceanprotocol/contracts-test-poc/contracts/token_contracts/OceanToken.sol",
  "compiler": {
    "name": "solc",
    "version": "0.5.16+commit.9c3226ce.Emscripten.clang"
  },
  "schemaVersion": "3.0.23",
  "updatedAt": "2020-03-04T11:08:25.966Z",
  "devdoc": {
    "author": "Ocean Protocol Team",
    "details": "Implementation of the Ocean Token.",
    "methods": {
      "allowance(address,address)": {
        "details": "See {IERC20-allowance}."
      },
      "balanceOf(address)": {
        "details": "See {IERC20-balanceOf}."
      },
      "cap()": {
        "details": "Returns the cap on the token's total supply."
      },
      "constructor": {
        "details": "OceanToken constructor"
      },
      "decimals()": {
        "details": "Returns the number of decimals used to get its user representation. For example, if `decimals` equals `2`, a balance of `505` tokens should be displayed to a user as `5,05` (`505 / 10 ** 2`).     * Tokens usually opt for a value of 18, imitating the relationship between Ether and Wei.     * NOTE: This information is only used for _display_ purposes: it in no way affects any of the arithmetic of the contract, including {IERC20-balanceOf} and {IERC20-transfer}."
      },
      "getAccounts(uint256,uint256)": {
        "details": "retrieve the address & token balance of token holders (each time retrieve partial from the list)",
        "params": {
          "_end": "index",
          "_start": "index"
        },
        "return": "array of accounts and array of balances"
      },
      "getAccountsLength()": {
        "details": "get length of account list"
      },
      "isOwner()": {
        "details": "Returns true if the caller is the current owner."
      },
      "kill()": {
        "details": "kill the contract and destroy all tokens"
      },
      "mint(address,uint256)": {
        "details": "See {ERC20-_mint}.     * Requirements:     * - the caller must have the {MinterRole}."
      },
      "name()": {
        "details": "Returns the name of the token."
      },
      "owner()": {
        "details": "Returns the address of the current owner."
      },
      "pause()": {
        "details": "Called by a pauser to pause, triggers stopped state."
      },
      "paused()": {
        "details": "Returns true if the contract is paused, and false otherwise."
      },
      "renounceOwnership()": {
        "details": "Leaves the contract without owner. It will not be possible to call `onlyOwner` functions anymore. Can only be called by the current owner.     * NOTE: Renouncing ownership will leave the contract without an owner, thereby removing any functionality that is only available to the owner."
      },
      "symbol()": {
        "details": "Returns the symbol of the token, usually a shorter version of the name."
      },
      "totalSupply()": {
        "details": "See {IERC20-totalSupply}."
      },
      "transfer(address,uint256)": {
        "details": "transfer tokens when not paused (pausable transfer function)",
        "params": {
          "_to": "receiver address",
          "_value": "amount of tokens"
        },
        "return": "true if receiver is illegible to receive tokens"
      },
      "transferFrom(address,address,uint256)": {
        "details": "transferFrom transfers tokens only when token is not paused",
        "params": {
          "_from": "sender address",
          "_to": "receiver address",
          "_value": "amount of tokens"
        },
        "return": "true if receiver is illegible to receive tokens"
      },
      "transferOwnership(address)": {
        "details": "Transfers ownership of the contract to a new account (`newOwner`). Can only be called by the current owner."
      },
      "unpause()": {
        "details": "Called by a pauser to unpause, returns to normal state."
      }
    },
    "title": "Ocean Protocol ERC20 Token Contract"
  },
  "userdoc": {
    "methods": {}
  }
}